{"abi":[{"type":"function","name":"AcceptBid","inputs":[{"name":"_poolId","type":"uint256","internalType":"uint256"},{"name":"_ERC20Address","type":"address","internalType":"address"},{"name":"_bidId","type":"uint256","internalType":"uint256"},{"name":"_lender","type":"address","internalType":"address"},{"name":"_receiver","type":"address","internalType":"address"}],"outputs":[],"stateMutability":"nonpayable"},{"type":"function","name":"RejectBid","inputs":[{"name":"_poolId","type":"uint256","internalType":"uint256"},{"name":"_ERC20Address","type":"address","internalType":"address"},{"name":"_bidId","type":"uint256","internalType":"uint256"},{"name":"_lender","type":"address","internalType":"address"}],"outputs":[],"stateMutability":"nonpayable"},{"type":"function","name":"RepayFullAmount","inputs":[{"name":"_poolId","type":"uint256","internalType":"uint256"},{"name":"_ERC20Address","type":"address","internalType":"address"},{"name":"_bidId","type":"uint256","internalType":"uint256"},{"name":"_lender","type":"address","internalType":"address"}],"outputs":[],"stateMutability":"nonpayable"},{"type":"function","name":"Withdraw","inputs":[{"name":"_poolId","type":"uint256","internalType":"uint256"},{"name":"_ERC20Address","type":"address","internalType":"address"},{"name":"_bidId","type":"uint256","internalType":"uint256"},{"name":"_lender","type":"address","internalType":"address"}],"outputs":[],"stateMutability":"nonpayable"},{"type":"function","name":"bidId","inputs":[],"outputs":[{"name":"","type":"uint256","internalType":"uint256"}],"stateMutability":"view"},{"type":"function","name":"calculateNextDueDate","inputs":[{"name":"_poolId","type":"uint256","internalType":"uint256"},{"name":"_ERC20Address","type":"address","internalType":"address"},{"name":"_bidId","type":"uint256","internalType":"uint256"},{"name":"_lender","type":"address","internalType":"address"}],"outputs":[{"name":"dueDate_","type":"uint256","internalType":"uint256"}],"stateMutability":"view"},{"type":"function","name":"initialize","inputs":[{"name":"_poolOwner","type":"address","internalType":"address"},{"name":"_poolRegistry","type":"address","internalType":"address"}],"outputs":[],"stateMutability":"nonpayable"},{"type":"function","name":"isBidExpired","inputs":[{"name":"_poolId","type":"uint256","internalType":"uint256"},{"name":"_ERC20Address","type":"address","internalType":"address"},{"name":"_bidId","type":"uint256","internalType":"uint256"},{"name":"_lender","type":"address","internalType":"address"}],"outputs":[{"name":"","type":"bool","internalType":"bool"}],"stateMutability":"view"},{"type":"function","name":"isLoanDefaulted","inputs":[{"name":"_poolId","type":"uint256","internalType":"uint256"},{"name":"_ERC20Address","type":"address","internalType":"address"},{"name":"_bidId","type":"uint256","internalType":"uint256"},{"name":"_lender","type":"address","internalType":"address"}],"outputs":[{"name":"","type":"bool","internalType":"bool"}],"stateMutability":"view"},{"type":"function","name":"isPaymentLate","inputs":[{"name":"_poolId","type":"uint256","internalType":"uint256"},{"name":"_ERC20Address","type":"address","internalType":"address"},{"name":"_bidId","type":"uint256","internalType":"uint256"},{"name":"_lender","type":"address","internalType":"address"}],"outputs":[{"name":"","type":"bool","internalType":"bool"}],"stateMutability":"view"},{"type":"function","name":"lenderPoolFundDetails","inputs":[{"name":"","type":"address","internalType":"address"},{"name":"","type":"uint256","internalType":"uint256"},{"name":"","type":"address","internalType":"address"},{"name":"","type":"uint256","internalType":"uint256"}],"outputs":[{"name":"amount","type":"uint256","internalType":"uint256"},{"name":"expiration","type":"uint256","internalType":"uint256"},{"name":"maxDuration","type":"uint32","internalType":"uint32"},{"name":"interestRate","type":"uint16","internalType":"uint16"},{"name":"state","type":"uint8","internalType":"enum FundingPool.BidState"},{"name":"bidTimestamp","type":"uint32","internalType":"uint32"},{"name":"acceptBidTimestamp","type":"uint32","internalType":"uint32"},{"name":"paymentCycleAmount","type":"uint256","internalType":"uint256"},{"name":"totalRepaidPrincipal","type":"uint256","internalType":"uint256"},{"name":"lastRepaidTimestamp","type":"uint32","internalType":"uint32"},{"name":"installment","type":"tuple","internalType":"struct FundingPool.Installments","components":[{"name":"monthlyCycleInterest","type":"uint256","internalType":"uint256"},{"name":"installments","type":"uint32","internalType":"uint32"},{"name":"installmentsPaid","type":"uint32","internalType":"uint32"},{"name":"defaultDuration","type":"uint32","internalType":"uint32"},{"name":"protocolFee","type":"uint16","internalType":"uint16"}]},{"name":"Repaid","type":"tuple","internalType":"struct FundingPool.RePayment","components":[{"name":"amount","type":"uint256","internalType":"uint256"},{"name":"interest","type":"uint256","internalType":"uint256"}]}],"stateMutability":"view"},{"type":"function","name":"poolOwner","inputs":[],"outputs":[{"name":"","type":"address","internalType":"address"}],"stateMutability":"view"},{"type":"function","name":"poolRegistryAddress","inputs":[],"outputs":[{"name":"","type":"address","internalType":"address"}],"stateMutability":"view"},{"type":"function","name":"repayMonthlyInstallment","inputs":[{"name":"_poolId","type":"uint256","internalType":"uint256"},{"name":"_ERC20Address","type":"address","internalType":"address"},{"name":"_bidId","type":"uint256","internalType":"uint256"},{"name":"_lender","type":"address","internalType":"address"}],"outputs":[],"stateMutability":"nonpayable"},{"type":"function","name":"supplyToPool","inputs":[{"name":"_poolId","type":"uint256","internalType":"uint256"},{"name":"_ERC20Address","type":"address","internalType":"address"},{"name":"_amount","type":"uint256","internalType":"uint256"},{"name":"_maxLoanDuration","type":"uint32","internalType":"uint32"},{"name":"_expiration","type":"uint256","internalType":"uint256"},{"name":"_APR","type":"uint16","internalType":"uint16"}],"outputs":[],"stateMutability":"nonpayable"},{"type":"function","name":"viewFullRepayAmount","inputs":[{"name":"_poolId","type":"uint256","internalType":"uint256"},{"name":"_ERC20Address","type":"address","internalType":"address"},{"name":"_bidId","type":"uint256","internalType":"uint256"},{"name":"_lender","type":"address","internalType":"address"}],"outputs":[{"name":"","type":"uint256","internalType":"uint256"}],"stateMutability":"view"},{"type":"function","name":"viewInstallmentAmount","inputs":[{"name":"_poolId","type":"uint256","internalType":"uint256"},{"name":"_ERC20Address","type":"address","internalType":"address"},{"name":"_bidId","type":"uint256","internalType":"uint256"},{"name":"_lender","type":"address","internalType":"address"}],"outputs":[{"name":"","type":"uint256","internalType":"uint256"}],"stateMutability":"view"},{"type":"event","name":"BidAccepted","inputs":[{"name":"lender","type":"address","indexed":false,"internalType":"address"},{"name":"reciever","type":"address","indexed":false,"internalType":"address"},{"name":"BidId","type":"uint256","indexed":false,"internalType":"uint256"},{"name":"PoolId","type":"uint256","indexed":false,"internalType":"uint256"},{"name":"Amount","type":"uint256","indexed":false,"internalType":"uint256"},{"name":"paymentCycleAmount","type":"uint256","indexed":false,"internalType":"uint256"}],"anonymous":false},{"type":"event","name":"BidRejected","inputs":[{"name":"lender","type":"address","indexed":false,"internalType":"address"},{"name":"BidId","type":"uint256","indexed":false,"internalType":"uint256"},{"name":"PoolId","type":"uint256","indexed":false,"internalType":"uint256"},{"name":"Amount","type":"uint256","indexed":false,"internalType":"uint256"}],"anonymous":false},{"type":"event","name":"BidRepaid","inputs":[{"name":"bidId","type":"uint256","indexed":true,"internalType":"uint256"},{"name":"PaidAmount","type":"uint256","indexed":false,"internalType":"uint256"}],"anonymous":false},{"type":"event","name":"BidRepayment","inputs":[{"name":"bidId","type":"uint256","indexed":true,"internalType":"uint256"},{"name":"PaidAmount","type":"uint256","indexed":false,"internalType":"uint256"}],"anonymous":false},{"type":"event","name":"FullAmountRepaid","inputs":[{"name":"poolId","type":"uint256","indexed":false,"internalType":"uint256"},{"name":"bidId","type":"uint256","indexed":false,"internalType":"uint256"},{"name":"Amount","type":"uint256","indexed":false,"internalType":"uint256"},{"name":"interest","type":"uint256","indexed":false,"internalType":"uint256"}],"anonymous":false},{"type":"event","name":"Initialized","inputs":[{"name":"version","type":"uint8","indexed":false,"internalType":"uint8"}],"anonymous":false},{"type":"event","name":"InstallmentRepaid","inputs":[{"name":"poolId","type":"uint256","indexed":false,"internalType":"uint256"},{"name":"bidId","type":"uint256","indexed":false,"internalType":"uint256"},{"name":"owedAmount","type":"uint256","indexed":false,"internalType":"uint256"},{"name":"dueAmount","type":"uint256","indexed":false,"internalType":"uint256"},{"name":"interest","type":"uint256","indexed":false,"internalType":"uint256"}],"anonymous":false},{"type":"event","name":"SuppliedToPool","inputs":[{"name":"lender","type":"address","indexed":true,"internalType":"address"},{"name":"poolId","type":"uint256","indexed":true,"internalType":"uint256"},{"name":"BidId","type":"uint256","indexed":false,"internalType":"uint256"},{"name":"ERC20Token","type":"address","indexed":true,"internalType":"address"},{"name":"tokenAmount","type":"uint256","indexed":false,"internalType":"uint256"}],"anonymous":false},{"type":"event","name":"Withdrawn","inputs":[{"name":"reciever","type":"address","indexed":false,"internalType":"address"},{"name":"BidId","type":"uint256","indexed":false,"internalType":"uint256"},{"name":"PoolId","type":"uint256","indexed":false,"internalType":"uint256"},{"name":"Amount","type":"uint256","indexed":false,"internalType":"uint256"}],"anonymous":false}],"bytecode":{"object":"0x6080604052600060355534801561001557600080fd5b5061313e806100256000396000f3fe608060405234801561001057600080fd5b506004361061010b5760003560e01c80635645483b116100a25780638e5535d8116100715780638e5535d8146102275780639080e5621461023a578063b74e673314610343578063bd0ea7f514610356578063cf0b22701461036957600080fd5b80635645483b146101cd578063598901c6146101e05780635bf503fc1461020b5780638ac473191461021e57600080fd5b8063465d00b1116100de578063465d00b114610173578063485cc9551461019457806348f37280146101a757806355ddb0c0146101ba57600080fd5b8063055602d41461011057806315c76d0914610138578063297d7cb41461014d5780633a02241b14610160575b600080fd5b61012361011e3660046128fc565b61037c565b60405190151581526020015b60405180910390f35b61014b6101463660046128fc565b61040d565b005b61014b61015b3660046128fc565b610765565b61014b61016e3660046128fc565b610961565b6101866101813660046128fc565b610bce565b60405190815260200161012f565b61014b6101a2366004612946565b610cba565b6101866101b53660046128fc565b610df5565b6101236101c83660046128fc565b610fac565b61014b6101db36600461297f565b61103f565b6034546101f3906001600160a01b031681565b6040516001600160a01b03909116815260200161012f565b61014b610219366004612a00565b611528565b61018660355481565b6101236102353660046128fc565b611c84565b61032b610248366004612a67565b6036602090815260009485526040808620825293855283852081529184528284208252835291819020805460018201546002830154600384015460048501546005860154875160a08101895260068801548152600788015463ffffffff808216838d0152600160201b8083048216848d0152600160401b83048216606085015261ffff600160601b909304831660808501528b51808d01909c5260088b01548c526009909a01549b8b019b909b529699959886861698860490971696600160301b860460ff1696600160381b8704811696600160581b900481169594931691908c565b60405161012f9c9b9a99989796959493929190612ac5565b61014b6103513660046128fc565b611d57565b6101866103643660046128fc565b611f9f565b6033546101f3906001600160a01b031681565b6001600160a01b038082166000908152603660209081526040808320888452825280832093871683529281528282208583529052908120816002820154600160301b900460ff1660048111156103d4576103d4612aaf565b146103e3576000915050610405565b60018101546103f6576000915050610405565b6001015463ffffffff42161190505b949350505050565b610415612124565b6033546001600160a01b031633146104485760405162461bcd60e51b815260040161043f90612bb3565b60405180910390fd5b6001600160a01b0380821660009081526036602090815260408083208884528252808320938716835292815282822085835290522060078101548154620f42409161049b9163ffffffff90911690612c16565b10156104cf5760405162461bcd60e51b81526020600482015260036024820152626c6f7760e81b604482015260640161043f565b60016002820154600160301b900460ff1660048111156104f1576104f1612aaf565b146105365760405162461bcd60e51b8152602060048201526015602482015274131bd85b881b5d5cdd081899481858d8d95c1d1959605a1b604482015260640161043f565b600781015463ffffffff8082169161055891600160201b909104166001612c2a565b63ffffffff16111561056957600080fd5b61057585858585610df5565b421161058057600080fd5b60345460405163805deb5360e01b8152600481018790526000916001600160a01b03169063805deb5390602401602060405180830381865afa1580156105ca573d6000803e3d6000fd5b505050506040513d601f19601f820116820180604052508101906105ee9190612c52565b600783015490915063ffffffff8082169161061391600160201b909104166001612c2a565b63ffffffff1614156106305761062b8686868661217e565b610754565b6006820154600383015460006106468383612c76565b855460088701546002880154600389015460058a01549495506000948594610698949093909261ffff600160201b83041692909163ffffffff808e16928116914291600160581b82048116911661236f565b60078a018054939550909350600160201b90920463ffffffff1691905060046106c083612c8d565b91906101000a81548163ffffffff021916908363ffffffff160217905550506106f98b8b8b8b878a87896106f49190612cb1565b6123a0565b6007870154610716908790600160201b900463ffffffff16612cc9565b60028801546107329190600160581b900463ffffffff16612c2a565b60058801805463ffffffff191663ffffffff9290921691909117905550505050505b505061075f60018055565b50505050565b61076d612124565b6033546001600160a01b031633146107975760405162461bcd60e51b815260040161043f90612bb3565b6001600160a01b0380821660009081526036602090815260408083208884528252808320938716835292815282822085835290522060016002820154600160301b900460ff1660048111156107ee576107ee612aaf565b146108325760405162461bcd60e51b8152602060048201526014602482015273109a59081b5d5cdd081899481858d8d95c1d195960621b604482015260640161043f565b60345460405163805deb5360e01b8152600481018790526000916001600160a01b03169063805deb5390602401602060405180830381865afa15801561087c573d6000803e3d6000fd5b505050506040513d601f19601f820116820180604052508101906108a09190612c52565b8254600884015460028501546003860154600587015494955060009485946108f2949093909261ffff600160201b83041692909163ffffffff808b16928116914291600160581b82048116911661236f565b925050915061090c88888888868687896106f49190612cb1565b6040805189815260208101889052908101839052606081018290527ff5a9ec8b3fd0f8ce05cf49ad0c5e37890b60cf5397c95f2d330dce6300f2cfed9060800160405180910390a15050505061075f60018055565b610969612124565b6033546001600160a01b031633146109935760405162461bcd60e51b815260040161043f90612bb3565b60345460405163a8380df160e01b8152600481018690526001600160a01b039091169063a8380df190602401602060405180830381865afa1580156109dc573d6000803e3d6000fd5b505050506040513d601f19601f82011682018060405250810190610a009190612d0a565b15610a1d5760405162461bcd60e51b815260040161043f90612d25565b6001600160a01b038082166000908152603660209081526040808320888452825280832093871683529281528282208583529052908120906002820154600160301b900460ff166004811115610a7557610a75612aaf565b14610a925760405162461bcd60e51b815260040161043f90612d4a565b600281018054660400000000000060ff60301b19909116179055805460405163a9059cbb60e01b81526001600160a01b03848116600483015260248201929092529085169063a9059cbb906044016020604051808303816000875af1158015610aff573d6000803e3d6000fd5b505050506040513d601f19601f82011682018060405250810190610b239190612d0a565b610b6f5760405162461bcd60e51b815260206004820152601e60248201527f756e61626c6520746f207472616e7366657220746f2072656365697665720000604482015260640161043f565b8054604080516001600160a01b03851681526020810186905290810187905260608101919091527f1fbcf669b8dea19d2455104720bd43634fd37e6ef749b42758f5653c8bad7435906080015b60405180910390a15061075f60018055565b6001600160a01b0380821660009081526036602090815260408083208884528252808320938716835292815282822085835290529081206005810154600282015463ffffffff918216918491610c2d91600160581b909104168361259a565b6002840154909150600090610c4f90600160581b900463ffffffff164261259a565b600785015490915063ffffffff80821691610c7491600160201b909104166001612c2a565b63ffffffff161415610c9757610c8c89898989611f9f565b945050505050610405565b81811115610cad57505050600301549050610405565b6000945050505050610405565b600054610100900460ff1615808015610cda5750600054600160ff909116105b80610cf45750303b158015610cf4575060005460ff166001145b610d575760405162461bcd60e51b815260206004820152602e60248201527f496e697469616c697a61626c653a20636f6e747261637420697320616c72656160448201526d191e481a5b9a5d1a585b1a5e995960921b606482015260840161043f565b6000805460ff191660011790558015610d7a576000805461ff0019166101001790555b603380546001600160a01b038086166001600160a01b03199283161790925560348054928516929091169190911790558015610df0576000805461ff0019169055604051600181527f7f26b83ff96e1f2b6a682f133852f6798a09c465da95921460cefb38474024989060200160405180910390a15b505050565b6001600160a01b03808216600090815260366020908152604080832088845282528083209387168352928152828220858352905290812060016002820154600160301b900460ff166004811115610e4e57610e4e612aaf565b14610e595750610405565b60345460405163805deb5360e01b8152600481018890526000916001600160a01b03169063805deb5390602401602060405180830381865afa158015610ea3573d6000803e3d6000fd5b505050506040513d601f19601f82011682018060405250810190610ec79190612c52565b600283015463ffffffff9182169250610ee9918391600160581b900416612cb1565b60028301546005840154919450600091610f139163ffffffff600160581b90910481169116612d77565b905063ffffffff811615610f4d576000610f338363ffffffff8416612c16565b9050610f3f8382612d9c565b610f499086612cb1565b9450505b6002830154610f6c9063ffffffff80821691600160581b900416612c2a565b63ffffffff16841115610fa1576002830154610f989063ffffffff80821691600160581b900416612c2a565b63ffffffff1693505b505050949350505050565b6001600160a01b03808216600090815260366020908152604080832088845282528083209387168352928152828220858352905290812060016002820154600160301b900460ff16600481111561100557611005612aaf565b14611014576000915050610405565b61102086868686610df5565b61102d9062093a80612cb1565b63ffffffff4216119695505050505050565b611047612124565b6033546001600160a01b031633146110715760405162461bcd60e51b815260040161043f90612bb3565b60345460405163a8380df160e01b8152600481018790526001600160a01b039091169063a8380df190602401602060405180830381865afa1580156110ba573d6000803e3d6000fd5b505050506040513d601f19601f820116820180604052508101906110de9190612d0a565b156110fb5760405162461bcd60e51b815260040161043f90612d25565b6001600160a01b038083166000908152603660209081526040808320898452825280832093881683529281528282208683529052908120906002820154600160301b900460ff16600481111561115357611153612aaf565b146111705760405162461bcd60e51b815260040161043f90612d4a565b4263ffffffff16816001015410156111b85760405162461bcd60e51b815260206004820152600b60248201526a189a5908195e1c1a5c995960aa1b604482015260640161043f565b60028101805460058301805463ffffffff421663ffffffff1990911681179091558354600160581b90910260ff60301b19166effffffff00000000ff0000000000001990921691909117600160301b1790915560345460408051637d4ff48b60e11b815290516000926001600160a01b03169163fa9fe9169160048083019260209291908290030181865afa158015611255573d6000803e3d6000fd5b505050506040513d601f19601f820116820180604052508101906112799190612dbb565b6007840154604051633fb3400360e01b815260048101859052600160601b90910461ffff16602482015290915060009073__$61c3dbfad47bb5d5260aee114f5f9d6488$__90633fb3400390604401602060405180830381865af41580156112e5573d6000803e3d6000fd5b505050506040513d601f19601f820116820180604052508101906113099190612dd8565b90506001600160a01b03881663a9059cbb866113258487612c76565b6040516001600160e01b031960e085901b1681526001600160a01b03909216600483015260248201526044016020604051808303816000875af1158015611370573d6000803e3d6000fd5b505050506040513d601f19601f820116820180604052508101906113949190612d0a565b6113e05760405162461bcd60e51b815260206004820152601e60248201527f756e61626c6520746f207472616e7366657220746f2072656365697665720000604482015260640161043f565b80156114b05760405163a9059cbb60e01b81526001600160a01b0383811660048301526024820183905289169063a9059cbb906044016020604051808303816000875af1158015611435573d6000803e3d6000fd5b505050506040513d601f19601f820116820180604052508101906114599190612d0a565b6114b05760405162461bcd60e51b815260206004820152602260248201527f556e61626c6520746f207472616e7366657220746f2041636f6e6f6d794f776e60448201526132b960f11b606482015260840161043f565b6003840154604080516001600160a01b038981168252881660208201528082018a9052606081018c90526080810186905260a0810192909252517f63ab63b6dade522b278971b21a2e05cf82c74fd32a9d8ceab8ada745d636fce09181900360c00190a15050505061152160018055565b5050505050565b611530612124565b60345460405163a8380df160e01b8152600481018890526001600160a01b039091169063a8380df190602401602060405180830381865afa158015611579573d6000803e3d6000fd5b505050506040513d601f19601f8201168201806040525081019061159d9190612d0a565b156115ba5760405162461bcd60e51b815260040161043f90612d25565b603454604051636d2ef0d160e11b8152600481018890523360248201526000916001600160a01b03169063da5de1a2906044016040805180830381865afa158015611609573d6000803e3d6000fd5b505050506040513d601f19601f8201168201806040525081019061162d9190612df1565b509050806116735760405162461bcd60e51b81526020600482015260136024820152722737ba103b32b934b334b2b2103632b73232b960691b604482015260640161043f565b6001600160a01b0386166116d55760405162461bcd60e51b815260206004820152602360248201527f796f752063616e277420646f20746869732077697468207a65726f206164647260448201526265737360e81b606482015260840161043f565b6116e262278d0085612e1d565b63ffffffff16156116f257600080fd5b60648261ffff1610156117355760405162461bcd60e51b815260206004820152600b60248201526a61707220746f6f206c6f7760a81b604482015260640161043f565b620f42408510156117795760405162461bcd60e51b815260206004820152600e60248201526d616d6f756e7420746f6f206c6f7760901b604482015260640161043f565b60345460408051639113471560e01b815290516000926001600160a01b03169163911347159160048083019260209291908290030181865afa1580156117c3573d6000803e3d6000fd5b505050506040513d601f19601f820116820180604052508101906117e79190612e40565b90504263ffffffff1684116118305760405162461bcd60e51b815260206004820152600f60248201526e077726f6e672074696d657374616d7608c1b604482015260640161043f565b6035543360009081526036602090815260408083208c845282528083206001600160a01b038c168452825280832084845290915290208781556001810186905560028101805463ffffffff89811665ffffffffffff1990921691909117600160201b61ffff891602176affffffffff0000000000001916600160381b42929092169190910260ff60301b19161790556118cc62278d0088612e5d565b60078201805463ffffffff929092166dffff00000000ffffffffffffffff1990921691909117600160601b61ffff86160217905560345460405163805deb5360e01b8152600481018c90526000916001600160a01b03169063805deb5390602401602060405180830381865afa15801561194a573d6000803e3d6000fd5b505050506040513d601f19601f8201168201806040525081019061196e9190612c52565b6002830154604051632872a88760e01b8152600481018c905263ffffffff808316602483015283166044820152600160201b90910461ffff16606482015290915073__$61c3dbfad47bb5d5260aee114f5f9d6488$__90632872a88790608401602060405180830381865af41580156119eb573d6000803e3d6000fd5b505050506040513d601f19601f82011682018060405250810190611a0f9190612dd8565b60038301556007820154600090611a2c9063ffffffff168b612c16565b9050808360030154611a3e9190612c76565b60068401556034546040516311bed5bb60e01b8152600481018e90526001600160a01b03909116906311bed5bb90602401602060405180830381865afa158015611a8c573d6000803e3d6000fd5b505050506040513d601f19601f82011682018060405250810190611ab09190612c52565b60078401805463ffffffff92909216600160401b026bffffffff00000000000000001990921691909117905560345460405162a5ae2160e01b8152600481018e90526000916001600160a01b03169062a5ae2190602401602060405180830381865afa158015611b24573d6000803e3d6000fd5b505050506040513d601f19601f82011682018060405250810190611b489190612dbb565b603580549192506000611b5a83612e80565b90915550506040516323b872dd60e01b81523360048201526001600160a01b038281166024830152604482018d90528d16906323b872dd906064016020604051808303816000875af1158015611bb4573d6000803e3d6000fd5b505050506040513d601f19601f82011682018060405250810190611bd89190612d0a565b611c245760405162461bcd60e51b815260206004820181905260248201527f556e61626c6520746f2074616e7366657220746f20706f6f6c41646472657373604482015260640161043f565b60408051868152602081018d90526001600160a01b038e16918f9133917fca1a65c6e44368f649482154a26df2e509bcade5831a095555a4272599b5afc5910160405180910390a450505050505050611c7c60018055565b505050505050565b6001600160a01b03808216600090815260366020908152604080832088845282528083209387168352928152828220858352905290812060016002820154600160301b900460ff166004811115611cdd57611cdd612aaf565b14611cec576000915050610405565b6007810154600160401b900463ffffffff16611d0c576000915050610405565b6007810154600282015463ffffffff600160401b909204821660030b91611d3f9180821691600160581b90910416612c2a565b611d499042612e9b565b60030b139695505050505050565b611d5f612124565b6001600160a01b038082166000908152603660209081526040808320888452825280832093871683529281528282208583529052908120906002820154600160301b900460ff166004811115611db757611db7612aaf565b14611dd45760405162461bcd60e51b815260040161043f90612d4a565b6001600160a01b0382163314611e235760405162461bcd60e51b81526020600482015260146024820152732cb7ba9030b932903737ba1030902632b73232b960611b604482015260640161043f565b4263ffffffff16816001015410611e715760405162461bcd60e51b8152602060048201526012602482015271596f752063616e277420576974686472617760701b604482015260640161043f565b600281018054660300000000000060ff60301b19909116179055805460405163a9059cbb60e01b81526001600160a01b03848116600483015260248201929092529085169063a9059cbb906044016020604051808303816000875af1158015611ede573d6000803e3d6000fd5b505050506040513d601f19601f82011682018060405250810190611f029190612d0a565b611f4e5760405162461bcd60e51b815260206004820152601c60248201527f556e61626c6520746f207472616e7366657220746f206c656e64657200000000604482015260640161043f565b8054604080516001600160a01b03851681526020810186905290810187905260608101919091527f75e161b3e824b114fc1a33274bd7091918dd4e639cede50b78b15a4eea956a2190608001610bbc565b6001600160a01b03808216600090815260366020908152604080832088845282528083209387168352928152828220858352905290812060016002820154600160301b900460ff166004811115611ff857611ff8612aaf565b1415806120235750600280820154600160301b900460ff16600481111561202157612021612aaf565b145b15612032576000915050610405565b60345460405163805deb5360e01b8152600481018890526000916001600160a01b03169063805deb5390602401602060405180830381865afa15801561207c573d6000803e3d6000fd5b505050506040513d601f19601f820116820180604052508101906120a09190612c52565b8254600884015460028501546003860154600587015494955060009485946121039490939092600160201b90910461ffff169163ffffffff808a1691166120e942610258612cb1565b60028c015463ffffffff600160581b82048116911661236f565b9250509150600081836121169190612cb1565b9a9950505050505050505050565b600260015414156121775760405162461bcd60e51b815260206004820152601f60248201527f5265656e7472616e637947756172643a207265656e7472616e742063616c6c00604482015260640161043f565b6002600155565b6033546001600160a01b031633146121a85760405162461bcd60e51b815260040161043f90612bb3565b6001600160a01b0380821660009081526036602090815260408083208884528252808320938716835292815282822085835290522060016002820154600160301b900460ff1660048111156121ff576121ff612aaf565b146122435760405162461bcd60e51b8152602060048201526014602482015273109a59081b5d5cdd081899481858d8d95c1d195960621b604482015260640161043f565b60345460405163805deb5360e01b8152600481018790526000916001600160a01b03169063805deb5390602401602060405180830381865afa15801561228d573d6000803e3d6000fd5b505050506040513d601f19601f820116820180604052508101906122b19190612c52565b825460088401546002850154600386015460058701549495506000948594612303949093909261ffff600160201b83041692909163ffffffff808b16928116914291600160581b82048116911661236f565b925050915061231d88888888868687896106f49190612cb1565b6040805189815260208101889052908101839052606081018290527ff5a9ec8b3fd0f8ce05cf49ad0c5e37890b60cf5397c95f2d330dce6300f2cfed9060800160405180910390a15050505050505050565b600080600061238b8c8c8c8c8c8c63ffffffff168c8c8c612621565b92509250925099509950999650505050505050565b6001600160a01b0380851660009081526036602090815260408083208b84528252808320938a1683529281528282208883529052908120906123e28486612cb1565b9050828110612440575060028101805460ff60301b19166602000000000000179055604051828152829087907f044e4ffaa963a008234a0fb6594c50a05f7b446bfe5b006fc943d89a21a9d3cc9060200160405180910390a261247b565b867f5cbcbe20d8ea4a0298a26fcffbb0f0b5ad3b5d8544bf621810bea582e40b539d8260405161247291815260200190565b60405180910390a25b848260080160000160008282546124929190612cb1565b90915550506009820180548591906000906124ae908490612cb1565b909155505060058201805463ffffffff19164263ffffffff161790556040516323b872dd60e01b81523360048201526001600160a01b038781166024830152604482018390528916906323b872dd906064016020604051808303816000875af115801561251f573d6000803e3d6000fd5b505050506040513d601f19601f820116820180604052508101906125439190612d0a565b61258f5760405162461bcd60e51b815260206004820152601c60248201527f756e61626c6520746f207472616e7366657220746f206c656e64657200000000604482015260640161043f565b505050505050505050565b6000818311156125a957600080fd5b6000806125c16125bc6201518087612c16565b612708565b5090925090506000806125da6125bc6201518088612c16565b509092509050826125ec85600c612d9c565b826125f885600c612d9c565b6126029190612cb1565b61260c9190612c76565b6126169190612c76565b979650505050505050565b6000808061262f8b8d612c76565b9250600061263d848c61287c565b9050600061264b8989612c76565b9050600061265b610e1083612c16565b90506121c08061266b8386612d9c565b6126759190612c16565b945060006126838a8c612ee5565b61268d908a612ee5565b905060008d8212806126a857508e6126a5888b612cb1565b11155b90506000816126b7578f6126c1565b6126c1888b612cb1565b905060008f6126d08884612d9c565b6126da9190612c16565b90506126ef6126e98a83612c76565b8c612897565b9950505050505050505099509950999650505050505050565b60008080838162253d8c61271f8362010bd9612f24565b6127299190612f24565b9050600062023ab161273c836004612f65565b6127469190612fea565b905060046127578262023ab1612f65565b612762906003612f24565b61276c9190612fea565b6127769083612ee5565b9150600062164b09612789846001612f24565b61279590610fa0612f65565b61279f9190612fea565b905060046127af826105b5612f65565b6127b99190612fea565b6127c39084612ee5565b6127ce90601f612f24565b9250600061098f6127e0856050612f65565b6127ea9190612fea565b9050600060506127fc8361098f612f65565b6128069190612fea565b6128109086612ee5565b905061281d600b83612fea565b945061282a85600c612f65565b612835836002612f24565b61283f9190612ee5565b9150848361284e603187612ee5565b612859906064612f65565b6128639190612f24565b61286d9190612f24565b9a919950975095505050505050565b600061288e838361ffff1660026128ad565b90505b92915050565b60008183106128a6578161288e565b5090919050565b60006128b8826128cc565b6128c28486612d9c565b6104059190612c16565b60006128d982600a6130fc565b612891906064612d9c565b6001600160a01b03811681146128f957600080fd5b50565b6000806000806080858703121561291257600080fd5b843593506020850135612924816128e4565b925060408501359150606085013561293b816128e4565b939692955090935050565b6000806040838503121561295957600080fd5b8235612964816128e4565b91506020830135612974816128e4565b809150509250929050565b600080600080600060a0868803121561299757600080fd5b8535945060208601356129a9816128e4565b93506040860135925060608601356129c0816128e4565b915060808601356129d0816128e4565b809150509295509295909350565b63ffffffff811681146128f957600080fd5b61ffff811681146128f957600080fd5b60008060008060008060c08789031215612a1957600080fd5b863595506020870135612a2b816128e4565b9450604087013593506060870135612a42816129de565b92506080870135915060a0870135612a59816129f0565b809150509295509295509295565b60008060008060808587031215612a7d57600080fd5b8435612a88816128e4565b9350602085013592506040850135612a9f816128e4565b9396929550929360600135925050565b634e487b7160e01b600052602160045260246000fd5b8c8152602081018c905263ffffffff8b16604082015261ffff8a166060820152610220810160058a10612b0857634e487b7160e01b600052602160045260246000fd5b896080830152612b2060a083018a63ffffffff169052565b63ffffffff881660c08301528660e083015285610100830152612b4c61012083018663ffffffff169052565b8351610140830152602084015163ffffffff908116610160840152604085015181166101808401526060850151166101a0830152608084015161ffff166101c083015282516101e083015260208301516102008301529d9c50505050505050505050505050565b6020808252601a908201527f596f7520617265206e6f742074686520506f6f6c204f776e6572000000000000604082015260600190565b634e487b7160e01b600052601260045260246000fd5b634e487b7160e01b600052601160045260246000fd5b600082612c2557612c25612bea565b500490565b600063ffffffff808316818516808303821115612c4957612c49612c00565b01949350505050565b600060208284031215612c6457600080fd5b8151612c6f816129de565b9392505050565b600082821015612c8857612c88612c00565b500390565b600063ffffffff80831681811415612ca757612ca7612c00565b6001019392505050565b60008219821115612cc457612cc4612c00565b500190565b600063ffffffff80831681851681830481118215151615612cec57612cec612c00565b02949350505050565b80518015158114612d0557600080fd5b919050565b600060208284031215612d1c57600080fd5b61288e82612cf5565b6020808252600b908201526a1c1bdbdb0818db1bdcd95960aa1b604082015260600190565b602080825260139082015272426964206d7573742062652070656e64696e6760681b604082015260600190565b600063ffffffff83811690831681811015612d9457612d94612c00565b039392505050565b6000816000190483118215151615612db657612db6612c00565b500290565b600060208284031215612dcd57600080fd5b8151612c6f816128e4565b600060208284031215612dea57600080fd5b5051919050565b60008060408385031215612e0457600080fd5b612e0d83612cf5565b9150602083015190509250929050565b600063ffffffff80841680612e3457612e34612bea565b92169190910692915050565b600060208284031215612e5257600080fd5b8151612c6f816129f0565b600063ffffffff80841680612e7457612e74612bea565b92169190910492915050565b6000600019821415612e9457612e94612c00565b5060010190565b60008160030b8360030b6000811281637fffffff1901831281151615612ec357612ec3612c00565b81637fffffff018313811615612edb57612edb612c00565b5090039392505050565b60008083128015600160ff1b850184121615612f0357612f03612c00565b6001600160ff1b0384018313811615612f1e57612f1e612c00565b50500390565b600080821280156001600160ff1b0384900385131615612f4657612f46612c00565b600160ff1b8390038412811615612f5f57612f5f612c00565b50500190565b60006001600160ff1b0381841382841380821686840486111615612f8b57612f8b612c00565b600160ff1b6000871282811687830589121615612faa57612faa612c00565b60008712925087820587128484161615612fc657612fc6612c00565b87850587128184161615612fdc57612fdc612c00565b505050929093029392505050565b600082612ff957612ff9612bea565b600160ff1b82146000198414161561301357613013612c00565b500590565b600181815b8085111561305357816000190482111561303957613039612c00565b8085161561304657918102915b93841c939080029061301d565b509250929050565b60008261306a57506001612891565b8161307757506000612891565b816001811461308d5760028114613097576130b3565b6001915050612891565b60ff8411156130a8576130a8612c00565b50506001821b612891565b5060208310610133831016604e8410600b84101617156130d6575081810a612891565b6130e08383613018565b80600019048211156130f4576130f4612c00565b029392505050565b600061288e838361305b56fea2646970667358221220e0e4d2ceaaed8cb692b020354f5294d7a64f53e6ddb654eeb54d842d5b7b06ff64736f6c634300080b0033","linkReferences":{"contracts/Libraries/LibCalculations.sol":{"LibCalculations":[{"start":4816,"length":20},{"start":6614,"length":20}]}}},"methodIdentifiers":{"AcceptBid(uint256,address,uint256,address,address)":"5645483b","RejectBid(uint256,address,uint256,address)":"3a02241b","RepayFullAmount(uint256,address,uint256,address)":"297d7cb4","Withdraw(uint256,address,uint256,address)":"b74e6733","bidId()":"8ac47319","calculateNextDueDate(uint256,address,uint256,address)":"48f37280","initialize(address,address)":"485cc955","isBidExpired(uint256,address,uint256,address)":"055602d4","isLoanDefaulted(uint256,address,uint256,address)":"8e5535d8","isPaymentLate(uint256,address,uint256,address)":"55ddb0c0","lenderPoolFundDetails(address,uint256,address,uint256)":"9080e562","poolOwner()":"cf0b2270","poolRegistryAddress()":"598901c6","repayMonthlyInstallment(uint256,address,uint256,address)":"15c76d09","supplyToPool(uint256,address,uint256,uint32,uint256,uint16)":"5bf503fc","viewFullRepayAmount(uint256,address,uint256,address)":"bd0ea7f5","viewInstallmentAmount(uint256,address,uint256,address)":"465d00b1"},"id":6}