{
  "_format": "hh-sol-artifact-1",
  "contractName": "NFTlendingBorrowing",
  "sourceName": "contracts/NFTlendingBorrowing.sol",
  "abi": [
    {
      "inputs": [],
      "stateMutability": "nonpayable",
      "type": "constructor"
    },
    {
      "anonymous": false,
      "inputs": [
        {
          "indexed": false,
          "internalType": "uint256",
          "name": "NFTid",
          "type": "uint256"
        },
        {
          "indexed": false,
          "internalType": "uint256",
          "name": "BidId",
          "type": "uint256"
        },
        {
          "indexed": false,
          "internalType": "uint256",
          "name": "Amount",
          "type": "uint256"
        },
        {
          "indexed": false,
          "internalType": "uint256",
          "name": "ProtocolAmount",
          "type": "uint256"
        },
        {
          "indexed": false,
          "internalType": "address",
          "name": "ContractAddress",
          "type": "address"
        }
      ],
      "name": "AcceptedBid",
      "type": "event"
    },
    {
      "anonymous": false,
      "inputs": [
        {
          "indexed": false,
          "internalType": "address",
          "name": "previousAdmin",
          "type": "address"
        },
        {
          "indexed": false,
          "internalType": "address",
          "name": "newAdmin",
          "type": "address"
        }
      ],
      "name": "AdminChanged",
      "type": "event"
    },
    {
      "anonymous": false,
      "inputs": [
        {
          "indexed": false,
          "internalType": "uint256",
          "name": "BidId",
          "type": "uint256"
        },
        {
          "indexed": false,
          "internalType": "uint256",
          "name": "NFTid",
          "type": "uint256"
        },
        {
          "indexed": false,
          "internalType": "uint256",
          "name": "TokenId",
          "type": "uint256"
        },
        {
          "indexed": false,
          "internalType": "address",
          "name": "ContractAddress",
          "type": "address"
        },
        {
          "indexed": false,
          "internalType": "uint256",
          "name": "BidAmount",
          "type": "uint256"
        },
        {
          "indexed": false,
          "internalType": "uint16",
          "name": "APY",
          "type": "uint16"
        },
        {
          "indexed": false,
          "internalType": "uint32",
          "name": "Duration",
          "type": "uint32"
        },
        {
          "indexed": false,
          "internalType": "uint256",
          "name": "Expiration",
          "type": "uint256"
        },
        {
          "indexed": false,
          "internalType": "address",
          "name": "ERC20Address",
          "type": "address"
        }
      ],
      "name": "AppliedBid",
      "type": "event"
    },
    {
      "anonymous": false,
      "inputs": [
        {
          "indexed": true,
          "internalType": "address",
          "name": "beacon",
          "type": "address"
        }
      ],
      "name": "BeaconUpgraded",
      "type": "event"
    },
    {
      "anonymous": false,
      "inputs": [
        {
          "indexed": false,
          "internalType": "uint256",
          "name": "NFTid",
          "type": "uint256"
        },
        {
          "indexed": false,
          "internalType": "uint256",
          "name": "BidId",
          "type": "uint256"
        },
        {
          "indexed": false,
          "internalType": "address",
          "name": "recieverAddress",
          "type": "address"
        },
        {
          "indexed": false,
          "internalType": "uint256",
          "name": "Amount",
          "type": "uint256"
        },
        {
          "indexed": false,
          "internalType": "address",
          "name": "ContractAddress",
          "type": "address"
        }
      ],
      "name": "BidRejected",
      "type": "event"
    },
    {
      "anonymous": false,
      "inputs": [
        {
          "indexed": false,
          "internalType": "uint256",
          "name": "NFTid",
          "type": "uint256"
        },
        {
          "indexed": false,
          "internalType": "uint32",
          "name": "Duration",
          "type": "uint32"
        }
      ],
      "name": "DurationSet",
      "type": "event"
    },
    {
      "anonymous": false,
      "inputs": [
        {
          "indexed": false,
          "internalType": "uint256",
          "name": "NFTid",
          "type": "uint256"
        },
        {
          "indexed": false,
          "internalType": "uint256",
          "name": "expectedAmount",
          "type": "uint256"
        }
      ],
      "name": "ExpectedAmountSet",
      "type": "event"
    },
    {
      "anonymous": false,
      "inputs": [
        {
          "indexed": false,
          "internalType": "uint8",
          "name": "version",
          "type": "uint8"
        }
      ],
      "name": "Initialized",
      "type": "event"
    },
    {
      "anonymous": false,
      "inputs": [
        {
          "indexed": false,
          "internalType": "uint256",
          "name": "NFTId",
          "type": "uint256"
        },
        {
          "indexed": false,
          "internalType": "address",
          "name": "ContractAddress",
          "type": "address"
        }
      ],
      "name": "NFTRemoved",
      "type": "event"
    },
    {
      "anonymous": false,
      "inputs": [
        {
          "indexed": false,
          "internalType": "uint256",
          "name": "NFTid",
          "type": "uint256"
        },
        {
          "indexed": false,
          "internalType": "uint256",
          "name": "BidId",
          "type": "uint256"
        },
        {
          "indexed": false,
          "internalType": "address",
          "name": "ContractAddress",
          "type": "address"
        },
        {
          "indexed": false,
          "internalType": "address",
          "name": "prevNFTowner",
          "type": "address"
        },
        {
          "indexed": false,
          "internalType": "address",
          "name": "newNFTowner",
          "type": "address"
        }
      ],
      "name": "NFTclaimed",
      "type": "event"
    },
    {
      "anonymous": false,
      "inputs": [
        {
          "indexed": false,
          "internalType": "uint256",
          "name": "NFTid",
          "type": "uint256"
        },
        {
          "indexed": false,
          "internalType": "uint256",
          "name": "TokenId",
          "type": "uint256"
        },
        {
          "indexed": false,
          "internalType": "address",
          "name": "ContractAddress",
          "type": "address"
        },
        {
          "indexed": false,
          "internalType": "uint256",
          "name": "ExpectedAmount",
          "type": "uint256"
        },
        {
          "indexed": false,
          "internalType": "uint16",
          "name": "Percent",
          "type": "uint16"
        },
        {
          "indexed": false,
          "internalType": "uint32",
          "name": "Duration",
          "type": "uint32"
        },
        {
          "indexed": false,
          "internalType": "uint256",
          "name": "Expiration",
          "type": "uint256"
        }
      ],
      "name": "NFTlisted",
      "type": "event"
    },
    {
      "anonymous": false,
      "inputs": [
        {
          "indexed": true,
          "internalType": "address",
          "name": "previousOwner",
          "type": "address"
        },
        {
          "indexed": true,
          "internalType": "address",
          "name": "newOwner",
          "type": "address"
        }
      ],
      "name": "OwnershipTransferred",
      "type": "event"
    },
    {
      "anonymous": false,
      "inputs": [
        {
          "indexed": false,
          "internalType": "address",
          "name": "account",
          "type": "address"
        }
      ],
      "name": "Paused",
      "type": "event"
    },
    {
      "anonymous": false,
      "inputs": [
        {
          "indexed": false,
          "internalType": "uint256",
          "name": "NFTid",
          "type": "uint256"
        },
        {
          "indexed": false,
          "internalType": "uint16",
          "name": "Percent",
          "type": "uint16"
        }
      ],
      "name": "PercentSet",
      "type": "event"
    },
    {
      "anonymous": false,
      "inputs": [
        {
          "indexed": false,
          "internalType": "address",
          "name": "account",
          "type": "address"
        }
      ],
      "name": "Unpaused",
      "type": "event"
    },
    {
      "anonymous": false,
      "inputs": [
        {
          "indexed": true,
          "internalType": "address",
          "name": "implementation",
          "type": "address"
        }
      ],
      "name": "Upgraded",
      "type": "event"
    },
    {
      "anonymous": false,
      "inputs": [
        {
          "indexed": false,
          "internalType": "uint256",
          "name": "NFTid",
          "type": "uint256"
        },
        {
          "indexed": false,
          "internalType": "uint256",
          "name": "BidId",
          "type": "uint256"
        },
        {
          "indexed": false,
          "internalType": "uint256",
          "name": "Amount",
          "type": "uint256"
        }
      ],
      "name": "Withdrawn",
      "type": "event"
    },
    {
      "anonymous": false,
      "inputs": [
        {
          "indexed": false,
          "internalType": "uint256",
          "name": "NFTid",
          "type": "uint256"
        },
        {
          "indexed": false,
          "internalType": "uint256",
          "name": "BidId",
          "type": "uint256"
        },
        {
          "indexed": false,
          "internalType": "uint256",
          "name": "Amount",
          "type": "uint256"
        },
        {
          "indexed": false,
          "internalType": "address",
          "name": "ContractAddress",
          "type": "address"
        }
      ],
      "name": "repaid",
      "type": "event"
    },
    {
      "inputs": [
        {
          "internalType": "uint256",
          "name": "_NFTid",
          "type": "uint256"
        },
        {
          "internalType": "uint256",
          "name": "_bidId",
          "type": "uint256"
        }
      ],
      "name": "AcceptBid",
      "outputs": [],
      "stateMutability": "nonpayable",
      "type": "function"
    },
    {
      "inputs": [
        {
          "internalType": "uint256",
          "name": "_NFTid",
          "type": "uint256"
        },
        {
          "internalType": "uint256",
          "name": "_bidAmount",
          "type": "uint256"
        },
        {
          "internalType": "address",
          "name": "_ERC20Address",
          "type": "address"
        },
        {
          "internalType": "uint16",
          "name": "_percent",
          "type": "uint16"
        },
        {
          "internalType": "uint32",
          "name": "_duration",
          "type": "uint32"
        },
        {
          "internalType": "uint256",
          "name": "_expiration",
          "type": "uint256"
        }
      ],
      "name": "Bid",
      "outputs": [],
      "stateMutability": "nonpayable",
      "type": "function"
    },
    {
      "inputs": [
        {
          "internalType": "uint256",
          "name": "",
          "type": "uint256"
        },
        {
          "internalType": "uint256",
          "name": "",
          "type": "uint256"
        }
      ],
      "name": "Bids",
      "outputs": [
        {
          "internalType": "uint256",
          "name": "bidId",
          "type": "uint256"
        },
        {
          "internalType": "uint16",
          "name": "percent",
          "type": "uint16"
        },
        {
          "internalType": "uint32",
          "name": "duration",
          "type": "uint32"
        },
        {
          "internalType": "uint256",
          "name": "expiration",
          "type": "uint256"
        },
        {
          "internalType": "address",
          "name": "bidderAddress",
          "type": "address"
        },
        {
          "internalType": "address",
          "name": "ERC20Address",
          "type": "address"
        },
        {
          "internalType": "uint256",
          "name": "Amount",
          "type": "uint256"
        },
        {
          "internalType": "uint256",
          "name": "acceptedTimestamp",
          "type": "uint256"
        },
        {
          "internalType": "uint16",
          "name": "protocolFee",
          "type": "uint16"
        },
        {
          "internalType": "bool",
          "name": "withdrawn",
          "type": "bool"
        },
        {
          "internalType": "bool",
          "name": "bidAccepted",
          "type": "bool"
        }
      ],
      "stateMutability": "view",
      "type": "function"
    },
    {
      "inputs": [
        {
          "internalType": "uint256",
          "name": "_NFTid",
          "type": "uint256"
        },
        {
          "internalType": "uint256",
          "name": "_bidId",
          "type": "uint256"
        }
      ],
      "name": "ClaimNFT",
      "outputs": [],
      "stateMutability": "nonpayable",
      "type": "function"
    },
    {
      "inputs": [
        {
          "internalType": "uint256",
          "name": "",
          "type": "uint256"
        }
      ],
      "name": "NFTdetails",
      "outputs": [
        {
          "internalType": "uint256",
          "name": "NFTtokenId",
          "type": "uint256"
        },
        {
          "internalType": "address",
          "name": "tokenIdOwner",
          "type": "address"
        },
        {
          "internalType": "address",
          "name": "contractAddress",
          "type": "address"
        },
        {
          "internalType": "uint32",
          "name": "duration",
          "type": "uint32"
        },
        {
          "internalType": "uint256",
          "name": "expiration",
          "type": "uint256"
        },
        {
          "internalType": "uint256",
          "name": "expectedAmount",
          "type": "uint256"
        },
        {
          "internalType": "uint16",
          "name": "percent",
          "type": "uint16"
        },
        {
          "internalType": "bool",
          "name": "listed",
          "type": "bool"
        },
        {
          "internalType": "bool",
          "name": "bidAccepted",
          "type": "bool"
        },
        {
          "internalType": "bool",
          "name": "repaid",
          "type": "bool"
        },
        {
          "internalType": "bool",
          "name": "claimed",
          "type": "bool"
        }
      ],
      "stateMutability": "view",
      "type": "function"
    },
    {
      "inputs": [],
      "name": "NFTid",
      "outputs": [
        {
          "internalType": "uint256",
          "name": "",
          "type": "uint256"
        }
      ],
      "stateMutability": "view",
      "type": "function"
    },
    {
      "inputs": [
        {
          "internalType": "uint256",
          "name": "_NFTid",
          "type": "uint256"
        },
        {
          "internalType": "uint256",
          "name": "_bidId",
          "type": "uint256"
        }
      ],
      "name": "Repay",
      "outputs": [],
      "stateMutability": "nonpayable",
      "type": "function"
    },
    {
      "inputs": [
        {
          "internalType": "address",
          "name": "_aconomyFee",
          "type": "address"
        }
      ],
      "name": "initialize",
      "outputs": [],
      "stateMutability": "nonpayable",
      "type": "function"
    },
    {
      "inputs": [
        {
          "internalType": "uint256",
          "name": "_tokenId",
          "type": "uint256"
        },
        {
          "internalType": "address",
          "name": "_contractAddress",
          "type": "address"
        },
        {
          "internalType": "uint16",
          "name": "_percent",
          "type": "uint16"
        },
        {
          "internalType": "uint32",
          "name": "_duration",
          "type": "uint32"
        },
        {
          "internalType": "uint256",
          "name": "_expiration",
          "type": "uint256"
        },
        {
          "internalType": "uint256",
          "name": "_expectedAmount",
          "type": "uint256"
        }
      ],
      "name": "listNFTforBorrowing",
      "outputs": [
        {
          "internalType": "uint256",
          "name": "_NFTid",
          "type": "uint256"
        }
      ],
      "stateMutability": "nonpayable",
      "type": "function"
    },
    {
      "inputs": [
        {
          "internalType": "address",
          "name": "",
          "type": "address"
        },
        {
          "internalType": "address",
          "name": "",
          "type": "address"
        },
        {
          "internalType": "uint256",
          "name": "",
          "type": "uint256"
        },
        {
          "internalType": "bytes",
          "name": "",
          "type": "bytes"
        }
      ],
      "name": "onERC721Received",
      "outputs": [
        {
          "internalType": "bytes4",
          "name": "",
          "type": "bytes4"
        }
      ],
      "stateMutability": "nonpayable",
      "type": "function"
    },
    {
      "inputs": [],
      "name": "owner",
      "outputs": [
        {
          "internalType": "address",
          "name": "",
          "type": "address"
        }
      ],
      "stateMutability": "view",
      "type": "function"
    },
    {
      "inputs": [],
      "name": "pause",
      "outputs": [],
      "stateMutability": "nonpayable",
      "type": "function"
    },
    {
      "inputs": [],
      "name": "paused",
      "outputs": [
        {
          "internalType": "bool",
          "name": "",
          "type": "bool"
        }
      ],
      "stateMutability": "view",
      "type": "function"
    },
    {
      "inputs": [],
      "name": "proxiableUUID",
      "outputs": [
        {
          "internalType": "bytes32",
          "name": "",
          "type": "bytes32"
        }
      ],
      "stateMutability": "view",
      "type": "function"
    },
    {
      "inputs": [
        {
          "internalType": "uint256",
          "name": "_NFTid",
          "type": "uint256"
        },
        {
          "internalType": "uint256",
          "name": "_bidId",
          "type": "uint256"
        }
      ],
      "name": "rejectBid",
      "outputs": [],
      "stateMutability": "nonpayable",
      "type": "function"
    },
    {
      "inputs": [
        {
          "internalType": "uint256",
          "name": "_NFTid",
          "type": "uint256"
        }
      ],
      "name": "removeNFTfromList",
      "outputs": [],
      "stateMutability": "nonpayable",
      "type": "function"
    },
    {
      "inputs": [],
      "name": "renounceOwnership",
      "outputs": [],
      "stateMutability": "nonpayable",
      "type": "function"
    },
    {
      "inputs": [
        {
          "internalType": "uint256",
          "name": "_NFTid",
          "type": "uint256"
        },
        {
          "internalType": "uint32",
          "name": "_duration",
          "type": "uint32"
        }
      ],
      "name": "setDurationTime",
      "outputs": [],
      "stateMutability": "nonpayable",
      "type": "function"
    },
    {
      "inputs": [
        {
          "internalType": "uint256",
          "name": "_NFTid",
          "type": "uint256"
        },
        {
          "internalType": "uint256",
          "name": "_expectedAmount",
          "type": "uint256"
        }
      ],
      "name": "setExpectedAmount",
      "outputs": [],
      "stateMutability": "nonpayable",
      "type": "function"
    },
    {
      "inputs": [
        {
          "internalType": "uint256",
          "name": "_NFTid",
          "type": "uint256"
        },
        {
          "internalType": "uint16",
          "name": "_percent",
          "type": "uint16"
        }
      ],
      "name": "setPercent",
      "outputs": [],
      "stateMutability": "nonpayable",
      "type": "function"
    },
    {
      "inputs": [
        {
          "internalType": "address",
          "name": "newOwner",
          "type": "address"
        }
      ],
      "name": "transferOwnership",
      "outputs": [],
      "stateMutability": "nonpayable",
      "type": "function"
    },
    {
      "inputs": [],
      "name": "unpause",
      "outputs": [],
      "stateMutability": "nonpayable",
      "type": "function"
    },
    {
      "inputs": [
        {
          "internalType": "address",
          "name": "newImplementation",
          "type": "address"
        }
      ],
      "name": "upgradeTo",
      "outputs": [],
      "stateMutability": "nonpayable",
      "type": "function"
    },
    {
      "inputs": [
        {
          "internalType": "address",
          "name": "newImplementation",
          "type": "address"
        },
        {
          "internalType": "bytes",
          "name": "data",
          "type": "bytes"
        }
      ],
      "name": "upgradeToAndCall",
      "outputs": [],
      "stateMutability": "payable",
      "type": "function"
    },
    {
      "inputs": [
        {
          "internalType": "uint256",
          "name": "_NFTid",
          "type": "uint256"
        },
        {
          "internalType": "uint256",
          "name": "_bidId",
          "type": "uint256"
        }
      ],
      "name": "viewRepayAmount",
      "outputs": [
        {
          "internalType": "uint256",
          "name": "",
          "type": "uint256"
        }
      ],
      "stateMutability": "view",
      "type": "function"
    },
    {
      "inputs": [
        {
          "internalType": "uint256",
          "name": "_NFTid",
          "type": "uint256"
        },
        {
          "internalType": "uint256",
          "name": "_bidId",
          "type": "uint256"
        }
      ],
      "name": "withdraw",
      "outputs": [],
      "stateMutability": "nonpayable",
      "type": "function"
    }
  ],
  "bytecode": "0x60a06040523073ffffffffffffffffffffffffffffffffffffffff1660809073ffffffffffffffffffffffffffffffffffffffff168152503480156200004457600080fd5b50620000556200005b60201b60201c565b62000205565b600060019054906101000a900460ff1615620000ae576040517f08c379a0000000000000000000000000000000000000000000000000000000008152600401620000a590620001a8565b60405180910390fd5b60ff801660008054906101000a900460ff1660ff16146200011f5760ff6000806101000a81548160ff021916908360ff1602179055507f7f26b83ff96e1f2b6a682f133852f6798a09c465da95921460cefb384740249860ff604051620001169190620001e8565b60405180910390a15b565b600082825260208201905092915050565b7f496e697469616c697a61626c653a20636f6e747261637420697320696e69746960008201527f616c697a696e6700000000000000000000000000000000000000000000000000602082015250565b60006200019060278362000121565b91506200019d8262000132565b604082019050919050565b60006020820190508181036000830152620001c38162000181565b9050919050565b600060ff82169050919050565b620001e281620001ca565b82525050565b6000602082019050620001ff6000830184620001d7565b92915050565b608051615fdd6200023d60003960008181610ba401528181610c33015281816112070152818161129601526113460152615fdd6000f3fe6080604052600436106101815760003560e01c80637a98cb62116100d1578063a79215a41161008a578063c4d66de811610064578063c4d66de814610547578063e1617b2914610570578063e37fc17a1461059b578063f2fde38b146105c457610181565b8063a79215a41461049a578063a7f323da146104d7578063ac6224ae1461051e57610181565b80637a98cb62146103a05780637e7e45b1146103dd5780638456cb59146104065780638da5cb5b1461041d5780638fe3c5b91461044857806394d4baa21461047157610181565b8063441a3e701161013e578063552544cb11610118578063552544cb1461030c5780635c975abb14610335578063715018a61461036057806379baa9fd1461037757610181565b8063441a3e701461029c5780634f1ef286146102c557806352d1902d146102e157610181565b806302ef372514610186578063150b7a02146101af578063236169b0146101ec57806331c173e2146102335780633659cfe61461025c5780633f4ba83a14610285575b600080fd5b34801561019257600080fd5b506101ad60048036038101906101a89190613d07565b6105ed565b005b3480156101bb57600080fd5b506101d660048036038101906101d19190613eeb565b610788565b6040516101e39190613fa9565b60405180910390f35b3480156101f857600080fd5b50610213600480360381019061020e9190613fc4565b61079c565b60405161022a9b9a99989796959493929190614058565b60405180910390f35b34801561023f57600080fd5b5061025a60048036038101906102559190614103565b610889565b005b34801561026857600080fd5b50610283600480360381019061027e9190614143565b610ba2565b005b34801561029157600080fd5b5061029a610d2b565b005b3480156102a857600080fd5b506102c360048036038101906102be9190614103565b610d3d565b005b6102df60048036038101906102da9190614170565b611205565b005b3480156102ed57600080fd5b506102f6611342565b60405161030391906141e5565b60405180910390f35b34801561031857600080fd5b50610333600480360381019061032e9190614103565b6113fb565b005b34801561034157600080fd5b5061034a611ab4565b6040516103579190614200565b60405180910390f35b34801561036c57600080fd5b50610375611acb565b005b34801561038357600080fd5b5061039e60048036038101906103999190614103565b611adf565b005b3480156103ac57600080fd5b506103c760048036038101906103c29190614103565b611cae565b6040516103d4919061421b565b60405180910390f35b3480156103e957600080fd5b5061040460048036038101906103ff9190614262565b611e5c565b005b34801561041257600080fd5b5061041b611fb9565b005b34801561042957600080fd5b50610432611fcb565b60405161043f91906142a2565b60405180910390f35b34801561045457600080fd5b5061046f600480360381019061046a91906142bd565b611ff5565b005b34801561047d57600080fd5b5061049860048036038101906104939190614103565b612678565b005b3480156104a657600080fd5b506104c160048036038101906104bc919061434a565b6127f0565b6040516104ce919061421b565b60405180910390f35b3480156104e357600080fd5b506104fe60048036038101906104f99190614103565b612bf6565b6040516105159b9a999897969594939291906143d7565b60405180910390f35b34801561052a57600080fd5b5061054560048036038101906105409190614103565b612cf4565b005b34801561055357600080fd5b5061056e60048036038101906105699190614143565b612e2b565b005b34801561057c57600080fd5b50610585612fcc565b604051610592919061421b565b60405180910390f35b3480156105a757600080fd5b506105c260048036038101906105bd9190613fc4565b612fd3565b005b3480156105d057600080fd5b506105eb60048036038101906105e69190614143565b6130c8565b005b6105f561314c565b813373ffffffffffffffffffffffffffffffffffffffff16610161600083815260200190815260200160002060010160009054906101000a900473ffffffffffffffffffffffffffffffffffffffff1673ffffffffffffffffffffffffffffffffffffffff161461069b576040517f08c379a0000000000000000000000000000000000000000000000000000000008152600401610692906144df565b60405180910390fd5b600a8261ffff1610156106e3576040517f08c379a00000000000000000000000000000000000000000000000000000000081526004016106da90614571565b60405180910390fd5b610161600084815260200190815260200160002060050160009054906101000a900461ffff1661ffff168261ffff16146107835781610161600085815260200190815260200160002060050160006101000a81548161ffff021916908361ffff1602179055507ffd8e2575e33cc5cabe9a522f5bab3c33a5b606c0331275c917eefd77287bfe87838360405161077a929190614591565b60405180910390a15b505050565b600063150b7a0260e01b9050949350505050565b6101616020528060005260406000206000915090508060000154908060010160009054906101000a900473ffffffffffffffffffffffffffffffffffffffff16908060020160009054906101000a900473ffffffffffffffffffffffffffffffffffffffff16908060020160149054906101000a900463ffffffff16908060030154908060040154908060050160009054906101000a900461ffff16908060050160029054906101000a900460ff16908060050160039054906101000a900460ff16908060050160049054906101000a900460ff16908060050160059054906101000a900460ff1690508b565b61089161314c565b610899613196565b600061016060009054906101000a900473ffffffffffffffffffffffffffffffffffffffff1673ffffffffffffffffffffffffffffffffffffffff16634dd9ccb16040518163ffffffff1660e01b8152600401602060405180830381865afa158015610909573d6000803e3d6000fd5b505050506040513d601f19601f8201168201806040525081019061092d91906145cf565b9050600073__$61c3dbfad47bb5d5260aee114f5f9d6488$__633fb3400361016260008781526020019081526020016000208581548110610971576109706145fc565b5b906000526020600020906008020160050154610162600088815260200190815260200160002086815481106109a9576109a86145fc565b5b906000526020600020906008020160070160009054906101000a900461ffff166040518363ffffffff1660e01b81526004016109e6929190614649565b602060405180830381865af4158015610a03573d6000803e3d6000fd5b505050506040513d601f19601f82011682018060405250810190610a279190614687565b905073__$a104c31f679c2d796b103943a0603b00b1$__63ac607006610161600087815260200190815260200160002061016260008881526020019081526020016000208681548110610a7d57610a7c6145fc565b5b906000526020600020906008020184866040518563ffffffff1660e01b8152600401610aac94939291906146d1565b60006040518083038186803b158015610ac457600080fd5b505af4158015610ad8573d6000803e3d6000fd5b505050507f9db798684d213d9be39264e8dc8e9fede9fc8a0c5155b2404d8ddd388c0ca2d084848361016260008981526020019081526020016000208781548110610b2657610b256145fc565b5b906000526020600020906008020160050154610b429190614745565b8461016160008a815260200190815260200160002060020160009054906101000a900473ffffffffffffffffffffffffffffffffffffffff16604051610b8c959493929190614779565b60405180910390a15050610b9e6131e6565b5050565b7f000000000000000000000000000000000000000000000000000000000000000073ffffffffffffffffffffffffffffffffffffffff163073ffffffffffffffffffffffffffffffffffffffff161415610c31576040517f08c379a0000000000000000000000000000000000000000000000000000000008152600401610c289061483e565b60405180910390fd5b7f000000000000000000000000000000000000000000000000000000000000000073ffffffffffffffffffffffffffffffffffffffff16610c706131f0565b73ffffffffffffffffffffffffffffffffffffffff1614610cc6576040517f08c379a0000000000000000000000000000000000000000000000000000000008152600401610cbd906148d0565b60405180910390fd5b610ccf81613247565b610d2881600067ffffffffffffffff811115610cee57610ced613dc0565b5b6040519080825280601f01601f191660200182016040528015610d205781602001600182028036833780820191505090505b506000613252565b50565b610d336133c0565b610d3b61343e565b565b610d4561314c565b610d4d613196565b3373ffffffffffffffffffffffffffffffffffffffff1661016260008481526020019081526020016000208281548110610d8a57610d896145fc565b5b906000526020600020906008020160030160009054906101000a900473ffffffffffffffffffffffffffffffffffffffff1673ffffffffffffffffffffffffffffffffffffffff1614610e12576040517f08c379a0000000000000000000000000000000000000000000000000000000008152600401610e099061493c565b60405180910390fd5b61016260008381526020019081526020016000208181548110610e3857610e376145fc565b5b906000526020600020906008020160070160029054906101000a900460ff1615610e97576040517f08c379a0000000000000000000000000000000000000000000000000000000008152600401610e8e906149a8565b60405180910390fd5b61016260008381526020019081526020016000208181548110610ebd57610ebc6145fc565b5b906000526020600020906008020160070160039054906101000a900460ff1615610f1c576040517f08c379a0000000000000000000000000000000000000000000000000000000008152600401610f1390614a14565b60405180910390fd5b610161600083815260200190815260200160002060050160039054906101000a900460ff16610fec5761016260008381526020019081526020016000208181548110610f6b57610f6a6145fc565b5b906000526020600020906008020160020154421180610fac5750610161600083815260200190815260200160002060050160029054906101000a900460ff16155b610feb576040517f08c379a0000000000000000000000000000000000000000000000000000000008152600401610fe290614aa6565b60405180910390fd5b5b600161016260008481526020019081526020016000208281548110611014576110136145fc565b5b906000526020600020906008020160070160026101000a81548160ff02191690831515021790555061016260008381526020019081526020016000208181548110611062576110616145fc565b5b906000526020600020906008020160040160009054906101000a900473ffffffffffffffffffffffffffffffffffffffff1673ffffffffffffffffffffffffffffffffffffffff1663a9059cbb33610162600086815260200190815260200160002084815481106110d6576110d56145fc565b5b9060005260206000209060080201600501546040518363ffffffff1660e01b8152600401611105929190614ac6565b6020604051808303816000875af1158015611124573d6000803e3d6000fd5b505050506040513d601f19601f820116820180604052508101906111489190614b1b565b611187576040517f08c379a000000000000000000000000000000000000000000000000000000000815260040161117e90614bba565b60405180910390fd5b7fabd2ab552bc04cdbfa4a54107fa44ac8c9cb06f6d21da11933ac05a653be19e98282610162600086815260200190815260200160002084815481106111d0576111cf6145fc565b5b9060005260206000209060080201600501546040516111f193929190614bda565b60405180910390a16112016131e6565b5050565b7f000000000000000000000000000000000000000000000000000000000000000073ffffffffffffffffffffffffffffffffffffffff163073ffffffffffffffffffffffffffffffffffffffff161415611294576040517f08c379a000000000000000000000000000000000000000000000000000000000815260040161128b9061483e565b60405180910390fd5b7f000000000000000000000000000000000000000000000000000000000000000073ffffffffffffffffffffffffffffffffffffffff166112d36131f0565b73ffffffffffffffffffffffffffffffffffffffff1614611329576040517f08c379a0000000000000000000000000000000000000000000000000000000008152600401611320906148d0565b60405180910390fd5b61133282613247565b61133e82826001613252565b5050565b60007f000000000000000000000000000000000000000000000000000000000000000073ffffffffffffffffffffffffffffffffffffffff163073ffffffffffffffffffffffffffffffffffffffff16146113d2576040517f08c379a00000000000000000000000000000000000000000000000000000000081526004016113c990614c83565b60405180910390fd5b7f360894a13ba1a3210667c828492db98dca3e2076cc3735a920a3ca505d382bbc60001b905090565b61140361314c565b61140b613196565b610161600083815260200190815260200160002060050160039054906101000a900460ff1661146f576040517f08c379a000000000000000000000000000000000000000000000000000000000815260040161146690614cef565b60405180910390fd5b610161600083815260200190815260200160002060050160029054906101000a900460ff166114d3576040517f08c379a00000000000000000000000000000000000000000000000000000000081526004016114ca90614d5b565b60405180910390fd5b610162600083815260200190815260200160002081815481106114f9576114f86145fc565b5b906000526020600020906008020160070160039054906101000a900460ff16611557576040517f08c379a000000000000000000000000000000000000000000000000000000000815260040161154e90614dc7565b60405180910390fd5b610161600083815260200190815260200160002060050160049054906101000a900460ff16156115bc576040517f08c379a00000000000000000000000000000000000000000000000000000000081526004016115b390614e33565b60405180910390fd5b6000611687610162600085815260200190815260200160002083815481106115e7576115e66145fc565b5b9060005260206000209060080201600501546101626000868152602001908152602001600020848154811061161f5761161e6145fc565b5b906000526020600020906008020160010160009054906101000a900461ffff1661016260008781526020019081526020016000208581548110611665576116646145fc565b5b906000526020600020906008020160060154426116829190614745565b6134a1565b9050610161600084815260200190815260200160002060050160059054906101000a900460ff16156116ee576040517f08c379a00000000000000000000000000000000000000000000000000000000081526004016116e590614e9f565b60405180910390fd5b6001610161600085815260200190815260200160002060050160046101000a81548160ff0219169083151502179055506000610161600085815260200190815260200160002060050160026101000a81548160ff02191690831515021790555061016260008481526020019081526020016000208281548110611774576117736145fc565b5b906000526020600020906008020160040160009054906101000a900473ffffffffffffffffffffffffffffffffffffffff1673ffffffffffffffffffffffffffffffffffffffff166323b872dd33610162600087815260200190815260200160002085815481106117e8576117e76145fc565b5b906000526020600020906008020160030160009054906101000a900473ffffffffffffffffffffffffffffffffffffffff168461016260008981526020019081526020016000208781548110611841576118406145fc565b5b90600052602060002090600802016005015461185d9190614ebf565b6040518463ffffffff1660e01b815260040161187b93929190614f15565b6020604051808303816000875af115801561189a573d6000803e3d6000fd5b505050506040513d601f19601f820116820180604052508101906118be9190614b1b565b6118fd576040517f08c379a00000000000000000000000000000000000000000000000000000000081526004016118f490614fbe565b60405180910390fd5b610161600084815260200190815260200160002060020160009054906101000a900473ffffffffffffffffffffffffffffffffffffffff1673ffffffffffffffffffffffffffffffffffffffff166342842e0e30610161600087815260200190815260200160002060010160009054906101000a900473ffffffffffffffffffffffffffffffffffffffff166101616000888152602001908152602001600020600001546040518463ffffffff1660e01b81526004016119bf93929190614f15565b600060405180830381600087803b1580156119d957600080fd5b505af11580156119ed573d6000803e3d6000fd5b505050507f63b28f848243909b3a0eb2151236107776f4cd60283d5f58336fbcf7c429585a83838361016260008881526020019081526020016000208681548110611a3b57611a3a6145fc565b5b906000526020600020906008020160050154611a579190614ebf565b610161600088815260200190815260200160002060020160009054906101000a900473ffffffffffffffffffffffffffffffffffffffff16604051611a9f9493929190614fde565b60405180910390a150611ab06131e6565b5050565b6000609760009054906101000a900460ff16905090565b611ad36133c0565b611add60006134ec565b565b611ae761314c565b611aef613196565b73__$a104c31f679c2d796b103943a0603b00b1$__6392dd672d610161600085815260200190815260200160002061016260008681526020019081526020016000208481548110611b4357611b426145fc565b5b90600052602060002090600802016040518363ffffffff1660e01b8152600401611b6e929190615023565b60006040518083038186803b158015611b8657600080fd5b505af4158015611b9a573d6000803e3d6000fd5b505050507faf492880cdf315bcba8ecd8325b95bef9438a4f507807c772c4078eacead5764828261016260008681526020019081526020016000208481548110611be757611be66145fc565b5b906000526020600020906008020160030160009054906101000a900473ffffffffffffffffffffffffffffffffffffffff1661016260008781526020019081526020016000208581548110611c3f57611c3e6145fc565b5b906000526020600020906008020160050154610161600088815260200190815260200160002060020160009054906101000a900473ffffffffffffffffffffffffffffffffffffffff16604051611c9a95949392919061504c565b60405180910390a1611caa6131e6565b5050565b600061016260008481526020019081526020016000208281548110611cd657611cd56145fc565b5b906000526020600020906008020160070160039054906101000a900460ff16611d025760009050611e56565b610161600084815260200190815260200160002060050160049054906101000a900460ff1615611d355760009050611e56565b6000611e0d61016260008681526020019081526020016000208481548110611d6057611d5f6145fc565b5b90600052602060002090600802016005015461016260008781526020019081526020016000208581548110611d9857611d976145fc565b5b906000526020600020906008020160010160009054906101000a900461ffff1661025861016260008981526020019081526020016000208781548110611de157611de06145fc565b5b90600052602060002090600802016006015442611dfe9190614745565b611e089190614ebf565b6134a1565b90508061016260008681526020019081526020016000208481548110611e3657611e356145fc565b5b906000526020600020906008020160050154611e529190614ebf565b9150505b92915050565b611e6461314c565b813373ffffffffffffffffffffffffffffffffffffffff16610161600083815260200190815260200160002060010160009054906101000a900473ffffffffffffffffffffffffffffffffffffffff1673ffffffffffffffffffffffffffffffffffffffff1614611f0a576040517f08c379a0000000000000000000000000000000000000000000000000000000008152600401611f01906144df565b60405180910390fd5b610161600084815260200190815260200160002060020160149054906101000a900463ffffffff1663ffffffff168263ffffffff1614611fb45781610161600085815260200190815260200160002060020160146101000a81548163ffffffff021916908363ffffffff1602179055507f54952112e3597233437f179f606c73f4e5d2cfa67bd8b930c88a88611fda2c8b8383604051611fab92919061509f565b60405180910390a15b505050565b611fc16133c0565b611fc96135b2565b565b6000606560009054906101000a900473ffffffffffffffffffffffffffffffffffffffff16905090565b611ffd61314c565b612005613196565b600073ffffffffffffffffffffffffffffffffffffffff168473ffffffffffffffffffffffffffffffffffffffff16141561203f57600080fd5b620f4240851015612085576040517f08c379a000000000000000000000000000000000000000000000000000000000815260040161207c90615114565b60405180910390fd5b600a8361ffff1610156120cd576040517f08c379a00000000000000000000000000000000000000000000000000000000081526004016120c490615180565b60405180910390fd5b610161600087815260200190815260200160002060050160039054906101000a900460ff1615612132576040517f08c379a0000000000000000000000000000000000000000000000000000000008152600401612129906151ec565b60405180910390fd5b610161600087815260200190815260200160002060050160029054906101000a900460ff16612196576040517f08c379a000000000000000000000000000000000000000000000000000000000815260040161218d90615258565b60405180910390fd5b42610161600088815260200190815260200160002060030154116121ef576040517f08c379a00000000000000000000000000000000000000000000000000000000081526004016121e6906152c4565b60405180910390fd5b600061016060009054906101000a900473ffffffffffffffffffffffffffffffffffffffff1673ffffffffffffffffffffffffffffffffffffffff1663e9d011cb6040518163ffffffff1660e01b8152600401602060405180830381865afa15801561225f573d6000803e3d6000fd5b505050506040513d601f19601f8201168201806040525081019061228391906152f9565b9050600060405180610160016040528061016260008b81526020019081526020016000208054905081526020018661ffff1681526020018563ffffffff16815260200142856122d29190614ebf565b81526020013373ffffffffffffffffffffffffffffffffffffffff1681526020018773ffffffffffffffffffffffffffffffffffffffff168152602001888152602001600081526020018361ffff16815260200160001515815260200160001515815250905061016260008981526020019081526020016000208190806001815401808255809150506001900390600052602060002090600802016000909190919091506000820151816000015560208201518160010160006101000a81548161ffff021916908361ffff16021790555060408201518160010160026101000a81548163ffffffff021916908363ffffffff1602179055506060820151816002015560808201518160030160006101000a81548173ffffffffffffffffffffffffffffffffffffffff021916908373ffffffffffffffffffffffffffffffffffffffff16021790555060a08201518160040160006101000a81548173ffffffffffffffffffffffffffffffffffffffff021916908373ffffffffffffffffffffffffffffffffffffffff16021790555060c0820151816005015560e082015181600601556101008201518160070160006101000a81548161ffff021916908361ffff1602179055506101208201518160070160026101000a81548160ff0219169083151502179055506101408201518160070160036101000a81548160ff02191690831515021790555050508573ffffffffffffffffffffffffffffffffffffffff166323b872dd33308a6040518463ffffffff1660e01b815260040161251b93929190614f15565b6020604051808303816000875af115801561253a573d6000803e3d6000fd5b505050506040513d601f19601f8201168201806040525081019061255e9190614b1b565b61259d576040517f08c379a000000000000000000000000000000000000000000000000000000000815260040161259490615372565b60405180910390fd5b600042846125ab9190614ebf565b90507fe1dc8b2160214f15701f012d200ce757b0f42c22d85fcba2642b8a283116f7af600161016260008c8152602001908152602001600020805490506125f29190614745565b8a61016160008d81526020019081526020016000206000015461016160008e815260200190815260200160002060020160009054906101000a900473ffffffffffffffffffffffffffffffffffffffff168c8b8b888f60405161265d99989796959493929190615392565b60405180910390a15050506126706131e6565b505050505050565b61268061314c565b612688613196565b73__$a104c31f679c2d796b103943a0603b00b1$__63d4eb1db56101616000858152602001908152602001600020610162600086815260200190815260200160002084815481106126dc576126db6145fc565b5b90600052602060002090600802016040518363ffffffff1660e01b8152600401612707929190615023565b60006040518083038186803b15801561271f57600080fd5b505af4158015612733573d6000803e3d6000fd5b505050507f1f5bef9fa89c13776158948ee094e297304aec22fc8bf8e756a0a273b43026458282610161600086815260200190815260200160002060020160009054906101000a900473ffffffffffffffffffffffffffffffffffffffff16610161600087815260200190815260200160002060010160009054906101000a900473ffffffffffffffffffffffffffffffffffffffff16336040516127dc95949392919061541f565b60405180910390a16127ec6131e6565b5050565b600085878173ffffffffffffffffffffffffffffffffffffffff16636352211e826040518263ffffffff1660e01b815260040161282d919061421b565b602060405180830381865afa15801561284a573d6000803e3d6000fd5b505050506040513d601f19601f8201168201806040525081019061286e91906145cf565b73ffffffffffffffffffffffffffffffffffffffff163373ffffffffffffffffffffffffffffffffffffffff16146128db576040517f08c379a00000000000000000000000000000000000000000000000000000000081526004016128d2906154be565b60405180910390fd5b6128e361314c565b6128eb613196565b600073ffffffffffffffffffffffffffffffffffffffff168873ffffffffffffffffffffffffffffffffffffffff16141561292557600080fd5b600a8761ffff16101561293757600080fd5b620f424084101561294757600080fd5b61015f60008154612957906154de565b919050819055925060006040518061016001604052808b81526020013373ffffffffffffffffffffffffffffffffffffffff1681526020018a73ffffffffffffffffffffffffffffffffffffffff1681526020018863ffffffff16815260200142886129c39190614ebf565b81526020018681526020018961ffff1681526020016001151581526020016000151581526020016000151581526020016000151581525090508061016160008681526020019081526020016000206000820151816000015560208201518160010160006101000a81548173ffffffffffffffffffffffffffffffffffffffff021916908373ffffffffffffffffffffffffffffffffffffffff16021790555060408201518160020160006101000a81548173ffffffffffffffffffffffffffffffffffffffff021916908373ffffffffffffffffffffffffffffffffffffffff16021790555060608201518160020160146101000a81548163ffffffff021916908363ffffffff1602179055506080820151816003015560a0820151816004015560c08201518160050160006101000a81548161ffff021916908361ffff16021790555060e08201518160050160026101000a81548160ff0219169083151502179055506101008201518160050160036101000a81548160ff0219169083151502179055506101208201518160050160046101000a81548160ff0219169083151502179055506101408201518160050160056101000a81548160ff02191690831515021790555090505060004287612b9b9190614ebf565b90507f57e699eb373ceeca71b713f9a2be8414646f6f39c0f3ae95ace88bde89e45987858c8c898d8d87604051612bd89796959493929190615527565b60405180910390a15050612bea6131e6565b50509695505050505050565b6101626020528160005260406000208181548110612c1357600080fd5b9060005260206000209060080201600091509150508060000154908060010160009054906101000a900461ffff16908060010160029054906101000a900463ffffffff16908060020154908060030160009054906101000a900473ffffffffffffffffffffffffffffffffffffffff16908060040160009054906101000a900473ffffffffffffffffffffffffffffffffffffffff16908060050154908060060154908060070160009054906101000a900461ffff16908060070160029054906101000a900460ff16908060070160039054906101000a900460ff1690508b565b612cfc61314c565b813373ffffffffffffffffffffffffffffffffffffffff16610161600083815260200190815260200160002060010160009054906101000a900473ffffffffffffffffffffffffffffffffffffffff1673ffffffffffffffffffffffffffffffffffffffff1614612da2576040517f08c379a0000000000000000000000000000000000000000000000000000000008152600401612d99906144df565b60405180910390fd5b620f4240821015612db257600080fd5b6101616000848152602001908152602001600020600401548214612e2657816101616000858152602001908152602001600020600401819055507f287071c6a27a1aee9081f9ac1bc3e0b3812edb3d552ab050ed378ca59457db608383604051612e1d929190615596565b60405180910390a15b505050565b60008060019054906101000a900460ff16159050808015612e5c5750600160008054906101000a900460ff1660ff16105b80612e895750612e6b30613615565b158015612e885750600160008054906101000a900460ff1660ff16145b5b612ec8576040517f08c379a0000000000000000000000000000000000000000000000000000000008152600401612ebf90615631565b60405180910390fd5b60016000806101000a81548160ff021916908360ff1602179055508015612f05576001600060016101000a81548160ff0219169083151502179055505b612f0d613638565b612f15613691565b612f1d6136e2565b612f2561373b565b612f2d613794565b8161016060006101000a81548173ffffffffffffffffffffffffffffffffffffffff021916908373ffffffffffffffffffffffffffffffffffffffff1602179055508015612fc85760008060016101000a81548160ff0219169083151502179055507f7f26b83ff96e1f2b6a682f133852f6798a09c465da95921460cefb38474024986001604051612fbf91906156a3565b60405180910390a15b5050565b61015f5481565b612fdb61314c565b73__$a104c31f679c2d796b103943a0603b00b1$__63d8201e4761016160008481526020019081526020016000206040518263ffffffff1660e01b815260040161302591906156be565b60006040518083038186803b15801561303d57600080fd5b505af4158015613051573d6000803e3d6000fd5b505050507f4fa7c0604b7f9661fae3c9d1843124dfe125d9e26a21a048b9ffb7c6643f2a3981610161600084815260200190815260200160002060020160009054906101000a900473ffffffffffffffffffffffffffffffffffffffff166040516130bd9291906156d9565b60405180910390a150565b6130d06133c0565b600073ffffffffffffffffffffffffffffffffffffffff168173ffffffffffffffffffffffffffffffffffffffff161415613140576040517f08c379a000000000000000000000000000000000000000000000000000000000815260040161313790615774565b60405180910390fd5b613149816134ec565b50565b613154611ab4565b15613194576040517f08c379a000000000000000000000000000000000000000000000000000000000815260040161318b906157e0565b60405180910390fd5b565b600260c95414156131dc576040517f08c379a00000000000000000000000000000000000000000000000000000000081526004016131d39061584c565b60405180910390fd5b600260c981905550565b600160c981905550565b600061321e7f360894a13ba1a3210667c828492db98dca3e2076cc3735a920a3ca505d382bbc60001b6137e5565b60000160009054906101000a900473ffffffffffffffffffffffffffffffffffffffff16905090565b61324f6133c0565b50565b61327e7f4910fdfa16fed3260ed0e7147f7cc6da11a60208b5b9406d12a635614ffd914360001b6137ef565b60000160009054906101000a900460ff16156132a25761329d836137f9565b6133bb565b8273ffffffffffffffffffffffffffffffffffffffff166352d1902d6040518163ffffffff1660e01b8152600401602060405180830381865afa92505050801561330a57506040513d601f19601f820116820180604052508101906133079190615898565b60015b613349576040517f08c379a000000000000000000000000000000000000000000000000000000000815260040161334090615937565b60405180910390fd5b7f360894a13ba1a3210667c828492db98dca3e2076cc3735a920a3ca505d382bbc60001b81146133ae576040517f08c379a00000000000000000000000000000000000000000000000000000000081526004016133a5906159c9565b60405180910390fd5b506133ba8383836138b2565b5b505050565b6133c86138de565b73ffffffffffffffffffffffffffffffffffffffff166133e6611fcb565b73ffffffffffffffffffffffffffffffffffffffff161461343c576040517f08c379a000000000000000000000000000000000000000000000000000000000815260040161343390615a35565b60405180910390fd5b565b6134466138e6565b6000609760006101000a81548160ff0219169083151502179055507f5db9ee0a495bf2e6ff9c91a7834c1ba4fdd244a5e8aa4e537bd38aeae4b073aa61348a6138de565b60405161349791906142a2565b60405180910390a1565b6000806134ae858561392f565b90506000610e10846134c09190615a84565b905060006121c090508082846134d69190615ab5565b6134e09190615a84565b93505050509392505050565b6000606560009054906101000a900473ffffffffffffffffffffffffffffffffffffffff16905081606560006101000a81548173ffffffffffffffffffffffffffffffffffffffff021916908373ffffffffffffffffffffffffffffffffffffffff1602179055508173ffffffffffffffffffffffffffffffffffffffff168173ffffffffffffffffffffffffffffffffffffffff167f8be0079c531659141344cd1fd0a4f28419497f9722a3daafe3b4186f6b6457e060405160405180910390a35050565b6135ba61314c565b6001609760006101000a81548160ff0219169083151502179055507f62e78cea01bee320cd4e420270b5ea74000d11b0c9f74754ebdbfc544b05a2586135fe6138de565b60405161360b91906142a2565b60405180910390a1565b6000808273ffffffffffffffffffffffffffffffffffffffff163b119050919050565b600060019054906101000a900460ff16613687576040517f08c379a000000000000000000000000000000000000000000000000000000000815260040161367e90615b81565b60405180910390fd5b61368f613949565b565b600060019054906101000a900460ff166136e0576040517f08c379a00000000000000000000000000000000000000000000000000000000081526004016136d790615b81565b60405180910390fd5b565b600060019054906101000a900460ff16613731576040517f08c379a000000000000000000000000000000000000000000000000000000000815260040161372890615b81565b60405180910390fd5b6137396139a2565b565b600060019054906101000a900460ff1661378a576040517f08c379a000000000000000000000000000000000000000000000000000000000815260040161378190615b81565b60405180910390fd5b613792613a03565b565b600060019054906101000a900460ff166137e3576040517f08c379a00000000000000000000000000000000000000000000000000000000081526004016137da90615b81565b60405180910390fd5b565b6000819050919050565b6000819050919050565b61380281613615565b613841576040517f08c379a000000000000000000000000000000000000000000000000000000000815260040161383890615c13565b60405180910390fd5b8061386e7f360894a13ba1a3210667c828492db98dca3e2076cc3735a920a3ca505d382bbc60001b6137e5565b60000160006101000a81548173ffffffffffffffffffffffffffffffffffffffff021916908373ffffffffffffffffffffffffffffffffffffffff16021790555050565b6138bb83613a6f565b6000825111806138c85750805b156138d9576138d78383613abe565b505b505050565b600033905090565b6138ee611ab4565b61392d576040517f08c379a000000000000000000000000000000000000000000000000000000000815260040161392490615c7f565b60405180910390fd5b565b6000613941838361ffff166002613aeb565b905092915050565b600060019054906101000a900460ff16613998576040517f08c379a000000000000000000000000000000000000000000000000000000000815260040161398f90615b81565b60405180910390fd5b600160c981905550565b600060019054906101000a900460ff166139f1576040517f08c379a00000000000000000000000000000000000000000000000000000000081526004016139e890615b81565b60405180910390fd5b613a016139fc6138de565b6134ec565b565b600060019054906101000a900460ff16613a52576040517f08c379a0000000000000000000000000000000000000000000000000000000008152600401613a4990615b81565b60405180910390fd5b6000609760006101000a81548160ff021916908315150217905550565b613a78816137f9565b8073ffffffffffffffffffffffffffffffffffffffff167fbc7cd75a20ee27fd9adebab32041f755214dbc6bffa90cc0225b39da2e5c2d3b60405160405180910390a250565b6060613ae38383604051806060016040528060278152602001615f8160279139613b15565b905092915050565b6000613af682613b9b565b8385613b029190615ab5565b613b0c9190615a84565b90509392505050565b60606000808573ffffffffffffffffffffffffffffffffffffffff1685604051613b3f9190615d19565b600060405180830381855af49150503d8060008114613b7a576040519150601f19603f3d011682016040523d82523d6000602084013e613b7f565b606091505b5091509150613b9086838387613bbd565b925050509392505050565b600081600a613baa9190615e63565b6064613bb69190615ab5565b9050919050565b60608315613c2057600083511415613c1857613bd885613615565b613c17576040517f08c379a0000000000000000000000000000000000000000000000000000000008152600401613c0e90615efa565b60405180910390fd5b5b829050613c2b565b613c2a8383613c33565b5b949350505050565b600082511115613c465781518083602001fd5b806040517f08c379a0000000000000000000000000000000000000000000000000000000008152600401613c7a9190615f5e565b60405180910390fd5b6000604051905090565b600080fd5b600080fd5b6000819050919050565b613caa81613c97565b8114613cb557600080fd5b50565b600081359050613cc781613ca1565b92915050565b600061ffff82169050919050565b613ce481613ccd565b8114613cef57600080fd5b50565b600081359050613d0181613cdb565b92915050565b60008060408385031215613d1e57613d1d613c8d565b5b6000613d2c85828601613cb8565b9250506020613d3d85828601613cf2565b9150509250929050565b600073ffffffffffffffffffffffffffffffffffffffff82169050919050565b6000613d7282613d47565b9050919050565b613d8281613d67565b8114613d8d57600080fd5b50565b600081359050613d9f81613d79565b92915050565b600080fd5b600080fd5b6000601f19601f8301169050919050565b7f4e487b7100000000000000000000000000000000000000000000000000000000600052604160045260246000fd5b613df882613daf565b810181811067ffffffffffffffff82111715613e1757613e16613dc0565b5b80604052505050565b6000613e2a613c83565b9050613e368282613def565b919050565b600067ffffffffffffffff821115613e5657613e55613dc0565b5b613e5f82613daf565b9050602081019050919050565b82818337600083830152505050565b6000613e8e613e8984613e3b565b613e20565b905082815260208101848484011115613eaa57613ea9613daa565b5b613eb5848285613e6c565b509392505050565b600082601f830112613ed257613ed1613da5565b5b8135613ee2848260208601613e7b565b91505092915050565b60008060008060808587031215613f0557613f04613c8d565b5b6000613f1387828801613d90565b9450506020613f2487828801613d90565b9350506040613f3587828801613cb8565b925050606085013567ffffffffffffffff811115613f5657613f55613c92565b5b613f6287828801613ebd565b91505092959194509250565b60007fffffffff0000000000000000000000000000000000000000000000000000000082169050919050565b613fa381613f6e565b82525050565b6000602082019050613fbe6000830184613f9a565b92915050565b600060208284031215613fda57613fd9613c8d565b5b6000613fe884828501613cb8565b91505092915050565b613ffa81613c97565b82525050565b61400981613d67565b82525050565b600063ffffffff82169050919050565b6140288161400f565b82525050565b61403781613ccd565b82525050565b60008115159050919050565b6140528161403d565b82525050565b60006101608201905061406e600083018e613ff1565b61407b602083018d614000565b614088604083018c614000565b614095606083018b61401f565b6140a2608083018a613ff1565b6140af60a0830189613ff1565b6140bc60c083018861402e565b6140c960e0830187614049565b6140d7610100830186614049565b6140e5610120830185614049565b6140f3610140830184614049565b9c9b505050505050505050505050565b6000806040838503121561411a57614119613c8d565b5b600061412885828601613cb8565b925050602061413985828601613cb8565b9150509250929050565b60006020828403121561415957614158613c8d565b5b600061416784828501613d90565b91505092915050565b6000806040838503121561418757614186613c8d565b5b600061419585828601613d90565b925050602083013567ffffffffffffffff8111156141b6576141b5613c92565b5b6141c285828601613ebd565b9150509250929050565b6000819050919050565b6141df816141cc565b82525050565b60006020820190506141fa60008301846141d6565b92915050565b60006020820190506142156000830184614049565b92915050565b60006020820190506142306000830184613ff1565b92915050565b61423f8161400f565b811461424a57600080fd5b50565b60008135905061425c81614236565b92915050565b6000806040838503121561427957614278613c8d565b5b600061428785828601613cb8565b92505060206142988582860161424d565b9150509250929050565b60006020820190506142b76000830184614000565b92915050565b60008060008060008060c087890312156142da576142d9613c8d565b5b60006142e889828a01613cb8565b96505060206142f989828a01613cb8565b955050604061430a89828a01613d90565b945050606061431b89828a01613cf2565b935050608061432c89828a0161424d565b92505060a061433d89828a01613cb8565b9150509295509295509295565b60008060008060008060c0878903121561436757614366613c8d565b5b600061437589828a01613cb8565b965050602061438689828a01613d90565b955050604061439789828a01613cf2565b94505060606143a889828a0161424d565b93505060806143b989828a01613cb8565b92505060a06143ca89828a01613cb8565b9150509295509295509295565b6000610160820190506143ed600083018e613ff1565b6143fa602083018d61402e565b614407604083018c61401f565b614414606083018b613ff1565b614421608083018a614000565b61442e60a0830189614000565b61443b60c0830188613ff1565b61444860e0830187613ff1565b61445661010083018661402e565b614464610120830185614049565b614472610140830184614049565b9c9b505050505050505050505050565b600082825260208201905092915050565b7f4e6f7420746865206f776e657200000000000000000000000000000000000000600082015250565b60006144c9600d83614482565b91506144d482614493565b602082019050919050565b600060208201905081810360008301526144f8816144bc565b9050919050565b7f696e7465726573742070657263656e742073686f756c6420626520677265617460008201527f6572207468616e20302e31250000000000000000000000000000000000000000602082015250565b600061455b602c83614482565b9150614566826144ff565b604082019050919050565b6000602082019050818103600083015261458a8161454e565b9050919050565b60006040820190506145a66000830185613ff1565b6145b3602083018461402e565b9392505050565b6000815190506145c981613d79565b92915050565b6000602082840312156145e5576145e4613c8d565b5b60006145f3848285016145ba565b91505092915050565b7f4e487b7100000000000000000000000000000000000000000000000000000000600052603260045260246000fd5b61463481613c97565b82525050565b61464381613ccd565b82525050565b600060408201905061465e600083018561462b565b61466b602083018461463a565b9392505050565b60008151905061468181613ca1565b92915050565b60006020828403121561469d5761469c613c8d565b5b60006146ab84828501614672565b91505092915050565b8082525050565b8082525050565b6146cb81613d67565b82525050565b60006080820190506146e660008301876146b4565b6146f360208301866146bb565b614700604083018561462b565b61470d60608301846146c2565b95945050505050565b7f4e487b7100000000000000000000000000000000000000000000000000000000600052601160045260246000fd5b600061475082613c97565b915061475b83613c97565b92508282101561476e5761476d614716565b5b828203905092915050565b600060a08201905061478e6000830188613ff1565b61479b6020830187613ff1565b6147a86040830186613ff1565b6147b56060830185613ff1565b6147c26080830184614000565b9695505050505050565b7f46756e6374696f6e206d7573742062652063616c6c6564207468726f7567682060008201527f64656c656761746563616c6c0000000000000000000000000000000000000000602082015250565b6000614828602c83614482565b9150614833826147cc565b604082019050919050565b600060208201905081810360008301526148578161481b565b9050919050565b7f46756e6374696f6e206d7573742062652063616c6c6564207468726f7567682060008201527f6163746976652070726f78790000000000000000000000000000000000000000602082015250565b60006148ba602c83614482565b91506148c58261485e565b604082019050919050565b600060208201905081810360008301526148e9816148ad565b9050919050565b7f596f752063616e27742077697468647261772074686973204269640000000000600082015250565b6000614926601b83614482565b9150614931826148f0565b602082019050919050565b6000602082019050818103600083015261495581614919565b9050919050565b7f416c72656164792077697468647261776e000000000000000000000000000000600082015250565b6000614992601183614482565b915061499d8261495c565b602082019050919050565b600060208201905081810360008301526149c181614985565b9050919050565b7f596f75722042696420686173206265656e204163636570746564000000000000600082015250565b60006149fe601a83614482565b9150614a09826149c8565b602082019050919050565b60006020820190508181036000830152614a2d816149f1565b9050919050565b7f43616e277420776974686472617720426964206265666f72652065787069726160008201527f74696f6e00000000000000000000000000000000000000000000000000000000602082015250565b6000614a90602483614482565b9150614a9b82614a34565b604082019050919050565b60006020820190508181036000830152614abf81614a83565b9050919050565b6000604082019050614adb6000830185614000565b614ae86020830184613ff1565b9392505050565b614af88161403d565b8114614b0357600080fd5b50565b600081519050614b1581614aef565b92915050565b600060208284031215614b3157614b30613c8d565b5b6000614b3f84828501614b06565b91505092915050565b7f756e61626c6520746f207472616e7366657220746f204269646465722041646460008201527f7265737300000000000000000000000000000000000000000000000000000000602082015250565b6000614ba4602483614482565b9150614baf82614b48565b604082019050919050565b60006020820190508181036000830152614bd381614b97565b9050919050565b6000606082019050614bef6000830186613ff1565b614bfc6020830185613ff1565b614c096040830184613ff1565b949350505050565b7f555550535570677261646561626c653a206d757374206e6f742062652063616c60008201527f6c6564207468726f7567682064656c656761746563616c6c0000000000000000602082015250565b6000614c6d603883614482565b9150614c7882614c11565b604082019050919050565b60006020820190508181036000830152614c9c81614c60565b9050919050565b7f426964204e6f7420416363657074656420796574000000000000000000000000600082015250565b6000614cd9601483614482565b9150614ce482614ca3565b602082019050919050565b60006020820190508181036000830152614d0881614ccc565b9050919050565b7f49742773206e6f74206c697374656420666f7220426f72726f77696e67000000600082015250565b6000614d45601d83614482565b9150614d5082614d0f565b602082019050919050565b60006020820190508181036000830152614d7481614d38565b9050919050565b7f426964206e6f7420416363657074656400000000000000000000000000000000600082015250565b6000614db1601083614482565b9150614dbc82614d7b565b602082019050919050565b60006020820190508181036000830152614de081614da4565b9050919050565b7f416c726561647920526570616964000000000000000000000000000000000000600082015250565b6000614e1d600e83614482565b9150614e2882614de7565b602082019050919050565b60006020820190508181036000830152614e4c81614e10565b9050919050565b7f4974277320616c726561647920636c61696d6564000000000000000000000000600082015250565b6000614e89601483614482565b9150614e9482614e53565b602082019050919050565b60006020820190508181036000830152614eb881614e7c565b9050919050565b6000614eca82613c97565b9150614ed583613c97565b9250827fffffffffffffffffffffffffffffffffffffffffffffffffffffffffffffffff03821115614f0a57614f09614716565b5b828201905092915050565b6000606082019050614f2a6000830186614000565b614f376020830185614000565b614f446040830184613ff1565b949350505050565b7f756e61626c6520746f207472616e7366657220746f206269646465722041646460008201527f7265737300000000000000000000000000000000000000000000000000000000602082015250565b6000614fa8602483614482565b9150614fb382614f4c565b604082019050919050565b60006020820190508181036000830152614fd781614f9b565b9050919050565b6000608082019050614ff36000830187613ff1565b6150006020830186613ff1565b61500d6040830185613ff1565b61501a6060830184614000565b95945050505050565b600060408201905061503860008301856146b4565b61504560208301846146bb565b9392505050565b600060a0820190506150616000830188613ff1565b61506e6020830187613ff1565b61507b6040830186614000565b6150886060830185613ff1565b6150956080830184614000565b9695505050505050565b60006040820190506150b46000830185613ff1565b6150c1602083018461401f565b9392505050565b7f62696420616d6f756e7420746f6f206c6f770000000000000000000000000000600082015250565b60006150fe601283614482565b9150615109826150c8565b602082019050919050565b6000602082019050818103600083015261512d816150f1565b9050919050565b7f696e7465726573742070657263656e7420746f6f206c6f770000000000000000600082015250565b600061516a601883614482565b915061517582615134565b602082019050919050565b600060208201905081810360008301526151998161515d565b9050919050565b7f42696420416c7265616479204163636570746564000000000000000000000000600082015250565b60006151d6601483614482565b91506151e1826151a0565b602082019050919050565b60006020820190508181036000830152615205816151c9565b9050919050565b7f596f752063616e277420426964206f6e2074686973204e465400000000000000600082015250565b6000615242601983614482565b915061524d8261520c565b602082019050919050565b6000602082019050818103600083015261527181615235565b9050919050565b7f4269642074696d65206f76657200000000000000000000000000000000000000600082015250565b60006152ae600d83614482565b91506152b982615278565b602082019050919050565b600060208201905081810360008301526152dd816152a1565b9050919050565b6000815190506152f381613cdb565b92915050565b60006020828403121561530f5761530e613c8d565b5b600061531d848285016152e4565b91505092915050565b7f556e61626c6520746f2074616e7366657220596f757220455243323000000000600082015250565b600061535c601c83614482565b915061536782615326565b602082019050919050565b6000602082019050818103600083015261538b8161534f565b9050919050565b6000610120820190506153a8600083018c613ff1565b6153b5602083018b613ff1565b6153c2604083018a613ff1565b6153cf6060830189614000565b6153dc6080830188613ff1565b6153e960a083018761402e565b6153f660c083018661401f565b61540360e0830185613ff1565b615411610100830184614000565b9a9950505050505050505050565b600060a0820190506154346000830188613ff1565b6154416020830187613ff1565b61544e6040830186614000565b61545b6060830185614000565b6154686080830184614000565b9695505050505050565b7f4f6e6c7920746f6b656e206f776e65722063616e206578656375746500000000600082015250565b60006154a8601c83614482565b91506154b382615472565b602082019050919050565b600060208201905081810360008301526154d78161549b565b9050919050565b60006154e982613c97565b91507fffffffffffffffffffffffffffffffffffffffffffffffffffffffffffffffff82141561551c5761551b614716565b5b600182019050919050565b600060e08201905061553c600083018a613ff1565b6155496020830189613ff1565b6155566040830188614000565b6155636060830187613ff1565b615570608083018661402e565b61557d60a083018561401f565b61558a60c0830184613ff1565b98975050505050505050565b60006040820190506155ab6000830185613ff1565b6155b86020830184613ff1565b9392505050565b7f496e697469616c697a61626c653a20636f6e747261637420697320616c72656160008201527f647920696e697469616c697a6564000000000000000000000000000000000000602082015250565b600061561b602e83614482565b9150615626826155bf565b604082019050919050565b6000602082019050818103600083015261564a8161560e565b9050919050565b6000819050919050565b600060ff82169050919050565b6000819050919050565b600061568d61568861568384615651565b615668565b61565b565b9050919050565b61569d81615672565b82525050565b60006020820190506156b86000830184615694565b92915050565b60006020820190506156d360008301846146b4565b92915050565b60006040820190506156ee6000830185613ff1565b6156fb6020830184614000565b9392505050565b7f4f776e61626c653a206e6577206f776e657220697320746865207a65726f206160008201527f6464726573730000000000000000000000000000000000000000000000000000602082015250565b600061575e602683614482565b915061576982615702565b604082019050919050565b6000602082019050818103600083015261578d81615751565b9050919050565b7f5061757361626c653a2070617573656400000000000000000000000000000000600082015250565b60006157ca601083614482565b91506157d582615794565b602082019050919050565b600060208201905081810360008301526157f9816157bd565b9050919050565b7f5265656e7472616e637947756172643a207265656e7472616e742063616c6c00600082015250565b6000615836601f83614482565b915061584182615800565b602082019050919050565b6000602082019050818103600083015261586581615829565b9050919050565b615875816141cc565b811461588057600080fd5b50565b6000815190506158928161586c565b92915050565b6000602082840312156158ae576158ad613c8d565b5b60006158bc84828501615883565b91505092915050565b7f45524331393637557067726164653a206e657720696d706c656d656e7461746960008201527f6f6e206973206e6f742055555053000000000000000000000000000000000000602082015250565b6000615921602e83614482565b915061592c826158c5565b604082019050919050565b6000602082019050818103600083015261595081615914565b9050919050565b7f45524331393637557067726164653a20756e737570706f727465642070726f7860008201527f6961626c65555549440000000000000000000000000000000000000000000000602082015250565b60006159b3602983614482565b91506159be82615957565b604082019050919050565b600060208201905081810360008301526159e2816159a6565b9050919050565b7f4f776e61626c653a2063616c6c6572206973206e6f7420746865206f776e6572600082015250565b6000615a1f602083614482565b9150615a2a826159e9565b602082019050919050565b60006020820190508181036000830152615a4e81615a12565b9050919050565b7f4e487b7100000000000000000000000000000000000000000000000000000000600052601260045260246000fd5b6000615a8f82613c97565b9150615a9a83613c97565b925082615aaa57615aa9615a55565b5b828204905092915050565b6000615ac082613c97565b9150615acb83613c97565b9250817fffffffffffffffffffffffffffffffffffffffffffffffffffffffffffffffff0483118215151615615b0457615b03614716565b5b828202905092915050565b7f496e697469616c697a61626c653a20636f6e7472616374206973206e6f74206960008201527f6e697469616c697a696e67000000000000000000000000000000000000000000602082015250565b6000615b6b602b83614482565b9150615b7682615b0f565b604082019050919050565b60006020820190508181036000830152615b9a81615b5e565b9050919050565b7f455243313936373a206e657720696d706c656d656e746174696f6e206973206e60008201527f6f74206120636f6e747261637400000000000000000000000000000000000000602082015250565b6000615bfd602d83614482565b9150615c0882615ba1565b604082019050919050565b60006020820190508181036000830152615c2c81615bf0565b9050919050565b7f5061757361626c653a206e6f7420706175736564000000000000000000000000600082015250565b6000615c69601483614482565b9150615c7482615c33565b602082019050919050565b60006020820190508181036000830152615c9881615c5c565b9050919050565b600081519050919050565b600081905092915050565b60005b83811015615cd3578082015181840152602081019050615cb8565b83811115615ce2576000848401525b50505050565b6000615cf382615c9f565b615cfd8185615caa565b9350615d0d818560208601615cb5565b80840191505092915050565b6000615d258284615ce8565b915081905092915050565b60008160011c9050919050565b6000808291508390505b6001851115615d8757808604811115615d6357615d62614716565b5b6001851615615d725780820291505b8081029050615d8085615d30565b9450615d47565b94509492505050565b600082615da05760019050615e5c565b81615dae5760009050615e5c565b8160018114615dc45760028114615dce57615dfd565b6001915050615e5c565b60ff841115615de057615ddf614716565b5b8360020a915084821115615df757615df6614716565b5b50615e5c565b5060208310610133831016604e8410600b8410161715615e325782820a905083811115615e2d57615e2c614716565b5b615e5c565b615e3f8484846001615d3d565b92509050818404811115615e5657615e55614716565b5b81810290505b9392505050565b6000615e6e82613c97565b9150615e7983613c97565b9250615ea67fffffffffffffffffffffffffffffffffffffffffffffffffffffffffffffffff8484615d90565b905092915050565b7f416464726573733a2063616c6c20746f206e6f6e2d636f6e7472616374000000600082015250565b6000615ee4601d83614482565b9150615eef82615eae565b602082019050919050565b60006020820190508181036000830152615f1381615ed7565b9050919050565b600081519050919050565b6000615f3082615f1a565b615f3a8185614482565b9350615f4a818560208601615cb5565b615f5381613daf565b840191505092915050565b60006020820190508181036000830152615f788184615f25565b90509291505056fe416464726573733a206c6f772d6c6576656c2064656c65676174652063616c6c206661696c6564a2646970667358221220565c81178ed456904b4e8e013e3f517cada9457c368752071e558e0ca82b525064736f6c634300080b0033",
  "linkReferences": {
    "contracts/Libraries/LibCalculations.sol": {
      "LibCalculations": [
        {
          "length": 20,
          "start": 2928
        }
      ]
    },
    "contracts/Libraries/LibNFTLendingBorrowing.sol": {
      "LibNFTLendingBorrowing": [
        {
          "length": 20,
          "start": 3176
        },
        {
          "length": 20,
          "start": 7470
        },
        {
          "length": 20,
          "start": 10439
        },
        {
          "length": 20,
          "start": 12826
        }
      ]
    }
  },
  "deployedLinkReferences": {
    "contracts/Libraries/LibCalculations.sol": {
      "LibCalculations": [
        {
          "length": 20,
          "start": 2355
        }
      ]
    },
    "contracts/Libraries/LibNFTLendingBorrowing.sol": {
      "LibNFTLendingBorrowing": [
        {
          "length": 20,
          "start": 2603
        },
        {
          "length": 20,
          "start": 6897
        },
        {
          "length": 20,
          "start": 9866
        },
        {
          "length": 20,
          "start": 12253
        }
      ]
    }
  }
}