{"abi":[{"type":"constructor","inputs":[],"stateMutability":"nonpayable"},{"type":"function","name":"Bid","inputs":[{"name":"_saleId","type":"uint256","internalType":"uint256"},{"name":"_bidPrice","type":"uint256","internalType":"uint256"}],"outputs":[],"stateMutability":"payable"},{"type":"function","name":"Bids","inputs":[{"name":"","type":"uint256","internalType":"uint256"},{"name":"","type":"uint256","internalType":"uint256"}],"outputs":[{"name":"bidId","type":"uint256","internalType":"uint256"},{"name":"saleId","type":"uint256","internalType":"uint256"},{"name":"sellerAddress","type":"address","internalType":"address"},{"name":"buyerAddress","type":"address","internalType":"address"},{"name":"price","type":"uint256","internalType":"uint256"},{"name":"withdrawn","type":"bool","internalType":"bool"}],"stateMutability":"view"},{"type":"function","name":"BuyNFT","inputs":[{"name":"_saleId","type":"uint256","internalType":"uint256"},{"name":"_fromCollection","type":"bool","internalType":"bool"}],"outputs":[],"stateMutability":"payable"},{"type":"function","name":"SellNFT_byBid","inputs":[{"name":"_contractAddress","type":"address","internalType":"address"},{"name":"_tokenId","type":"uint256","internalType":"uint256"},{"name":"_price","type":"uint256","internalType":"uint256"},{"name":"_bidTime","type":"uint256","internalType":"uint256"},{"name":"_currency","type":"address","internalType":"address"}],"outputs":[],"stateMutability":"nonpayable"},{"type":"function","name":"_swaps","inputs":[{"name":"","type":"uint256","internalType":"uint256"}],"outputs":[{"name":"initiatorNFTAddress","type":"address","internalType":"address"},{"name":"initiator","type":"address","internalType":"address"},{"name":"initiatorNftId","type":"uint256","internalType":"uint256"},{"name":"requestedTokenOwner","type":"address","internalType":"address"},{"name":"requestedTokenId","type":"uint256","internalType":"uint256"},{"name":"requestedTokenAddress","type":"address","internalType":"address"},{"name":"status","type":"bool","internalType":"bool"}],"stateMutability":"view"},{"type":"function","name":"_tokenMeta","inputs":[{"name":"","type":"uint256","internalType":"uint256"}],"outputs":[{"name":"saleId","type":"uint256","internalType":"uint256"},{"name":"tokenContractAddress","type":"address","internalType":"address"},{"name":"tokenId","type":"uint256","internalType":"uint256"},{"name":"price","type":"uint256","internalType":"uint256"},{"name":"directSale","type":"bool","internalType":"bool"},{"name":"bidSale","type":"bool","internalType":"bool"},{"name":"status","type":"bool","internalType":"bool"},{"name":"bidStartTime","type":"uint256","internalType":"uint256"},{"name":"bidEndTime","type":"uint256","internalType":"uint256"},{"name":"currentOwner","type":"address","internalType":"address"},{"name":"currency","type":"address","internalType":"address"}],"stateMutability":"view"},{"type":"function","name":"acceptSwapRequest","inputs":[{"name":"swapId","type":"uint256","internalType":"uint256"}],"outputs":[],"stateMutability":"nonpayable"},{"type":"function","name":"cancelSale","inputs":[{"name":"_saleId","type":"uint256","internalType":"uint256"}],"outputs":[],"stateMutability":"nonpayable"},{"type":"function","name":"cancelSwap","inputs":[{"name":"_swapId","type":"uint256","internalType":"uint256"}],"outputs":[],"stateMutability":"nonpayable"},{"type":"function","name":"collectionFactoryAddress","inputs":[],"outputs":[{"name":"","type":"address","internalType":"address"}],"stateMutability":"view"},{"type":"function","name":"editSalePrice","inputs":[{"name":"_saleId","type":"uint256","internalType":"uint256"},{"name":"_price","type":"uint256","internalType":"uint256"}],"outputs":[],"stateMutability":"nonpayable"},{"type":"function","name":"executeBidOrder","inputs":[{"name":"_saleId","type":"uint256","internalType":"uint256"},{"name":"_bidOrderID","type":"uint256","internalType":"uint256"},{"name":"_fromCollection","type":"bool","internalType":"bool"}],"outputs":[],"stateMutability":"nonpayable"},{"type":"function","name":"getCollectionRoyalty","inputs":[{"name":"_collectionFactoryAddress","type":"address","internalType":"address"},{"name":"_collectionAddress","type":"address","internalType":"address"}],"outputs":[{"name":"","type":"tuple[]","internalType":"struct LibShare.Share[]","components":[{"name":"account","type":"address","internalType":"address payable"},{"name":"value","type":"uint96","internalType":"uint96"}]}],"stateMutability":"view"},{"type":"function","name":"getCollectionValidatorRoyalty","inputs":[{"name":"_collectionAddress","type":"address","internalType":"address"},{"name":"_tokenId","type":"uint256","internalType":"uint256"}],"outputs":[{"name":"","type":"tuple[]","internalType":"struct LibShare.Share[]","components":[{"name":"account","type":"address","internalType":"address payable"},{"name":"value","type":"uint96","internalType":"uint96"}]}],"stateMutability":"view"},{"type":"function","name":"initialize","inputs":[{"name":"_feeAddress","type":"address","internalType":"address"},{"name":"_collectionFactoryAddress","type":"address","internalType":"address"},{"name":"_piNFTMethodsAddress","type":"address","internalType":"address"}],"outputs":[],"stateMutability":"nonpayable"},{"type":"function","name":"makeSwapRequest","inputs":[{"name":"contractAddress1","type":"address","internalType":"address"},{"name":"contractAddress2","type":"address","internalType":"address"},{"name":"token1","type":"uint256","internalType":"uint256"},{"name":"token2","type":"uint256","internalType":"uint256"}],"outputs":[{"name":"","type":"uint256","internalType":"uint256"}],"stateMutability":"nonpayable"},{"type":"function","name":"onERC721Received","inputs":[{"name":"","type":"address","internalType":"address"},{"name":"","type":"address","internalType":"address"},{"name":"","type":"uint256","internalType":"uint256"},{"name":"","type":"bytes","internalType":"bytes"}],"outputs":[{"name":"","type":"bytes4","internalType":"bytes4"}],"stateMutability":"nonpayable"},{"type":"function","name":"owner","inputs":[],"outputs":[{"name":"","type":"address","internalType":"address"}],"stateMutability":"view"},{"type":"function","name":"pause","inputs":[],"outputs":[],"stateMutability":"nonpayable"},{"type":"function","name":"paused","inputs":[],"outputs":[{"name":"","type":"bool","internalType":"bool"}],"stateMutability":"view"},{"type":"function","name":"piNFTMethodsAddress","inputs":[],"outputs":[{"name":"","type":"address","internalType":"address"}],"stateMutability":"view"},{"type":"function","name":"proxiableUUID","inputs":[],"outputs":[{"name":"","type":"bytes32","internalType":"bytes32"}],"stateMutability":"view"},{"type":"function","name":"renounceOwnership","inputs":[],"outputs":[],"stateMutability":"nonpayable"},{"type":"function","name":"retrieveRoyalty","inputs":[{"name":"_contractAddress","type":"address","internalType":"address"},{"name":"_tokenId","type":"uint256","internalType":"uint256"}],"outputs":[{"name":"","type":"tuple[]","internalType":"struct LibShare.Share[]","components":[{"name":"account","type":"address","internalType":"address payable"},{"name":"value","type":"uint96","internalType":"uint96"}]}],"stateMutability":"view"},{"type":"function","name":"retrieveValidatorRoyalty","inputs":[{"name":"_contractAddress","type":"address","internalType":"address"},{"name":"_tokenId","type":"uint256","internalType":"uint256"}],"outputs":[{"name":"","type":"tuple[]","internalType":"struct LibShare.Share[]","components":[{"name":"account","type":"address","internalType":"address payable"},{"name":"value","type":"uint96","internalType":"uint96"}]}],"stateMutability":"view"},{"type":"function","name":"sellNFT","inputs":[{"name":"_contractAddress","type":"address","internalType":"address"},{"name":"_tokenId","type":"uint256","internalType":"uint256"},{"name":"_price","type":"uint256","internalType":"uint256"},{"name":"_currency","type":"address","internalType":"address"}],"outputs":[],"stateMutability":"nonpayable"},{"type":"function","name":"transferOwnership","inputs":[{"name":"newOwner","type":"address","internalType":"address"}],"outputs":[],"stateMutability":"nonpayable"},{"type":"function","name":"unpause","inputs":[],"outputs":[],"stateMutability":"nonpayable"},{"type":"function","name":"upgradeTo","inputs":[{"name":"newImplementation","type":"address","internalType":"address"}],"outputs":[],"stateMutability":"nonpayable"},{"type":"function","name":"upgradeToAndCall","inputs":[{"name":"newImplementation","type":"address","internalType":"address"},{"name":"data","type":"bytes","internalType":"bytes"}],"outputs":[],"stateMutability":"payable"},{"type":"function","name":"withdrawBidMoney","inputs":[{"name":"_saleId","type":"uint256","internalType":"uint256"},{"name":"_bidId","type":"uint256","internalType":"uint256"}],"outputs":[],"stateMutability":"nonpayable"},{"type":"event","name":"AdminChanged","inputs":[{"name":"previousAdmin","type":"address","indexed":false,"internalType":"address"},{"name":"newAdmin","type":"address","indexed":false,"internalType":"address"}],"anonymous":false},{"type":"event","name":"BeaconUpgraded","inputs":[{"name":"beacon","type":"address","indexed":true,"internalType":"address"}],"anonymous":false},{"type":"event","name":"BidCreated","inputs":[{"name":"saleId","type":"uint256","indexed":false,"internalType":"uint256"},{"name":"bidId","type":"uint256","indexed":false,"internalType":"uint256"}],"anonymous":false},{"type":"event","name":"BidExecuted","inputs":[{"name":"saleId","type":"uint256","indexed":false,"internalType":"uint256"},{"name":"bidId","type":"uint256","indexed":false,"internalType":"uint256"},{"name":"price","type":"uint256","indexed":false,"internalType":"uint256"}],"anonymous":false},{"type":"event","name":"BidWithdrawn","inputs":[{"name":"saleId","type":"uint256","indexed":false,"internalType":"uint256"},{"name":"bidId","type":"uint256","indexed":false,"internalType":"uint256"}],"anonymous":false},{"type":"event","name":"Initialized","inputs":[{"name":"version","type":"uint8","indexed":false,"internalType":"uint8"}],"anonymous":false},{"type":"event","name":"NFTBought","inputs":[{"name":"saleId","type":"uint256","indexed":false,"internalType":"uint256"},{"name":"buyer","type":"address","indexed":false,"internalType":"address"}],"anonymous":false},{"type":"event","name":"OwnershipTransferred","inputs":[{"name":"previousOwner","type":"address","indexed":true,"internalType":"address"},{"name":"newOwner","type":"address","indexed":true,"internalType":"address"}],"anonymous":false},{"type":"event","name":"Paused","inputs":[{"name":"account","type":"address","indexed":false,"internalType":"address"}],"anonymous":false},{"type":"event","name":"SaleCancelled","inputs":[{"name":"saleId","type":"uint256","indexed":false,"internalType":"uint256"}],"anonymous":false},{"type":"event","name":"SaleCreated","inputs":[{"name":"tokenId","type":"uint256","indexed":false,"internalType":"uint256"},{"name":"tokenContract","type":"address","indexed":false,"internalType":"address"},{"name":"saleId","type":"uint256","indexed":false,"internalType":"uint256"}],"anonymous":false},{"type":"event","name":"SwapAccepted","inputs":[{"name":"swapId","type":"uint256","indexed":false,"internalType":"uint256"}],"anonymous":false},{"type":"event","name":"SwapCancelled","inputs":[{"name":"swapId","type":"uint256","indexed":false,"internalType":"uint256"}],"anonymous":false},{"type":"event","name":"SwapProposed","inputs":[{"name":"from","type":"address","indexed":true,"internalType":"address"},{"name":"to","type":"address","indexed":true,"internalType":"address"},{"name":"swapId","type":"uint256","indexed":true,"internalType":"uint256"}],"anonymous":false},{"type":"event","name":"Unpaused","inputs":[{"name":"account","type":"address","indexed":false,"internalType":"address"}],"anonymous":false},{"type":"event","name":"Upgraded","inputs":[{"name":"implementation","type":"address","indexed":true,"internalType":"address"}],"anonymous":false},{"type":"event","name":"updatedSalePrice","inputs":[{"name":"saleId","type":"uint256","indexed":false,"internalType":"uint256"},{"name":"Price","type":"uint256","indexed":false,"internalType":"uint256"}],"anonymous":false}],"bytecode":{"object":"0x60a0604052306080523480156200001557600080fd5b506200002062000026565b620000e8565b600054610100900460ff1615620000935760405162461bcd60e51b815260206004820152602760248201527f496e697469616c697a61626c653a20636f6e747261637420697320696e697469604482015266616c697a696e6760c81b606482015260840160405180910390fd5b60005460ff9081161015620000e6576000805460ff191660ff9081179091556040519081527f7f26b83ff96e1f2b6a682f133852f6798a09c465da95921460cefb38474024989060200160405180910390a15b565b6080516137696200012060003960008181610e0501528181610e4501528181611199015281816111d9015261126801526137696000f3fe6080604052600436106101d85760003560e01c8063715018a611610102578063a7f323da11610095578063c0c53b8b11610064578063c0c53b8b146106dd578063ca87ad301461042c578063e0177934146106fd578063f2fde38b1461071e57600080fd5b8063a7f323da14610591578063bd94b005146105ed578063bfb9639d1461060d578063c073b4721461062d57600080fd5b80638da5cb5b116100d15780638da5cb5b1461044c5780638e57ff161461046a57806396faba9d1461055157806398f748bd1461057157600080fd5b8063715018a6146103ef57806375746bcd146104045780638456cb591461041757806386dc814b1461042c57600080fd5b806347a0375b1161017a57806356d9c6a11161014957806356d9c6a11461035f5780635c975abb1461037f578063625c44fe146103a25780636a7ca327146103cf57600080fd5b806347a0375b146102f65780634f1ef2861461030957806352d1902d1461031c57806354d6a2b71461033f57600080fd5b80632eee5614116101b65780632eee5614146102685780633659cfe6146102885780633f4ba83a146102a8578063401f8c7a146102bd57600080fd5b8063150b7a02146101dd5780632bc09e77146102265780632bd87c4f14610248575b600080fd5b3480156101e957600080fd5b506102086101f8366004612f1b565b630a85bd0160e11b949350505050565b6040516001600160e01b031990911681526020015b60405180910390f35b34801561023257600080fd5b50610246610241366004612f95565b61073e565b005b34801561025457600080fd5b50610246610263366004612fce565b610a44565b34801561027457600080fd5b50610246610283366004612ff0565b610b4b565b34801561029457600080fd5b506102466102a3366004613009565b610dfa565b3480156102b457600080fd5b50610246610ed7565b3480156102c957600080fd5b50610162546102de906001600160a01b031681565b6040516001600160a01b03909116815260200161021d565b610246610304366004612fce565b610ee9565b610246610317366004613026565b61118e565b34801561032857600080fd5b5061033161125b565b60405190815260200161021d565b34801561034b57600080fd5b5061024661035a366004612ff0565b61130e565b34801561036b57600080fd5b5061024661037a366004613076565b61143d565b34801561038b57600080fd5b5060975460ff16604051901515815260200161021d565b3480156103ae57600080fd5b506103c26103bd3660046130cc565b61174f565b60405161021d9190613105565b3480156103db57600080fd5b506103316103ea36600461316e565b611837565b3480156103fb57600080fd5b50610246611bc2565b6102466104123660046131b4565b611bd4565b34801561042357600080fd5b50610246611eaf565b34801561043857600080fd5b506103c26104473660046131d9565b611ebf565b34801561045857600080fd5b5060c9546001600160a01b03166102de565b34801561047657600080fd5b506104f2610485366004612ff0565b6101646020526000908152604090208054600182015460028301546003840154600485015460058601546006870154600788015460089098015496976001600160a01b03968716979596949560ff808616966101008704821696620100009004909116949392811691168b565b604080519b8c526001600160a01b039a8b1660208d01528b019890985260608a0196909652931515608089015291151560a0880152151560c087015260e08601526101008501528216610120840152166101408201526101600161021d565b34801561055d57600080fd5b506103c261056c3660046131d9565b611f37565b34801561057d57600080fd5b5061024661058c366004613205565b611f67565b34801561059d57600080fd5b506105b16105ac366004612fce565b61226e565b6040805196875260208701959095526001600160a01b0393841694860194909452911660608401526080830152151560a082015260c00161021d565b3480156105f957600080fd5b50610246610608366004612ff0565b6122d2565b34801561061957600080fd5b50610246610628366004612fce565b6123f8565b34801561063957600080fd5b50610699610648366004612ff0565b610166602052600090815260409020805460018201546002830154600384015460048501546005909501546001600160a01b039485169593851694929391831692811690600160a01b900460ff1687565b604080516001600160a01b03988916815296881660208801528601949094529185166060850152608084015290921660a082015290151560c082015260e00161021d565b3480156106e957600080fd5b506102466106f836600461324f565b612571565b34801561070957600080fd5b50610163546102de906001600160a01b031681565b34801561072a57600080fd5b50610246610739366004613009565b612703565b610746612779565b61074e6127bf565b60608082156107bd576101625460008681526101646020526040902060010154610784916001600160a01b03908116911661174f565b60008681526101646020526040902060018101546002909101549193506107b6916001600160a01b0390911690611ebf565b905061081f565b60008581526101646020526040902060018101546002909101546107ea916001600160a01b031690611f37565b600086815261016460205260409020600181015460029091015491935061081c916001600160a01b0390911690611ebf565b90505b600085815261016460209081526040808320610165909252909120805473__$0b2e731083bccdcdc1c63f188013ae283e$__926384ff96e89290918890811061086a5761086a61328f565b6000918252602090912061016354610161546040516001600160e01b031960e088901b1681526108b7959460060290930192899289926001600160a01b0391821692911690600401613306565b60006040518083038186803b1580156108cf57600080fd5b505af41580156108e3573d6000803e3d6000fd5b5050506000868152610164602090815260408083206001015461016590925290912080546001600160a01b0390921692506342842e0e913091908890811061092d5761092d61328f565b906000526020600020906006020160030160009054906101000a90046001600160a01b031661016460008a8152602001908152602001600020600201546040518463ffffffff1660e01b81526004016109889392919061335e565b600060405180830381600087803b1580156109a257600080fd5b505af11580156109b6573d6000803e3d6000fd5b505050507fe4aed1d8cb36f11a4a6ae6b1e7b718468a0f82e034de969816c5fd1b67025be2858561016560008981526020019081526020016000208781548110610a0257610a0261328f565b600091825260209182902060046006909202010154604080519485529184019290925282015260600160405180910390a15050610a3f6001603355565b505050565b610a4c612779565b610a546127bf565b600082815261016460209081526040808320610165909252909120805473__$0b2e731083bccdcdc1c63f188013ae283e$__92630c7c670992909185908110610a9f57610a9f61328f565b90600052602060002090600602016040518363ffffffff1660e01b8152600401610ad3929190918252602082015260400190565b60006040518083038186803b158015610aeb57600080fd5b505af4158015610aff573d6000803e3d6000fd5b505060408051858152602081018590527f6415d97b7a9df23899954c482911f3fc2cb8afff4b6b15e788859e1307de227a935001905060405180910390a1610b476001603355565b5050565b610b53612779565b610b5b6127bf565b6000818152610166602052604090206005810154600160a01b900460ff16610b8257600080fd5b600381015460058201546004808401546040516331a9108f60e11b8152918201526001600160a01b039283169290911690636352211e90602401602060405180830381865afa158015610bd9573d6000803e3d6000fd5b505050506040513d601f19601f82011682018060405250810190610bfd9190613382565b6001600160a01b031614610c635760405162461bcd60e51b815260206004820152602260248201527f72657175657374696e6720746f6b656e206f776e657220686173206368616e67604482015261195960f21b60648201526084015b60405180910390fd5b60038101546001600160a01b03163314610ccb5760405162461bcd60e51b8152602060048201526024808201527f4f6e6c7920726571756573746564206f776e65722063616e20616363657074206044820152630737761760e41b6064820152608401610c5a565b60058101805460ff60a01b1916905580546002820154604051632142170760e11b81526001600160a01b03909216916342842e0e91610d10913091339160040161335e565b600060405180830381600087803b158015610d2a57600080fd5b505af1158015610d3e573d6000803e3d6000fd5b50505060058201546001830154600480850154604051632142170760e11b81526001600160a01b0394851695506342842e0e94610d81943394911692910161335e565b600060405180830381600087803b158015610d9b57600080fd5b505af1158015610daf573d6000803e3d6000fd5b505050507f7080e652b0056fb27597071d591828292afd96fd17bc428ff26dfcca4acc523082604051610de491815260200190565b60405180910390a150610df76001603355565b50565b306001600160a01b037f0000000000000000000000000000000000000000000000000000000000000000161415610e435760405162461bcd60e51b8152600401610c5a9061339f565b7f00000000000000000000000000000000000000000000000000000000000000006001600160a01b0316610e8c6000805160206136ed833981519152546001600160a01b031690565b6001600160a01b031614610eb25760405162461bcd60e51b8152600401610c5a906133eb565b610ebb81612820565b60408051600080825260208201909252610df791839190612828565b610edf612993565b610ee76129ed565b565b610ef1612779565b600082815261016460205260409020600801546001600160a01b0316610f1d57803414610f1d57600080fd5b600082815261016460205260409081902090516315183b5360e01b815260048101919091526024810182905273__$0b2e731083bccdcdc1c63f188013ae283e$__906315183b539060440160006040518083038186803b158015610f8057600080fd5b505af4158015610f94573d6000803e3d6000fd5b505050600083815261016460205260409020600601544211159050610fb857600080fd5b60008281526101646020526040902060038101829055600801546001600160a01b03161561107557600082815261016460205260408082206008015490516323b872dd60e01b81526001600160a01b03909116906323b872dd906110249033903090879060040161335e565b6020604051808303816000875af1158015611043573d6000803e3d6000fd5b505050506040513d601f19601f820116820180604052508101906110679190613437565b90508061107357600080fd5b505b6040805160c0810182526000848152610165602081815284832080548086528286018981528986526101648452878620600701546001600160a01b039081169888019889523360608901908152608089018b815260a08a0189815297875260018086018755868a529689208a5160069096020194855592518487015598516002840180546001600160a01b03199081169284169290921790559851600384018054909a169116179097559551600487015591516005909501805460ff191695151595909517909455908590525490917f0c876c013f62a226c9275bd56cdf74069fcda2f8075a64fe93fb3ce0e0119b9d9185916111719161346a565b6040805192835260208301919091520160405180910390a1505050565b306001600160a01b037f00000000000000000000000000000000000000000000000000000000000000001614156111d75760405162461bcd60e51b8152600401610c5a9061339f565b7f00000000000000000000000000000000000000000000000000000000000000006001600160a01b03166112206000805160206136ed833981519152546001600160a01b031690565b6001600160a01b0316146112465760405162461bcd60e51b8152600401610c5a906133eb565b61124f82612820565b610b4782826001612828565b6000306001600160a01b037f000000000000000000000000000000000000000000000000000000000000000016146112fb5760405162461bcd60e51b815260206004820152603860248201527f555550535570677261646561626c653a206d757374206e6f742062652063616c60448201527f6c6564207468726f7567682064656c656761746563616c6c00000000000000006064820152608401610c5a565b506000805160206136ed83398151915290565b611316612779565b61131e6127bf565b600081815261016660205260409020600101546001600160a01b0316331461134557600080fd5b60008181526101666020526040902060050154600160a01b900460ff1661136b57600080fd5b600081815261016660205260409081902060058101805460ff60a01b19169055805460018201546002909201549251632142170760e11b81526001600160a01b03918216936342842e0e936113c89330939116919060040161335e565b600060405180830381600087803b1580156113e257600080fd5b505af11580156113f6573d6000803e3d6000fd5b505050507ff6b6b4f7a13f02512c1b3aa8dcc4a07d7775a6a4becbd439efcbd37c5408e67f8160405161142b91815260200190565b60405180910390a1610df76001603355565b6040516331a9108f60e11b815260048101859052859085906001600160a01b03831690636352211e90602401602060405180830381865afa158015611486573d6000803e3d6000fd5b505050506040513d601f19601f820116820180604052508101906114aa9190613382565b6001600160a01b0316336001600160a01b0316146114da5760405162461bcd60e51b8152600401610c5a90613481565b6114e26127bf565b6114ea612779565b6001600160a01b0387166114fd57600080fd5b61271085101561150c57600080fd5b8361151657600080fd5b61152561015f80546001019055565b604051632142170760e11b81526001600160a01b038816906342842e0e9061155590339030908b9060040161335e565b600060405180830381600087803b15801561156f57600080fd5b505af1158015611583573d6000803e3d6000fd5b50505050600060405180610160016040528061159f61015f5490565b8152602001896001600160a01b0316815260200188815260200187815260200160001515815260200160011515815260200160011515815260200142815260200186426115ec91906134b8565b81523360208201526001600160a01b038616604090910152905080610164600061161661015f5490565b8152602080820192909252604090810160002083518155918301516001830180546001600160a01b03199081166001600160a01b039384161790915591840151600284015560608401516003840155608084015160048401805460a087015160c088015161ffff1990921693151561ff0019169390931761010093151584021762ff00001916620100009115159190910217905560e085015160058501558401516006840155610120840151600784018054841691831691909117905561014090930151600890920180549091169190921617905561015f547fa29262303591d48ce94646a46b652916ce782073349bb5dc261ac4c5237d93979088908a90604080519384526001600160a01b0390921660208401529082015260600160405180910390a1506117466001603355565b50505050505050565b604051637788bff560e01b81526001600160a01b038281166004830152606091600091851690637788bff590602401602060405180830381865afa15801561179b573d6000803e3d6000fd5b505050506040513d601f19601f820116820180604052508101906117bf91906134d0565b604051631c3d3f9d60e31b8152600481018290529091506001600160a01b0385169063e1e9fce890602401600060405180830381865afa158015611807573d6000803e3d6000fd5b505050506040513d6000823e601f3d908101601f1916820160405261182f91908101906134e9565b949350505050565b60008483816001600160a01b0316636352211e826040518263ffffffff1660e01b815260040161186991815260200190565b602060405180830381865afa158015611886573d6000803e3d6000fd5b505050506040513d601f19601f820116820180604052508101906118aa9190613382565b6001600160a01b0316336001600160a01b0316146118da5760405162461bcd60e51b8152600401610c5a90613481565b6118e26127bf565b6118ea612779565b6001600160a01b0387166118fd57600080fd5b6001600160a01b03861661191057600080fd5b6040516331a9108f60e11b8152600481018590526000906001600160a01b03881690636352211e90602401602060405180830381865afa158015611958573d6000803e3d6000fd5b505050506040513d601f19601f8201168201806040525081019061197c9190613382565b90506001600160a01b03811633141561199457600080fd5b60006119a06101605490565b604051632142170760e11b81529091506001600160a01b038a16906342842e0e906119d390339030908c9060040161335e565b600060405180830381600087803b1580156119ed57600080fd5b505af1158015611a01573d6000803e3d6000fd5b5050505060006040518060e001604052808b6001600160a01b03168152602001336001600160a01b03168152602001898152602001846001600160a01b031681526020018881526020018a6001600160a01b0316815260200160011515815250905080610166600084815260200190815260200160002060008201518160000160006101000a8154816001600160a01b0302191690836001600160a01b0316021790555060208201518160010160006101000a8154816001600160a01b0302191690836001600160a01b031602179055506040820151816002015560608201518160030160006101000a8154816001600160a01b0302191690836001600160a01b031602179055506080820151816004015560a08201518160050160006101000a8154816001600160a01b0302191690836001600160a01b0316021790555060c08201518160050160146101000a81548160ff021916908315150217905550905050611b7261016080546001019055565b60405182906001600160a01b0385169033907fffd321d9ac6e5d361fa3cfa4ee752259774415efa4ac8d50669dce82c183b8eb90600090a450935050611bb86001603355565b5050949350505050565b611bca612993565b610ee76000612a3f565b611bdc612779565b611be46127bf565b600082815261016460209081526040918290208251610160810184528154815260018201546001600160a01b03908116938201939093526002820154938101939093526003810154606080850191909152600482015460ff808216151560808701526101008083048216151560a08801526201000090920416151560c0860152600583015460e086015260068301549085015260078201548316610120850152600890910154909116610140830152808315611cd157610162546020840151611cb6916001600160a01b03169061174f565b9150611cca83602001518460400151611ebf565b9050611cfa565b611ce383602001518460400151611f37565b9150611cf783602001518460400151611ebf565b90505b60008581526101646020526040908190209051637588b83760e01b8152600481019190915273__$0b2e731083bccdcdc1c63f188013ae283e$__90637588b8379060240160006040518083038186803b158015611d5657600080fd5b505af4158015611d6a573d6000803e3d6000fd5b505050600086815261016460205260409081902061016154610163549251636d195e1160e01b815273__$0b2e731083bccdcdc1c63f188013ae283e$__9450636d195e1193611dcf93926001600160a01b0390811692911690889088906004016135d6565b60006040518083038186803b158015611de757600080fd5b505af4158015611dfb573d6000803e3d6000fd5b5050505082602001516001600160a01b03166342842e0e303386604001516040518463ffffffff1660e01b8152600401611e379392919061335e565b600060405180830381600087803b158015611e5157600080fd5b505af1158015611e65573d6000803e3d6000fd5b5050604080518881523360208201527fedd9780c911d132891b0d6c68f69e6d9086a0ddc83a683a5e62b5aed36e93eb6935001905060405180910390a1505050610b476001603355565b611eb7612993565b610ee7612a91565b6040516302b4214160e01b8152600481018290526060906001600160a01b038416906302b42141906024015b600060405180830381865afa158015611f08573d6000803e3d6000fd5b505050506040513d6000823e601f3d908101601f19168201604052611f3091908101906134e9565b9392505050565b604051635d9dd7eb60e11b8152600481018290526060906001600160a01b0384169063bb3bafd690602401611eeb565b6040516331a9108f60e11b815260048101849052849084906001600160a01b03831690636352211e90602401602060405180830381865afa158015611fb0573d6000803e3d6000fd5b505050506040513d601f19601f82011682018060405250810190611fd49190613382565b6001600160a01b0316336001600160a01b0316146120045760405162461bcd60e51b8152600401610c5a90613481565b61200c612779565b6120146127bf565b61202361015f80546001019055565b61271084101561203257600080fd5b6001600160a01b03861661204557600080fd5b604051632142170760e11b81526001600160a01b038716906342842e0e9061207590339030908a9060040161335e565b600060405180830381600087803b15801561208f57600080fd5b505af11580156120a3573d6000803e3d6000fd5b5050505060006040518061016001604052806120bf61015f5490565b8152602001886001600160a01b031681526020018781526020018681526020016001151581526020016000151581526020016001151581526020016000815260200160008152602001336001600160a01b03168152602001856001600160a01b0316815250905080610164600061213661015f5490565b8152602080820192909252604090810160002083518155918301516001830180546001600160a01b03199081166001600160a01b039384161790915591840151600284015560608401516003840155608084015160048401805460a087015160c088015161ffff1990921693151561ff0019169390931761010093151584021762ff00001916620100009115159190910217905560e085015160058501558401516006840155610120840151600784018054841691831691909117905561014090930151600890920180549091169190921617905561015f547fa29262303591d48ce94646a46b652916ce782073349bb5dc261ac4c5237d93979087908990604080519384526001600160a01b0390921660208401529082015260600160405180910390a1506122666001603355565b505050505050565b610165602052816000526040600020818154811061228b57600080fd5b60009182526020909120600690910201805460018201546002830154600384015460048501546005909501549396509194506001600160a01b039081169391169160ff1686565b6122da6127bf565b6122e2612779565b600081815261016460205260409020600701546001600160a01b0316331461230957600080fd5b6000818152610164602052604090206004015462010000900460ff1661232e57600080fd5b6000818152610164602052604080822060038101929092556004808301805462ff000019169055600183015460078401546002909401549251632142170760e11b81526001600160a01b03918216946342842e0e946123959430949092169290910161335e565b600060405180830381600087803b1580156123af57600080fd5b505af11580156123c3573d6000803e3d6000fd5b505050507f2c56893f6f6026d19bd17b7d05c9f15c522de1ae2b1c3a825f91a73c799321f28160405161142b91815260200190565b612400612779565b600082815261016460205260409020600701546001600160a01b031633146124625760405162461bcd60e51b81526020600482015260156024820152742cb7ba9030b932903737ba103a34329037bbb732b960591b6044820152606401610c5a565b6000828152610164602052604090206004015462010000900460ff1661248757600080fd5b61271081101561249657600080fd5b60008281526101646020526040902060040154610100900460ff16156125055760008281526101656020526040902054156125055760405162461bcd60e51b815260206004820152600f60248201526e109a59081a185cc81cdd185c9d1959608a1b6044820152606401610c5a565b600082815261016460205260409020600301548114610b47576000828152610164602090815260409182902060030183905581518481529081018390527f802c9b6cc49364e6496fca815b9f06991a5eac587609a151c6de2beb5c3866b5910160405180910390a15050565b600054610100900460ff16158080156125915750600054600160ff909116105b806125ab5750303b1580156125ab575060005460ff166001145b61260e5760405162461bcd60e51b815260206004820152602e60248201527f496e697469616c697a61626c653a20636f6e747261637420697320616c72656160448201526d191e481a5b9a5d1a585b1a5e995960921b6064820152608401610c5a565b6000805460ff191660011790558015612631576000805461ff0019166101001790555b6001600160a01b03841661264457600080fd5b6001600160a01b03831661265757600080fd5b61265f612ace565b612667612afd565b61266f612b24565b612677612afd565b61016180546001600160a01b038087166001600160a01b031992831617909255610162805486841690831617905561016380549285169290911691909117905580156126fd576000805461ff0019169055604051600181527f7f26b83ff96e1f2b6a682f133852f6798a09c465da95921460cefb38474024989060200160405180910390a15b50505050565b61270b612993565b6001600160a01b0381166127705760405162461bcd60e51b815260206004820152602660248201527f4f776e61626c653a206e6577206f776e657220697320746865207a65726f206160448201526564647265737360d01b6064820152608401610c5a565b610df781612a3f565b60975460ff1615610ee75760405162461bcd60e51b815260206004820152601060248201526f14185d5cd8589b194e881c185d5cd95960821b6044820152606401610c5a565b600260335414156128125760405162461bcd60e51b815260206004820152601f60248201527f5265656e7472616e637947756172643a207265656e7472616e742063616c6c006044820152606401610c5a565b6002603355565b6001603355565b610df7612993565b7f4910fdfa16fed3260ed0e7147f7cc6da11a60208b5b9406d12a635614ffd91435460ff161561285b57610a3f83612b53565b826001600160a01b03166352d1902d6040518163ffffffff1660e01b8152600401602060405180830381865afa9250505080156128b5575060408051601f3d908101601f191682019092526128b2918101906134d0565b60015b6129185760405162461bcd60e51b815260206004820152602e60248201527f45524331393637557067726164653a206e657720696d706c656d656e7461746960448201526d6f6e206973206e6f74205555505360901b6064820152608401610c5a565b6000805160206136ed83398151915281146129875760405162461bcd60e51b815260206004820152602960248201527f45524331393637557067726164653a20756e737570706f727465642070726f786044820152681a58589b195555525160ba1b6064820152608401610c5a565b50610a3f838383612bef565b60c9546001600160a01b03163314610ee75760405162461bcd60e51b815260206004820181905260248201527f4f776e61626c653a2063616c6c6572206973206e6f7420746865206f776e65726044820152606401610c5a565b6129f5612c14565b6097805460ff191690557f5db9ee0a495bf2e6ff9c91a7834c1ba4fdd244a5e8aa4e537bd38aeae4b073aa335b6040516001600160a01b03909116815260200160405180910390a1565b60c980546001600160a01b038381166001600160a01b0319831681179093556040519116919082907f8be0079c531659141344cd1fd0a4f28419497f9722a3daafe3b4186f6b6457e090600090a35050565b612a99612779565b6097805460ff191660011790557f62e78cea01bee320cd4e420270b5ea74000d11b0c9f74754ebdbfc544b05a258612a223390565b600054610100900460ff16612af55760405162461bcd60e51b8152600401610c5a90613626565b610ee7612c5d565b600054610100900460ff16610ee75760405162461bcd60e51b8152600401610c5a90613626565b600054610100900460ff16612b4b5760405162461bcd60e51b8152600401610c5a90613626565b610ee7612c84565b6001600160a01b0381163b612bc05760405162461bcd60e51b815260206004820152602d60248201527f455243313936373a206e657720696d706c656d656e746174696f6e206973206e60448201526c1bdd08184818dbdb9d1c9858dd609a1b6064820152608401610c5a565b6000805160206136ed83398151915280546001600160a01b0319166001600160a01b0392909216919091179055565b612bf883612cb4565b600082511180612c055750805b15610a3f576126fd8383612cf4565b60975460ff16610ee75760405162461bcd60e51b815260206004820152601460248201527314185d5cd8589b194e881b9bdd081c185d5cd95960621b6044820152606401610c5a565b600054610100900460ff166128195760405162461bcd60e51b8152600401610c5a90613626565b600054610100900460ff16612cab5760405162461bcd60e51b8152600401610c5a90613626565b610ee733612a3f565b612cbd81612b53565b6040516001600160a01b038216907fbc7cd75a20ee27fd9adebab32041f755214dbc6bffa90cc0225b39da2e5c2d3b90600090a250565b60606001600160a01b0383163b612d5c5760405162461bcd60e51b815260206004820152602660248201527f416464726573733a2064656c65676174652063616c6c20746f206e6f6e2d636f6044820152651b9d1c9858dd60d21b6064820152608401610c5a565b600080846001600160a01b031684604051612d77919061369d565b600060405180830381855af49150503d8060008114612db2576040519150601f19603f3d011682016040523d82523d6000602084013e612db7565b606091505b5091509150612ddf828260405180606001604052806027815260200161370d60279139612de8565b95945050505050565b60608315612df7575081611f30565b611f308383815115612e0c5781518083602001fd5b8060405162461bcd60e51b8152600401610c5a91906136b9565b6001600160a01b0381168114610df757600080fd5b634e487b7160e01b600052604160045260246000fd5b6040805190810167ffffffffffffffff81118282101715612e7457612e74612e3b565b60405290565b604051601f8201601f1916810167ffffffffffffffff81118282101715612ea357612ea3612e3b565b604052919050565b600082601f830112612ebc57600080fd5b813567ffffffffffffffff811115612ed657612ed6612e3b565b612ee9601f8201601f1916602001612e7a565b818152846020838601011115612efe57600080fd5b816020850160208301376000918101602001919091529392505050565b60008060008060808587031215612f3157600080fd5b8435612f3c81612e26565b93506020850135612f4c81612e26565b925060408501359150606085013567ffffffffffffffff811115612f6f57600080fd5b612f7b87828801612eab565b91505092959194509250565b8015158114610df757600080fd5b600080600060608486031215612faa57600080fd5b83359250602084013591506040840135612fc381612f87565b809150509250925092565b60008060408385031215612fe157600080fd5b50508035926020909101359150565b60006020828403121561300257600080fd5b5035919050565b60006020828403121561301b57600080fd5b8135611f3081612e26565b6000806040838503121561303957600080fd5b823561304481612e26565b9150602083013567ffffffffffffffff81111561306057600080fd5b61306c85828601612eab565b9150509250929050565b600080600080600060a0868803121561308e57600080fd5b853561309981612e26565b945060208601359350604086013592506060860135915060808601356130be81612e26565b809150509295509295909350565b600080604083850312156130df57600080fd5b82356130ea81612e26565b915060208301356130fa81612e26565b809150509250929050565b602080825282518282018190526000919060409081850190868401855b828110156131615761315184835180516001600160a01b031682526020908101516001600160601b0316910152565b9284019290850190600101613122565b5091979650505050505050565b6000806000806080858703121561318457600080fd5b843561318f81612e26565b9350602085013561319f81612e26565b93969395505050506040820135916060013590565b600080604083850312156131c757600080fd5b8235915060208301356130fa81612f87565b600080604083850312156131ec57600080fd5b82356131f781612e26565b946020939093013593505050565b6000806000806080858703121561321b57600080fd5b843561322681612e26565b93506020850135925060408501359150606085013561324481612e26565b939692955090935050565b60008060006060848603121561326457600080fd5b833561326f81612e26565b9250602084013561327f81612e26565b91506040840135612fc381612e26565b634e487b7160e01b600052603260045260246000fd5b600081518084526020808501945080840160005b838110156132fb576132e887835180516001600160a01b031682526020908101516001600160601b0316910152565b60409690960195908201906001016132b9565b509495945050505050565b86815285602082015260c06040820152600061332560c08301876132a5565b828103606084015261333781876132a5565b6001600160a01b0395861660808501529390941660a0909201919091525095945050505050565b6001600160a01b039384168152919092166020820152604081019190915260600190565b60006020828403121561339457600080fd5b8151611f3081612e26565b6020808252602c908201527f46756e6374696f6e206d7573742062652063616c6c6564207468726f7567682060408201526b19195b1959d85d1958d85b1b60a21b606082015260800190565b6020808252602c908201527f46756e6374696f6e206d7573742062652063616c6c6564207468726f7567682060408201526b6163746976652070726f787960a01b606082015260800190565b60006020828403121561344957600080fd5b8151611f3081612f87565b634e487b7160e01b600052601160045260246000fd5b60008282101561347c5761347c613454565b500390565b6020808252601c908201527f4f6e6c7920746f6b656e206f776e65722063616e206578656375746500000000604082015260600190565b600082198211156134cb576134cb613454565b500190565b6000602082840312156134e257600080fd5b5051919050565b600060208083850312156134fc57600080fd5b825167ffffffffffffffff8082111561351457600080fd5b818501915085601f83011261352857600080fd5b81518181111561353a5761353a612e3b565b613548848260051b01612e7a565b818152848101925060069190911b83018401908782111561356857600080fd5b928401925b818410156135cb57604084890312156135865760008081fd5b61358e612e51565b845161359981612e26565b8152848601516001600160601b03811681146135b55760008081fd5b818701528352604093909301929184019161356d565b979650505050505050565b8581526001600160a01b0385811660208301528416604082015260a060608201819052600090613608908301856132a5565b828103608084015261361a81856132a5565b98975050505050505050565b6020808252602b908201527f496e697469616c697a61626c653a20636f6e7472616374206973206e6f74206960408201526a6e697469616c697a696e6760a81b606082015260800190565b60005b8381101561368c578181015183820152602001613674565b838111156126fd5750506000910152565b600082516136af818460208701613671565b9190910192915050565b60208152600082518060208401526136d8816040850160208701613671565b601f01601f1916919091016040019291505056fe360894a13ba1a3210667c828492db98dca3e2076cc3735a920a3ca505d382bbc416464726573733a206c6f772d6c6576656c2064656c65676174652063616c6c206661696c6564a2646970667358221220dae46f201c9f5ea357311f9f8b6f6f4d31d22a614818a5e1400ab3caf0911e2864736f6c634300080b0033","linkReferences":{"contracts/Libraries/LibMarket.sol":{"LibMarket":[{"start":2398,"length":20},{"start":2963,"length":20},{"start":4203,"length":20},{"start":7745,"length":20},{"start":7860,"length":20}]}}},"methodIdentifiers":{"Bid(uint256,uint256)":"47a0375b","Bids(uint256,uint256)":"a7f323da","BuyNFT(uint256,bool)":"75746bcd","SellNFT_byBid(address,uint256,uint256,uint256,address)":"56d9c6a1","_swaps(uint256)":"c073b472","_tokenMeta(uint256)":"8e57ff16","acceptSwapRequest(uint256)":"2eee5614","cancelSale(uint256)":"bd94b005","cancelSwap(uint256)":"54d6a2b7","collectionFactoryAddress()":"401f8c7a","editSalePrice(uint256,uint256)":"bfb9639d","executeBidOrder(uint256,uint256,bool)":"2bc09e77","getCollectionRoyalty(address,address)":"625c44fe","getCollectionValidatorRoyalty(address,uint256)":"86dc814b","initialize(address,address,address)":"c0c53b8b","makeSwapRequest(address,address,uint256,uint256)":"6a7ca327","onERC721Received(address,address,uint256,bytes)":"150b7a02","owner()":"8da5cb5b","pause()":"8456cb59","paused()":"5c975abb","piNFTMethodsAddress()":"e0177934","proxiableUUID()":"52d1902d","renounceOwnership()":"715018a6","retrieveRoyalty(address,uint256)":"96faba9d","retrieveValidatorRoyalty(address,uint256)":"ca87ad30","sellNFT(address,uint256,uint256,address)":"98f748bd","transferOwnership(address)":"f2fde38b","unpause()":"3f4ba83a","upgradeTo(address)":"3659cfe6","upgradeToAndCall(address,bytes)":"4f1ef286","withdrawBidMoney(uint256,uint256)":"2bd87c4f"},"id":18}