{"abi":[{"type":"constructor","inputs":[],"stateMutability":"nonpayable"},{"type":"function","name":"addTrustedForwarder","inputs":[{"name":"_tf","type":"address","internalType":"address"}],"outputs":[],"stateMutability":"nonpayable"},{"type":"function","name":"approve","inputs":[{"name":"to","type":"address","internalType":"address"},{"name":"tokenId","type":"uint256","internalType":"uint256"}],"outputs":[],"stateMutability":"nonpayable"},{"type":"function","name":"balanceOf","inputs":[{"name":"owner","type":"address","internalType":"address"}],"outputs":[{"name":"","type":"uint256","internalType":"uint256"}],"stateMutability":"view"},{"type":"function","name":"biconomyTrustedForwarder","inputs":[],"outputs":[{"name":"","type":"address","internalType":"address"}],"stateMutability":"view"},{"type":"function","name":"deleteNFT","inputs":[{"name":"_tokenId","type":"uint256","internalType":"uint256"}],"outputs":[],"stateMutability":"nonpayable"},{"type":"function","name":"deleteValidatorRoyalties","inputs":[{"name":"_tokenId","type":"uint256","internalType":"uint256"}],"outputs":[],"stateMutability":"nonpayable"},{"type":"function","name":"exists","inputs":[{"name":"_tokenId","type":"uint256","internalType":"uint256"}],"outputs":[{"name":"","type":"bool","internalType":"bool"}],"stateMutability":"view"},{"type":"function","name":"getApproved","inputs":[{"name":"tokenId","type":"uint256","internalType":"uint256"}],"outputs":[{"name":"","type":"address","internalType":"address"}],"stateMutability":"view"},{"type":"function","name":"getRoyalties","inputs":[{"name":"_tokenId","type":"uint256","internalType":"uint256"}],"outputs":[{"name":"","type":"tuple[]","internalType":"struct LibShare.Share[]","components":[{"name":"account","type":"address","internalType":"address payable"},{"name":"value","type":"uint96","internalType":"uint96"}]}],"stateMutability":"view"},{"type":"function","name":"getValidatorRoyalties","inputs":[{"name":"_tokenId","type":"uint256","internalType":"uint256"}],"outputs":[{"name":"","type":"tuple[]","internalType":"struct LibShare.Share[]","components":[{"name":"account","type":"address","internalType":"address payable"},{"name":"value","type":"uint96","internalType":"uint96"}]}],"stateMutability":"view"},{"type":"function","name":"initialize","inputs":[{"name":"_name","type":"string","internalType":"string"},{"name":"_symbol","type":"string","internalType":"string"},{"name":"_piNFTMethodsAddress","type":"address","internalType":"address"},{"name":"_biconomyTrustedForwarder","type":"address","internalType":"address"}],"outputs":[],"stateMutability":"nonpayable"},{"type":"function","name":"isApprovedForAll","inputs":[{"name":"owner","type":"address","internalType":"address"},{"name":"operator","type":"address","internalType":"address"}],"outputs":[{"name":"","type":"bool","internalType":"bool"}],"stateMutability":"view"},{"type":"function","name":"isTrustedForwarder","inputs":[{"name":"forwarder","type":"address","internalType":"address"}],"outputs":[{"name":"","type":"bool","internalType":"bool"}],"stateMutability":"view"},{"type":"function","name":"lazyMintNFT","inputs":[{"name":"_to","type":"address","internalType":"address"},{"name":"_uri","type":"string","internalType":"string"},{"name":"royalties","type":"tuple[]","internalType":"struct LibShare.Share[]","components":[{"name":"account","type":"address","internalType":"address payable"},{"name":"value","type":"uint96","internalType":"uint96"}]}],"outputs":[{"name":"","type":"uint256","internalType":"uint256"}],"stateMutability":"nonpayable"},{"type":"function","name":"mintNFT","inputs":[{"name":"_to","type":"address","internalType":"address"},{"name":"_uri","type":"string","internalType":"string"},{"name":"royalties","type":"tuple[]","internalType":"struct LibShare.Share[]","components":[{"name":"account","type":"address","internalType":"address payable"},{"name":"value","type":"uint96","internalType":"uint96"}]}],"outputs":[{"name":"","type":"uint256","internalType":"uint256"}],"stateMutability":"nonpayable"},{"type":"function","name":"name","inputs":[],"outputs":[{"name":"","type":"string","internalType":"string"}],"stateMutability":"view"},{"type":"function","name":"owner","inputs":[],"outputs":[{"name":"","type":"address","internalType":"address"}],"stateMutability":"view"},{"type":"function","name":"ownerOf","inputs":[{"name":"tokenId","type":"uint256","internalType":"uint256"}],"outputs":[{"name":"","type":"address","internalType":"address"}],"stateMutability":"view"},{"type":"function","name":"pause","inputs":[],"outputs":[],"stateMutability":"nonpayable"},{"type":"function","name":"paused","inputs":[],"outputs":[{"name":"","type":"bool","internalType":"bool"}],"stateMutability":"view"},{"type":"function","name":"piNFTMethodsAddress","inputs":[],"outputs":[{"name":"","type":"address","internalType":"address"}],"stateMutability":"view"},{"type":"function","name":"proxiableUUID","inputs":[],"outputs":[{"name":"","type":"bytes32","internalType":"bytes32"}],"stateMutability":"view"},{"type":"function","name":"removeTrustedForwarder","inputs":[{"name":"_tf","type":"address","internalType":"address"}],"outputs":[],"stateMutability":"nonpayable"},{"type":"function","name":"renounceOwnership","inputs":[],"outputs":[],"stateMutability":"nonpayable"},{"type":"function","name":"safeTransferFrom","inputs":[{"name":"from","type":"address","internalType":"address"},{"name":"to","type":"address","internalType":"address"},{"name":"tokenId","type":"uint256","internalType":"uint256"}],"outputs":[],"stateMutability":"nonpayable"},{"type":"function","name":"safeTransferFrom","inputs":[{"name":"from","type":"address","internalType":"address"},{"name":"to","type":"address","internalType":"address"},{"name":"tokenId","type":"uint256","internalType":"uint256"},{"name":"data","type":"bytes","internalType":"bytes"}],"outputs":[],"stateMutability":"nonpayable"},{"type":"function","name":"setApprovalForAll","inputs":[{"name":"operator","type":"address","internalType":"address"},{"name":"approved","type":"bool","internalType":"bool"}],"outputs":[],"stateMutability":"nonpayable"},{"type":"function","name":"setBiconomyTrustedForwarder","inputs":[{"name":"_biconomyForwarder","type":"address","internalType":"address"}],"outputs":[],"stateMutability":"nonpayable"},{"type":"function","name":"setRoyaltiesForValidator","inputs":[{"name":"_tokenId","type":"uint256","internalType":"uint256"},{"name":"_commission","type":"uint256","internalType":"uint256"},{"name":"royalties","type":"tuple[]","internalType":"struct LibShare.Share[]","components":[{"name":"account","type":"address","internalType":"address payable"},{"name":"value","type":"uint96","internalType":"uint96"}]}],"outputs":[],"stateMutability":"nonpayable"},{"type":"function","name":"supportsInterface","inputs":[{"name":"interfaceId","type":"bytes4","internalType":"bytes4"}],"outputs":[{"name":"","type":"bool","internalType":"bool"}],"stateMutability":"view"},{"type":"function","name":"symbol","inputs":[],"outputs":[{"name":"","type":"string","internalType":"string"}],"stateMutability":"view"},{"type":"function","name":"tokenURI","inputs":[{"name":"tokenId","type":"uint256","internalType":"uint256"}],"outputs":[{"name":"","type":"string","internalType":"string"}],"stateMutability":"view"},{"type":"function","name":"transferFrom","inputs":[{"name":"from","type":"address","internalType":"address"},{"name":"to","type":"address","internalType":"address"},{"name":"tokenId","type":"uint256","internalType":"uint256"}],"outputs":[],"stateMutability":"nonpayable"},{"type":"function","name":"transferOwnership","inputs":[{"name":"newOwner","type":"address","internalType":"address"}],"outputs":[],"stateMutability":"nonpayable"},{"type":"function","name":"trustedForwarders","inputs":[{"name":"","type":"address","internalType":"address"}],"outputs":[{"name":"","type":"bool","internalType":"bool"}],"stateMutability":"view"},{"type":"function","name":"unpause","inputs":[],"outputs":[],"stateMutability":"nonpayable"},{"type":"function","name":"upgradeTo","inputs":[{"name":"newImplementation","type":"address","internalType":"address"}],"outputs":[],"stateMutability":"nonpayable"},{"type":"function","name":"upgradeToAndCall","inputs":[{"name":"newImplementation","type":"address","internalType":"address"},{"name":"data","type":"bytes","internalType":"bytes"}],"outputs":[],"stateMutability":"payable"},{"type":"event","name":"AdminChanged","inputs":[{"name":"previousAdmin","type":"address","indexed":false,"internalType":"address"},{"name":"newAdmin","type":"address","indexed":false,"internalType":"address"}],"anonymous":false},{"type":"event","name":"Approval","inputs":[{"name":"owner","type":"address","indexed":true,"internalType":"address"},{"name":"approved","type":"address","indexed":true,"internalType":"address"},{"name":"tokenId","type":"uint256","indexed":true,"internalType":"uint256"}],"anonymous":false},{"type":"event","name":"ApprovalForAll","inputs":[{"name":"owner","type":"address","indexed":true,"internalType":"address"},{"name":"operator","type":"address","indexed":true,"internalType":"address"},{"name":"approved","type":"bool","indexed":false,"internalType":"bool"}],"anonymous":false},{"type":"event","name":"BeaconUpgraded","inputs":[{"name":"beacon","type":"address","indexed":true,"internalType":"address"}],"anonymous":false},{"type":"event","name":"Initialized","inputs":[{"name":"version","type":"uint8","indexed":false,"internalType":"uint8"}],"anonymous":false},{"type":"event","name":"OwnershipTransferred","inputs":[{"name":"previousOwner","type":"address","indexed":true,"internalType":"address"},{"name":"newOwner","type":"address","indexed":true,"internalType":"address"}],"anonymous":false},{"type":"event","name":"Paused","inputs":[{"name":"account","type":"address","indexed":false,"internalType":"address"}],"anonymous":false},{"type":"event","name":"RoyaltiesSetForTokenId","inputs":[{"name":"tokenId","type":"uint256","indexed":true,"internalType":"uint256"},{"name":"royalties","type":"tuple[]","indexed":false,"internalType":"struct LibShare.Share[]","components":[{"name":"account","type":"address","internalType":"address payable"},{"name":"value","type":"uint96","internalType":"uint96"}]}],"anonymous":false},{"type":"event","name":"RoyaltiesSetForValidator","inputs":[{"name":"tokenId","type":"uint256","indexed":true,"internalType":"uint256"},{"name":"royalties","type":"tuple[]","indexed":false,"internalType":"struct LibShare.Share[]","components":[{"name":"account","type":"address","internalType":"address payable"},{"name":"value","type":"uint96","internalType":"uint96"}]}],"anonymous":false},{"type":"event","name":"TokenMinted","inputs":[{"name":"tokenId","type":"uint256","indexed":false,"internalType":"uint256"},{"name":"to","type":"address","indexed":false,"internalType":"address"}],"anonymous":false},{"type":"event","name":"Transfer","inputs":[{"name":"from","type":"address","indexed":true,"internalType":"address"},{"name":"to","type":"address","indexed":true,"internalType":"address"},{"name":"tokenId","type":"uint256","indexed":true,"internalType":"uint256"}],"anonymous":false},{"type":"event","name":"Unpaused","inputs":[{"name":"account","type":"address","indexed":false,"internalType":"address"}],"anonymous":false},{"type":"event","name":"Upgraded","inputs":[{"name":"implementation","type":"address","indexed":true,"internalType":"address"}],"anonymous":false}],"bytecode":{"object":"0x60a0604052306080523480156200001557600080fd5b506200002062000026565b620000e8565b600054610100900460ff1615620000935760405162461bcd60e51b815260206004820152602760248201527f496e697469616c697a61626c653a20636f6e747261637420697320696e697469604482015266616c697a696e6760c81b606482015260840160405180910390fd5b60005460ff9081161015620000e6576000805460ff191660ff9081179091556040519081527f7f26b83ff96e1f2b6a682f133852f6798a09c465da95921460cefb38474024989060200160405180910390a15b565b6080516134986200012060003960008181610a9301528181610ad301528181610e4301528181610e830152610f3501526134986000f3fe6080604052600436106102255760003560e01c8063572b6c0511610123578063a22cb465116100ab578063e807f3b61161006f578063e807f3b614610349578063e985e9c514610676578063ee53b6a9146106bf578063f2fde38b146106df578063f687ed57146106ff57600080fd5b8063a22cb465146105d5578063b88d4fde146105f5578063bb3bafd614610615578063c87b56dd14610635578063e01779341461065557600080fd5b8063715018a6116100f2578063715018a6146105575780638456cb591461056c5780638da5cb5b146105815780638f15b414146105a057806395d89b41146105c057600080fd5b8063572b6c05146104c55780635c975abb146104ff5780636352211e1461051757806370a082311461053757600080fd5b80633659cfe6116101b157806345913fe91161017557806345913fe91461042c5780634f1ef2861461044c5780634f558e791461045f57806352d1902d1461047f57806354776bb91461049457600080fd5b80633659cfe6146103975780633751d89c146103b7578063391601dc146103d75780633f4ba83a146103f757806342842e0e1461040c57600080fd5b8063095ea7b3116101f8578063095ea7b3146102e657806310bbf4781461030857806323b872dd1461032957806326d00668146103495780632b6bd16c1461036957600080fd5b806301ffc9a71461022a57806302b421411461025f57806306fdde031461028c578063081812fc146102ae575b600080fd5b34801561023657600080fd5b5061024a610245366004612b17565b61071f565b60405190151581526020015b60405180910390f35b34801561026b57600080fd5b5061027f61027a366004612b34565b610771565b6040516102569190612b4d565b34801561029857600080fd5b506102a1610801565b6040516102569190612c06565b3480156102ba57600080fd5b506102ce6102c9366004612b34565b610893565b6040516001600160a01b039091168152602001610256565b3480156102f257600080fd5b50610306610301366004612c2e565b6108ba565b005b34801561031457600080fd5b506101c6546102ce906001600160a01b031681565b34801561033557600080fd5b50610306610344366004612c5a565b6109e7565b34801561035557600080fd5b50610306610364366004612c9b565b610a1f565b34801561037557600080fd5b50610389610384366004612e5b565b610a4c565b604051908152602001610256565b3480156103a357600080fd5b506103066103b2366004612c9b565b610a88565b3480156103c357600080fd5b506103066103d2366004612c9b565b610b68565b3480156103e357600080fd5b506103066103f2366004612b34565b610b92565b34801561040357600080fd5b50610306610bef565b34801561041857600080fd5b50610306610427366004612c5a565b610c01565b34801561043857600080fd5b50610306610447366004612ed1565b610c1c565b61030661045a366004612f17565b610e38565b34801561046b57600080fd5b5061024a61047a366004612b34565b610f09565b34801561048b57600080fd5b50610389610f28565b3480156104a057600080fd5b5061024a6104af366004612c9b565b61015f6020526000908152604090205460ff1681565b3480156104d157600080fd5b5061024a6104e0366004612c9b565b6001600160a01b0316600090815261015f602052604090205460ff1690565b34801561050b57600080fd5b5060fb5460ff1661024a565b34801561052357600080fd5b506102ce610532366004612b34565b610fdb565b34801561054357600080fd5b50610389610552366004612c9b565b61103b565b34801561056357600080fd5b506103066110c1565b34801561057857600080fd5b506103066110d3565b34801561058d57600080fd5b5061012d546001600160a01b03166102ce565b3480156105ac57600080fd5b506103066105bb366004612f67565b6110e3565b3480156105cc57600080fd5b506102a161124d565b3480156105e157600080fd5b506103066105f0366004612ff0565b61125c565b34801561060157600080fd5b5061030661061036600461302e565b61126e565b34801561062157600080fd5b5061027f610630366004612b34565b6112ad565b34801561064157600080fd5b506102a1610650366004612b34565b611328565b34801561066157600080fd5b506101c5546102ce906001600160a01b031681565b34801561068257600080fd5b5061024a61069136600461309a565b6001600160a01b039182166000908152606a6020908152604080832093909416825291909152205460ff1690565b3480156106cb57600080fd5b506103896106da366004612e5b565b611439565b3480156106eb57600080fd5b506103066106fa366004612c9b565b6114da565b34801561070b57600080fd5b5061030661071a366004612b34565b611550565b60006001600160e01b031982166380ac58cd60e01b148061075057506001600160e01b03198216635b5e139f60e01b145b8061076b57506301ffc9a760e01b6001600160e01b03198316145b92915050565b60606101c86000838152602001908152602001600020805480602002602001604051908101604052809291908181526020016000905b828210156107f657600084815260209081902060408051808201909152908401546001600160a01b0381168252600160a01b90046001600160601b0316818301528252600190920191016107a7565b505050509050919050565b606060658054610810906130c8565b80601f016020809104026020016040519081016040528092919081815260200182805461083c906130c8565b80156108895780601f1061085e57610100808354040283529160200191610889565b820191906000526020600020905b81548152906001019060200180831161086c57829003601f168201915b5050505050905090565b600061089e82611618565b506000908152606960205260409020546001600160a01b031690565b60006108c582610fdb565b9050806001600160a01b0316836001600160a01b031614156109385760405162461bcd60e51b815260206004820152602160248201527f4552433732313a20617070726f76616c20746f2063757272656e74206f776e656044820152603960f91b60648201526084015b60405180910390fd5b806001600160a01b031661094a611677565b6001600160a01b03161480610966575061096681610691611677565b6109d85760405162461bcd60e51b815260206004820152603d60248201527f4552433732313a20617070726f76652063616c6c6572206973206e6f7420746f60448201527f6b656e206f776e6572206f7220617070726f76656420666f7220616c6c000000606482015260840161092f565b6109e28383611686565b505050565b6109f86109f2611677565b826116f4565b610a145760405162461bcd60e51b815260040161092f90613103565b6109e2838383611772565b610a276118d6565b6001600160a01b0316600090815261015f60205260409020805460ff19166001179055565b6000610a56611950565b33600090815261015f602052604090205460ff16610a7357600080fd5b610a7e848484611439565b90505b9392505050565b306001600160a01b037f0000000000000000000000000000000000000000000000000000000000000000161415610ad15760405162461bcd60e51b815260040161092f90613150565b7f00000000000000000000000000000000000000000000000000000000000000006001600160a01b0316610b1a60008051602061341c833981519152546001600160a01b031690565b6001600160a01b031614610b405760405162461bcd60e51b815260040161092f9061319c565b610b4981611996565b60408051600080825260208201909252610b659183919061199e565b50565b610b706118d6565b6001600160a01b0316600090815261015f60205260409020805460ff19169055565b6101c5546001600160a01b03163314610bd75760405162461bcd60e51b81526020600482015260076024820152666d6574686f647360c81b604482015260640161092f565b60008181526101c860205260408120610b6591612a14565b610bf76118d6565b610bff611b09565b565b6109e28383836040518060200160405280600081525061126e565b6101c5546001600160a01b03163314610c615760405162461bcd60e51b81526020600482015260076024820152666d6574686f647360c81b604482015260640161092f565b600a81511115610c7057600080fd5b60008381526101c860205260408120610c8891612a14565b6000805b8251811015610db35760006001600160a01b0316838281518110610cb257610cb26131e8565b6020026020010151600001516001600160a01b03161415610cd257600080fd5b828181518110610ce457610ce46131e8565b6020026020010151602001516001600160601b031660001415610d0657600080fd5b60008581526101c8602052604090208351849083908110610d2957610d296131e8565b6020908102919091018101518254600181018455600093845292829020815191909201516001600160601b0316600160a01b026001600160a01b03909116179101558251839082908110610d7f57610d7f6131e8565b6020026020010151602001516001600160601b031682610d9f9190613214565b915080610dab8161322c565b915050610c8c565b50610dc083611324613247565b811115610dfa5760405162461bcd60e51b81526020600482015260086024820152676f766572666c6f7760c01b604482015260640161092f565b837f4da18660b3a4505d8ad0b58514556847831a94cc0306b9de276aa372df45d47183604051610e2a9190612b4d565b60405180910390a250505050565b306001600160a01b037f0000000000000000000000000000000000000000000000000000000000000000161415610e815760405162461bcd60e51b815260040161092f90613150565b7f00000000000000000000000000000000000000000000000000000000000000006001600160a01b0316610eca60008051602061341c833981519152546001600160a01b031690565b6001600160a01b031614610ef05760405162461bcd60e51b815260040161092f9061319c565b610ef982611996565b610f058282600161199e565b5050565b6000818152606760205260408120546001600160a01b0316151561076b565b6000306001600160a01b037f00000000000000000000000000000000000000000000000000000000000000001614610fc85760405162461bcd60e51b815260206004820152603860248201527f555550535570677261646561626c653a206d757374206e6f742062652063616c60448201527f6c6564207468726f7567682064656c656761746563616c6c0000000000000000606482015260840161092f565b5060008051602061341c83398151915290565b6000818152606760205260408120546001600160a01b03168061076b5760405162461bcd60e51b8152602060048201526018602482015277115490cdcc8c4e881a5b9d985b1a59081d1bdad95b88125160421b604482015260640161092f565b60006001600160a01b0382166110a55760405162461bcd60e51b815260206004820152602960248201527f4552433732313a2061646472657373207a65726f206973206e6f7420612076616044820152683634b21037bbb732b960b91b606482015260840161092f565b506001600160a01b031660009081526068602052604090205490565b6110c96118d6565b610bff6000611b61565b6110db6118d6565b610bff611bb4565b600054610100900460ff16158080156111035750600054600160ff909116105b8061111d5750303b15801561111d575060005460ff166001145b6111805760405162461bcd60e51b815260206004820152602e60248201527f496e697469616c697a61626c653a20636f6e747261637420697320616c72656160448201526d191e481a5b9a5d1a585b1a5e995960921b606482015260840161092f565b6000805460ff1916600117905580156111a3576000805461ff0019166101001790555b6111ad8585611bf2565b6111b682611c23565b6111be611c76565b6111c6611c9d565b6111ce611ccc565b6101c580546001600160a01b038086166001600160a01b0319928316179092556101c68054928516929091169190911790558015611246576000805461ff0019169055604051600181527f7f26b83ff96e1f2b6a682f133852f6798a09c465da95921460cefb38474024989060200160405180910390a15b5050505050565b606060668054610810906130c8565b610f05611267611677565b8383611cfb565b61127f611279611677565b836116f4565b61129b5760405162461bcd60e51b815260040161092f90613103565b6112a784848484611dca565b50505050565b60008181526101c7602090815260408083208054825181850281018501909352808352606094929391929091840182156107f657600084815260209081902060408051808201909152908401546001600160a01b0381168252600160a01b90046001600160601b0316818301528252600190920191016107a7565b606061133382611618565b6000828152609760205260408120805461134c906130c8565b80601f0160208091040260200160405190810160405280929190818152602001828054611378906130c8565b80156113c55780601f1061139a576101008083540402835291602001916113c5565b820191906000526020600020905b8154815290600101906020018083116113a857829003601f168201915b5050505050905060006113e360408051602081019091526000815290565b90508051600014156113f6575092915050565b81511561142857808260405160200161141092919061325e565b60405160208183030381529060405292505050919050565b61143184611dfd565b949350505050565b6000611443611950565b6001600160a01b03841661145657600080fd5b60006114626101c45490565b905061146e8184611e70565b611478858261203d565b6114828185612057565b6114916101c480546001019055565b604080518281526001600160a01b03871660208201527f3a5398bda6f1f57d6c96834fa9bf02b5517bdc847d14312015a917ba421c31c9910160405180910390a1949350505050565b6114e26118d6565b6001600160a01b0381166115475760405162461bcd60e51b815260206004820152602660248201527f4f776e61626c653a206e6577206f776e657220697320746865207a65726f206160448201526564647265737360d01b606482015260840161092f565b610b6581611b61565b611558611950565b6115606120f1565b6101c55460405163a7aed60560e01b8152306004820152602481018390526000916001600160a01b03169063a7aed60590604401602060405180830381865afa1580156115b1573d6000803e3d6000fd5b505050506040513d601f19601f820116820180604052508101906115d5919061328d565b6001600160a01b0316146115e857600080fd5b336115f282610fdb565b6001600160a01b03161461160557600080fd5b61160e8161214b565b610b65600160c955565b6000818152606760205260409020546001600160a01b0316610b655760405162461bcd60e51b8152602060048201526018602482015277115490cdcc8c4e881a5b9d985b1a59081d1bdad95b88125160421b604482015260640161092f565b6000611681612192565b905090565b600081815260696020526040902080546001600160a01b0319166001600160a01b03841690811790915581906116bb82610fdb565b6001600160a01b03167f8c5be1e5ebec7d5bd14f71427d1e84f3dd0314c0f7b2291e5b200ac8c7c3b92560405160405180910390a45050565b60008061170083610fdb565b9050806001600160a01b0316846001600160a01b0316148061174757506001600160a01b038082166000908152606a602090815260408083209388168352929052205460ff165b806114315750836001600160a01b031661176084610893565b6001600160a01b031614949350505050565b826001600160a01b031661178582610fdb565b6001600160a01b0316146117ab5760405162461bcd60e51b815260040161092f906132aa565b6001600160a01b03821661180d5760405162461bcd60e51b8152602060048201526024808201527f4552433732313a207472616e7366657220746f20746865207a65726f206164646044820152637265737360e01b606482015260840161092f565b826001600160a01b031661182082610fdb565b6001600160a01b0316146118465760405162461bcd60e51b815260040161092f906132aa565b600081815260696020908152604080832080546001600160a01b03199081169091556001600160a01b0387811680865260688552838620805460001901905590871680865283862080546001019055868652606790945282852080549092168417909155905184937fddf252ad1be2c89b69c2b068fc378daa952ba7f163c4a11628f55a4df523b3ef91a4505050565b6118de611677565b6001600160a01b03166118fa61012d546001600160a01b031690565b6001600160a01b031614610bff5760405162461bcd60e51b815260206004820181905260248201527f4f776e61626c653a2063616c6c6572206973206e6f7420746865206f776e6572604482015260640161092f565b60fb5460ff1615610bff5760405162461bcd60e51b815260206004820152601060248201526f14185d5cd8589b194e881c185d5cd95960821b604482015260640161092f565b610b656118d6565b7f4910fdfa16fed3260ed0e7147f7cc6da11a60208b5b9406d12a635614ffd91435460ff16156119d1576109e2836121bd565b826001600160a01b03166352d1902d6040518163ffffffff1660e01b8152600401602060405180830381865afa925050508015611a2b575060408051601f3d908101601f19168201909252611a28918101906132ef565b60015b611a8e5760405162461bcd60e51b815260206004820152602e60248201527f45524331393637557067726164653a206e657720696d706c656d656e7461746960448201526d6f6e206973206e6f74205555505360901b606482015260840161092f565b60008051602061341c8339815191528114611afd5760405162461bcd60e51b815260206004820152602960248201527f45524331393637557067726164653a20756e737570706f727465642070726f786044820152681a58589b195555525160ba1b606482015260840161092f565b506109e2838383612259565b611b1161227e565b60fb805460ff191690557f5db9ee0a495bf2e6ff9c91a7834c1ba4fdd244a5e8aa4e537bd38aeae4b073aa611b44611677565b6040516001600160a01b03909116815260200160405180910390a1565b61012d80546001600160a01b038381166001600160a01b0319831681179093556040519116919082907f8be0079c531659141344cd1fd0a4f28419497f9722a3daafe3b4186f6b6457e090600090a35050565b611bbc611950565b60fb805460ff191660011790557f62e78cea01bee320cd4e420270b5ea74000d11b0c9f74754ebdbfc544b05a258611b44611677565b600054610100900460ff16611c195760405162461bcd60e51b815260040161092f90613308565b610f0582826122c7565b600054610100900460ff16611c4a5760405162461bcd60e51b815260040161092f90613308565b6001600160a01b038116600090815261015f60205260409020805460ff19166001179055610b65612315565b600054610100900460ff16610bff5760405162461bcd60e51b815260040161092f90613308565b600054610100900460ff16611cc45760405162461bcd60e51b815260040161092f90613308565b610bff612344565b600054610100900460ff16611cf35760405162461bcd60e51b815260040161092f90613308565b610bff612377565b816001600160a01b0316836001600160a01b03161415611d5d5760405162461bcd60e51b815260206004820152601960248201527f4552433732313a20617070726f766520746f2063616c6c657200000000000000604482015260640161092f565b6001600160a01b038381166000818152606a6020908152604080832094871680845294825291829020805460ff191686151590811790915591519182527f17307eab39ab6107e8899845ad3d59bd9653f200f220920489ca2b5937696c31910160405180910390a3505050565b611dd5848484611772565b611de18484848461239e565b6112a75760405162461bcd60e51b815260040161092f90613353565b6060611e0882611618565b6000611e1f60408051602081019091526000815290565b90506000815111611e3f5760405180602001604052806000815250610a81565b80611e49846124a3565b604051602001611e5a92919061325e565b6040516020818303038152906040529392505050565b600a81511115611e7f57600080fd5b60008281526101c760205260408120611e9791612a14565b6000805b8251811015611fc25760006001600160a01b0316838281518110611ec157611ec16131e8565b6020026020010151600001516001600160a01b03161415611ee157600080fd5b828181518110611ef357611ef36131e8565b6020026020010151602001516001600160601b031660001415611f1557600080fd5b60008481526101c7602052604090208351849083908110611f3857611f386131e8565b6020908102919091018101518254600181018455600093845292829020815191909201516001600160601b0316600160a01b026001600160a01b03909116179101558251839082908110611f8e57611f8e6131e8565b6020026020010151602001516001600160601b031682611fae9190613214565b915080611fba8161322c565b915050611e9b565b506113248111156120005760405162461bcd60e51b81526020600482015260086024820152676f766572666c6f7760c01b604482015260640161092f565b827fe23425cf56a81561c420f592eb54f21107c562f26c8c78c4a20d26920d244e66836040516120309190612b4d565b60405180910390a2505050565b610f05828260405180602001604052806000815250612540565b6000828152606760205260409020546001600160a01b03166120d25760405162461bcd60e51b815260206004820152602e60248201527f45524337323155524953746f726167653a2055524920736574206f66206e6f6e60448201526d32bc34b9ba32b73a103a37b5b2b760911b606482015260840161092f565b600082815260976020908152604090912082516109e292840190612a32565b600260c95414156121445760405162461bcd60e51b815260206004820152601f60248201527f5265656e7472616e637947756172643a207265656e7472616e742063616c6c00604482015260640161092f565b600260c955565b61215481612573565b6000818152609760205260409020805461216d906130c8565b159050610b65576000818152609760205260408120610b6591612ab6565b600160c955565b33600090815261015f602052604081205460ff16156121b8575060131936013560601c90565b503390565b6001600160a01b0381163b61222a5760405162461bcd60e51b815260206004820152602d60248201527f455243313936373a206e657720696d706c656d656e746174696f6e206973206e60448201526c1bdd08184818dbdb9d1c9858dd609a1b606482015260840161092f565b60008051602061341c83398151915280546001600160a01b0319166001600160a01b0392909216919091179055565b61226283612608565b60008251118061226f5750805b156109e2576112a78383612648565b60fb5460ff16610bff5760405162461bcd60e51b815260206004820152601460248201527314185d5cd8589b194e881b9bdd081c185d5cd95960621b604482015260640161092f565b600054610100900460ff166122ee5760405162461bcd60e51b815260040161092f90613308565b8151612301906065906020850190612a32565b5080516109e2906066906020840190612a32565b600054610100900460ff1661233c5760405162461bcd60e51b815260040161092f90613308565b610bff61273c565b600054610100900460ff1661236b5760405162461bcd60e51b815260040161092f90613308565b60fb805460ff19169055565b600054610100900460ff1661218b5760405162461bcd60e51b815260040161092f90613308565b60006001600160a01b0384163b1561249857836001600160a01b031663150b7a026123c7611677565b8786866040518563ffffffff1660e01b81526004016123e994939291906133a5565b6020604051808303816000875af1925050508015612424575060408051601f3d908101601f19168201909252612421918101906133e2565b60015b61247e573d808015612452576040519150601f19603f3d011682016040523d82523d6000602084013e612457565b606091505b5080516124765760405162461bcd60e51b815260040161092f90613353565b805181602001fd5b6001600160e01b031916630a85bd0160e11b149050611431565b506001949350505050565b606060006124b083612773565b600101905060008167ffffffffffffffff8111156124d0576124d0612cb8565b6040519080825280601f01601f1916602001820160405280156124fa576020820181803683370190505b5090508181016020015b600019016f181899199a1a9b1b9c1cb0b131b232b360811b600a86061a8153600a850494508461253357612538565b612504565b509392505050565b61254a838361284b565b612557600084848461239e565b6109e25760405162461bcd60e51b815260040161092f90613353565b600061257e82610fdb565b905061258982610fdb565b600083815260696020908152604080832080546001600160a01b03199081169091556001600160a01b0385168085526068845282852080546000190190558785526067909352818420805490911690555192935084927fddf252ad1be2c89b69c2b068fc378daa952ba7f163c4a11628f55a4df523b3ef908390a45050565b612611816121bd565b6040516001600160a01b038216907fbc7cd75a20ee27fd9adebab32041f755214dbc6bffa90cc0225b39da2e5c2d3b90600090a250565b60606001600160a01b0383163b6126b05760405162461bcd60e51b815260206004820152602660248201527f416464726573733a2064656c65676174652063616c6c20746f206e6f6e2d636f6044820152651b9d1c9858dd60d21b606482015260840161092f565b600080846001600160a01b0316846040516126cb91906133ff565b600060405180830381855af49150503d8060008114612706576040519150601f19603f3d011682016040523d82523d6000602084013e61270b565b606091505b5091509150612733828260405180606001604052806027815260200161343c602791396129d6565b95945050505050565b600054610100900460ff166127635760405162461bcd60e51b815260040161092f90613308565b610bff61276e611677565b611b61565b60008072184f03e93ff9f4daa797ed6e38ed64bf6a1f0160401b83106127b25772184f03e93ff9f4daa797ed6e38ed64bf6a1f0160401b830492506040015b6d04ee2d6d415b85acef810000000083106127de576d04ee2d6d415b85acef8100000000830492506020015b662386f26fc1000083106127fc57662386f26fc10000830492506010015b6305f5e1008310612814576305f5e100830492506008015b612710831061282857612710830492506004015b6064831061283a576064830492506002015b600a831061076b5760010192915050565b6001600160a01b0382166128a15760405162461bcd60e51b815260206004820181905260248201527f4552433732313a206d696e7420746f20746865207a65726f2061646472657373604482015260640161092f565b6000818152606760205260409020546001600160a01b0316156129065760405162461bcd60e51b815260206004820152601c60248201527f4552433732313a20746f6b656e20616c7265616479206d696e74656400000000604482015260640161092f565b6000818152606760205260409020546001600160a01b03161561296b5760405162461bcd60e51b815260206004820152601c60248201527f4552433732313a20746f6b656e20616c7265616479206d696e74656400000000604482015260640161092f565b6001600160a01b038216600081815260686020908152604080832080546001019055848352606790915280822080546001600160a01b0319168417905551839291907fddf252ad1be2c89b69c2b068fc378daa952ba7f163c4a11628f55a4df523b3ef908290a45050565b606083156129e5575081610a81565b610a8183838151156129fa5781518083602001fd5b8060405162461bcd60e51b815260040161092f9190612c06565b5080546000825590600052602060002090810190610b659190612aec565b828054612a3e906130c8565b90600052602060002090601f016020900481019282612a605760008555612aa6565b82601f10612a7957805160ff1916838001178555612aa6565b82800160010185558215612aa6579182015b82811115612aa6578251825591602001919060010190612a8b565b50612ab2929150612aec565b5090565b508054612ac2906130c8565b6000825580601f10612ad2575050565b601f016020900490600052602060002090810190610b6591905b5b80821115612ab25760008155600101612aed565b6001600160e01b031981168114610b6557600080fd5b600060208284031215612b2957600080fd5b8135610a8181612b01565b600060208284031215612b4657600080fd5b5035919050565b602080825282518282018190526000919060409081850190868401855b82811015612ba157815180516001600160a01b031685528601516001600160601b0316868501529284019290850190600101612b6a565b5091979650505050505050565b60005b83811015612bc9578181015183820152602001612bb1565b838111156112a75750506000910152565b60008151808452612bf2816020860160208601612bae565b601f01601f19169290920160200192915050565b602081526000610a816020830184612bda565b6001600160a01b0381168114610b6557600080fd5b60008060408385031215612c4157600080fd5b8235612c4c81612c19565b946020939093013593505050565b600080600060608486031215612c6f57600080fd5b8335612c7a81612c19565b92506020840135612c8a81612c19565b929592945050506040919091013590565b600060208284031215612cad57600080fd5b8135610a8181612c19565b634e487b7160e01b600052604160045260246000fd5b6040805190810167ffffffffffffffff81118282101715612cf157612cf1612cb8565b60405290565b604051601f8201601f1916810167ffffffffffffffff81118282101715612d2057612d20612cb8565b604052919050565b600082601f830112612d3957600080fd5b813567ffffffffffffffff811115612d5357612d53612cb8565b612d66601f8201601f1916602001612cf7565b818152846020838601011115612d7b57600080fd5b816020850160208301376000918101602001919091529392505050565b600082601f830112612da957600080fd5b8135602067ffffffffffffffff821115612dc557612dc5612cb8565b612dd3818360051b01612cf7565b82815260069290921b84018101918181019086841115612df257600080fd5b8286015b84811015612e505760408189031215612e0f5760008081fd5b612e17612cce565b8135612e2281612c19565b8152818501356001600160601b0381168114612e3e5760008081fd5b81860152835291830191604001612df6565b509695505050505050565b600080600060608486031215612e7057600080fd5b8335612e7b81612c19565b9250602084013567ffffffffffffffff80821115612e9857600080fd5b612ea487838801612d28565b93506040860135915080821115612eba57600080fd5b50612ec786828701612d98565b9150509250925092565b600080600060608486031215612ee657600080fd5b8335925060208401359150604084013567ffffffffffffffff811115612f0b57600080fd5b612ec786828701612d98565b60008060408385031215612f2a57600080fd5b8235612f3581612c19565b9150602083013567ffffffffffffffff811115612f5157600080fd5b612f5d85828601612d28565b9150509250929050565b60008060008060808587031215612f7d57600080fd5b843567ffffffffffffffff80821115612f9557600080fd5b612fa188838901612d28565b95506020870135915080821115612fb757600080fd5b50612fc487828801612d28565b9350506040850135612fd581612c19565b91506060850135612fe581612c19565b939692955090935050565b6000806040838503121561300357600080fd5b823561300e81612c19565b91506020830135801515811461302357600080fd5b809150509250929050565b6000806000806080858703121561304457600080fd5b843561304f81612c19565b9350602085013561305f81612c19565b925060408501359150606085013567ffffffffffffffff81111561308257600080fd5b61308e87828801612d28565b91505092959194509250565b600080604083850312156130ad57600080fd5b82356130b881612c19565b9150602083013561302381612c19565b600181811c908216806130dc57607f821691505b602082108114156130fd57634e487b7160e01b600052602260045260246000fd5b50919050565b6020808252602d908201527f4552433732313a2063616c6c6572206973206e6f7420746f6b656e206f776e6560408201526c1c881bdc88185c1c1c9bdd9959609a1b606082015260800190565b6020808252602c908201527f46756e6374696f6e206d7573742062652063616c6c6564207468726f7567682060408201526b19195b1959d85d1958d85b1b60a21b606082015260800190565b6020808252602c908201527f46756e6374696f6e206d7573742062652063616c6c6564207468726f7567682060408201526b6163746976652070726f787960a01b606082015260800190565b634e487b7160e01b600052603260045260246000fd5b634e487b7160e01b600052601160045260246000fd5b60008219821115613227576132276131fe565b500190565b6000600019821415613240576132406131fe565b5060010190565b600082821015613259576132596131fe565b500390565b60008351613270818460208801612bae565b835190830190613284818360208801612bae565b01949350505050565b60006020828403121561329f57600080fd5b8151610a8181612c19565b60208082526025908201527f4552433732313a207472616e736665722066726f6d20696e636f72726563742060408201526437bbb732b960d91b606082015260800190565b60006020828403121561330157600080fd5b5051919050565b6020808252602b908201527f496e697469616c697a61626c653a20636f6e7472616374206973206e6f74206960408201526a6e697469616c697a696e6760a81b606082015260800190565b60208082526032908201527f4552433732313a207472616e7366657220746f206e6f6e20455243373231526560408201527131b2b4bb32b91034b6b83632b6b2b73a32b960711b606082015260800190565b6001600160a01b03858116825284166020820152604081018390526080606082018190526000906133d890830184612bda565b9695505050505050565b6000602082840312156133f457600080fd5b8151610a8181612b01565b60008251613411818460208701612bae565b919091019291505056fe360894a13ba1a3210667c828492db98dca3e2076cc3735a920a3ca505d382bbc416464726573733a206c6f772d6c6576656c2064656c65676174652063616c6c206661696c6564a2646970667358221220597529808a4bca267f17403b00098d1434c01d6dab8f6b8ae2d7d1bd55def8b264736f6c634300080b0033","linkReferences":{}},"methodIdentifiers":{"addTrustedForwarder(address)":"26d00668","approve(address,uint256)":"095ea7b3","balanceOf(address)":"70a08231","biconomyTrustedForwarder()":"10bbf478","deleteNFT(uint256)":"f687ed57","deleteValidatorRoyalties(uint256)":"391601dc","exists(uint256)":"4f558e79","getApproved(uint256)":"081812fc","getRoyalties(uint256)":"bb3bafd6","getValidatorRoyalties(uint256)":"02b42141","initialize(string,string,address,address)":"8f15b414","isApprovedForAll(address,address)":"e985e9c5","isTrustedForwarder(address)":"572b6c05","lazyMintNFT(address,string,(address,uint96)[])":"2b6bd16c","mintNFT(address,string,(address,uint96)[])":"ee53b6a9","name()":"06fdde03","owner()":"8da5cb5b","ownerOf(uint256)":"6352211e","pause()":"8456cb59","paused()":"5c975abb","piNFTMethodsAddress()":"e0177934","proxiableUUID()":"52d1902d","removeTrustedForwarder(address)":"3751d89c","renounceOwnership()":"715018a6","safeTransferFrom(address,address,uint256)":"42842e0e","safeTransferFrom(address,address,uint256,bytes)":"b88d4fde","setApprovalForAll(address,bool)":"a22cb465","setBiconomyTrustedForwarder(address)":"e807f3b6","setRoyaltiesForValidator(uint256,uint256,(address,uint96)[])":"45913fe9","supportsInterface(bytes4)":"01ffc9a7","symbol()":"95d89b41","tokenURI(uint256)":"c87b56dd","transferFrom(address,address,uint256)":"23b872dd","transferOwnership(address)":"f2fde38b","trustedForwarders(address)":"54776bb9","unpause()":"3f4ba83a","upgradeTo(address)":"3659cfe6","upgradeToAndCall(address,bytes)":"4f1ef286"},"id":19}