{"abi":[{"type":"constructor","inputs":[],"stateMutability":"nonpayable"},{"type":"function","name":"NFTowner","inputs":[{"name":"","type":"address","internalType":"address"},{"name":"","type":"uint256","internalType":"uint256"}],"outputs":[{"name":"","type":"address","internalType":"address"}],"stateMutability":"view"},{"type":"function","name":"Repay","inputs":[{"name":"_collectionAddress","type":"address","internalType":"address"},{"name":"_tokenId","type":"uint256","internalType":"uint256"},{"name":"_erc20Contract","type":"address","internalType":"address"},{"name":"_amount","type":"uint256","internalType":"uint256"}],"outputs":[],"stateMutability":"nonpayable"},{"type":"function","name":"addERC20","inputs":[{"name":"_collectionAddress","type":"address","internalType":"address"},{"name":"_tokenId","type":"uint256","internalType":"uint256"},{"name":"_erc20Contract","type":"address","internalType":"address"},{"name":"_value","type":"uint256","internalType":"uint256"},{"name":"_commission","type":"uint96","internalType":"uint96"},{"name":"royalties","type":"tuple[]","internalType":"struct LibShare.Share[]","components":[{"name":"account","type":"address","internalType":"address payable"},{"name":"value","type":"uint96","internalType":"uint96"}]}],"outputs":[],"stateMutability":"nonpayable"},{"type":"function","name":"addTrustedForwarder","inputs":[{"name":"_tf","type":"address","internalType":"address"}],"outputs":[],"stateMutability":"nonpayable"},{"type":"function","name":"addValidator","inputs":[{"name":"_collectionAddress","type":"address","internalType":"address"},{"name":"_tokenId","type":"uint256","internalType":"uint256"},{"name":"_validator","type":"address","internalType":"address"}],"outputs":[],"stateMutability":"nonpayable"},{"type":"function","name":"approvedValidator","inputs":[{"name":"","type":"address","internalType":"address"},{"name":"","type":"uint256","internalType":"uint256"}],"outputs":[{"name":"","type":"address","internalType":"address"}],"stateMutability":"view"},{"type":"function","name":"biconomyTrustedForwarder","inputs":[],"outputs":[{"name":"","type":"address","internalType":"address"}],"stateMutability":"view"},{"type":"function","name":"erc20Contracts","inputs":[{"name":"","type":"address","internalType":"address"},{"name":"","type":"uint256","internalType":"uint256"},{"name":"","type":"uint256","internalType":"uint256"}],"outputs":[{"name":"","type":"address","internalType":"address"}],"stateMutability":"view"},{"type":"function","name":"initialize","inputs":[{"name":"_biconomyTrustedForwarder","type":"address","internalType":"address"}],"outputs":[],"stateMutability":"nonpayable"},{"type":"function","name":"isTrustedForwarder","inputs":[{"name":"forwarder","type":"address","internalType":"address"}],"outputs":[{"name":"","type":"bool","internalType":"bool"}],"stateMutability":"view"},{"type":"function","name":"lazyAddValidator","inputs":[{"name":"_collectionAddress","type":"address","internalType":"address"},{"name":"_tokenId","type":"uint256","internalType":"uint256"},{"name":"_validator","type":"address","internalType":"address"}],"outputs":[],"stateMutability":"nonpayable"},{"type":"function","name":"onERC721Received","inputs":[{"name":"","type":"address","internalType":"address"},{"name":"","type":"address","internalType":"address"},{"name":"","type":"uint256","internalType":"uint256"},{"name":"","type":"bytes","internalType":"bytes"}],"outputs":[{"name":"","type":"bytes4","internalType":"bytes4"}],"stateMutability":"nonpayable"},{"type":"function","name":"owner","inputs":[],"outputs":[{"name":"","type":"address","internalType":"address"}],"stateMutability":"view"},{"type":"function","name":"paidCommission","inputs":[{"name":"_collection","type":"address","internalType":"address"},{"name":"_tokenId","type":"uint256","internalType":"uint256"}],"outputs":[],"stateMutability":"nonpayable"},{"type":"function","name":"pause","inputs":[],"outputs":[],"stateMutability":"nonpayable"},{"type":"function","name":"paused","inputs":[],"outputs":[{"name":"","type":"bool","internalType":"bool"}],"stateMutability":"view"},{"type":"function","name":"piMarketAddress","inputs":[],"outputs":[{"name":"","type":"address","internalType":"address"}],"stateMutability":"view"},{"type":"function","name":"proxiableUUID","inputs":[],"outputs":[{"name":"","type":"bytes32","internalType":"bytes32"}],"stateMutability":"view"},{"type":"function","name":"redeemOrBurnPiNFT","inputs":[{"name":"_collectionAddress","type":"address","internalType":"address"},{"name":"_tokenId","type":"uint256","internalType":"uint256"},{"name":"_nftReceiver","type":"address","internalType":"address"},{"name":"_erc20Receiver","type":"address","internalType":"address"},{"name":"_erc20Contract","type":"address","internalType":"address"},{"name":"burnNFT","type":"bool","internalType":"bool"}],"outputs":[],"stateMutability":"nonpayable"},{"type":"function","name":"removeTrustedForwarder","inputs":[{"name":"_tf","type":"address","internalType":"address"}],"outputs":[],"stateMutability":"nonpayable"},{"type":"function","name":"renounceOwnership","inputs":[],"outputs":[],"stateMutability":"nonpayable"},{"type":"function","name":"setBiconomyTrustedForwarder","inputs":[{"name":"_biconomyForwarder","type":"address","internalType":"address"}],"outputs":[],"stateMutability":"nonpayable"},{"type":"function","name":"setPiMarket","inputs":[{"name":"_piMarket","type":"address","internalType":"address"}],"outputs":[],"stateMutability":"nonpayable"},{"type":"function","name":"transferOwnership","inputs":[{"name":"newOwner","type":"address","internalType":"address"}],"outputs":[],"stateMutability":"nonpayable"},{"type":"function","name":"trustedForwarders","inputs":[{"name":"","type":"address","internalType":"address"}],"outputs":[{"name":"","type":"bool","internalType":"bool"}],"stateMutability":"view"},{"type":"function","name":"unpause","inputs":[],"outputs":[],"stateMutability":"nonpayable"},{"type":"function","name":"upgradeTo","inputs":[{"name":"newImplementation","type":"address","internalType":"address"}],"outputs":[],"stateMutability":"nonpayable"},{"type":"function","name":"upgradeToAndCall","inputs":[{"name":"newImplementation","type":"address","internalType":"address"},{"name":"data","type":"bytes","internalType":"bytes"}],"outputs":[],"stateMutability":"payable"},{"type":"function","name":"validatorCommissions","inputs":[{"name":"","type":"address","internalType":"address"},{"name":"","type":"uint256","internalType":"uint256"}],"outputs":[{"name":"commission","type":"tuple","internalType":"struct LibShare.Share","components":[{"name":"account","type":"address","internalType":"address payable"},{"name":"value","type":"uint96","internalType":"uint96"}]},{"name":"isValid","type":"bool","internalType":"bool"}],"stateMutability":"view"},{"type":"function","name":"viewBalance","inputs":[{"name":"_collectionAddress","type":"address","internalType":"address"},{"name":"_tokenId","type":"uint256","internalType":"uint256"},{"name":"_erc20Address","type":"address","internalType":"address"}],"outputs":[{"name":"","type":"uint256","internalType":"uint256"}],"stateMutability":"view"},{"type":"function","name":"viewWithdrawnAmount","inputs":[{"name":"_collectionAddress","type":"address","internalType":"address"},{"name":"_tokenId","type":"uint256","internalType":"uint256"}],"outputs":[{"name":"","type":"uint256","internalType":"uint256"}],"stateMutability":"view"},{"type":"function","name":"withdraw","inputs":[{"name":"_collectionAddress","type":"address","internalType":"address"},{"name":"_tokenId","type":"uint256","internalType":"uint256"},{"name":"_erc20Contract","type":"address","internalType":"address"},{"name":"_amount","type":"uint256","internalType":"uint256"}],"outputs":[],"stateMutability":"nonpayable"},{"type":"event","name":"AdminChanged","inputs":[{"name":"previousAdmin","type":"address","indexed":false,"internalType":"address"},{"name":"newAdmin","type":"address","indexed":false,"internalType":"address"}],"anonymous":false},{"type":"event","name":"BeaconUpgraded","inputs":[{"name":"beacon","type":"address","indexed":true,"internalType":"address"}],"anonymous":false},{"type":"event","name":"ERC20Added","inputs":[{"name":"collectionAddress","type":"address","indexed":false,"internalType":"address"},{"name":"from","type":"address","indexed":true,"internalType":"address"},{"name":"tokenId","type":"uint256","indexed":true,"internalType":"uint256"},{"name":"erc20Contract","type":"address","indexed":true,"internalType":"address"},{"name":"value","type":"uint256","indexed":false,"internalType":"uint256"}],"anonymous":false},{"type":"event","name":"ERC20Transferred","inputs":[{"name":"collectionAddress","type":"address","indexed":false,"internalType":"address"},{"name":"tokenId","type":"uint256","indexed":true,"internalType":"uint256"},{"name":"to","type":"address","indexed":true,"internalType":"address"},{"name":"erc20Contract","type":"address","indexed":true,"internalType":"address"},{"name":"value","type":"uint256","indexed":false,"internalType":"uint256"}],"anonymous":false},{"type":"event","name":"Initialized","inputs":[{"name":"version","type":"uint8","indexed":false,"internalType":"uint8"}],"anonymous":false},{"type":"event","name":"OwnershipTransferred","inputs":[{"name":"previousOwner","type":"address","indexed":true,"internalType":"address"},{"name":"newOwner","type":"address","indexed":true,"internalType":"address"}],"anonymous":false},{"type":"event","name":"Paused","inputs":[{"name":"account","type":"address","indexed":false,"internalType":"address"}],"anonymous":false},{"type":"event","name":"PiNFTBurnt","inputs":[{"name":"collectionAddress","type":"address","indexed":false,"internalType":"address"},{"name":"tokenId","type":"uint256","indexed":false,"internalType":"uint256"},{"name":"nftReciever","type":"address","indexed":false,"internalType":"address"},{"name":"erc20Receiver","type":"address","indexed":false,"internalType":"address"},{"name":"erc20Contract","type":"address","indexed":false,"internalType":"address"},{"name":"value","type":"uint256","indexed":false,"internalType":"uint256"}],"anonymous":false},{"type":"event","name":"PiNFTRedeemed","inputs":[{"name":"collectionAddress","type":"address","indexed":false,"internalType":"address"},{"name":"tokenId","type":"uint256","indexed":false,"internalType":"uint256"},{"name":"nftReciever","type":"address","indexed":false,"internalType":"address"},{"name":"validatorAddress","type":"address","indexed":false,"internalType":"address"},{"name":"erc20Contract","type":"address","indexed":false,"internalType":"address"},{"name":"value","type":"uint256","indexed":false,"internalType":"uint256"}],"anonymous":false},{"type":"event","name":"Unpaused","inputs":[{"name":"account","type":"address","indexed":false,"internalType":"address"}],"anonymous":false},{"type":"event","name":"Upgraded","inputs":[{"name":"implementation","type":"address","indexed":true,"internalType":"address"}],"anonymous":false},{"type":"event","name":"ValidatorAdded","inputs":[{"name":"collectionAddress","type":"address","indexed":false,"internalType":"address"},{"name":"tokenId","type":"uint256","indexed":false,"internalType":"uint256"},{"name":"validator","type":"address","indexed":false,"internalType":"address"}],"anonymous":false},{"type":"event","name":"ValidatorFundsRepayed","inputs":[{"name":"collectionAddress","type":"address","indexed":false,"internalType":"address"},{"name":"repayer","type":"address","indexed":false,"internalType":"address"},{"name":"tokenId","type":"uint256","indexed":false,"internalType":"uint256"},{"name":"erc20Contract","type":"address","indexed":false,"internalType":"address"},{"name":"amount","type":"uint256","indexed":false,"internalType":"uint256"}],"anonymous":false},{"type":"event","name":"ValidatorFundsWithdrawn","inputs":[{"name":"collectionAddress","type":"address","indexed":false,"internalType":"address"},{"name":"withdrawer","type":"address","indexed":false,"internalType":"address"},{"name":"tokenId","type":"uint256","indexed":false,"internalType":"uint256"},{"name":"erc20Contract","type":"address","indexed":false,"internalType":"address"},{"name":"amount","type":"uint256","indexed":false,"internalType":"uint256"}],"anonymous":false}],"bytecode":{"object":"0x60a0604052306080523480156200001557600080fd5b506200002062000026565b620000e8565b600054610100900460ff1615620000935760405162461bcd60e51b815260206004820152602760248201527f496e697469616c697a61626c653a20636f6e747261637420697320696e697469604482015266616c697a696e6760c81b606482015260840160405180910390fd5b60005460ff9081161015620000e6576000805460ff191660ff9081179091556040519081527f7f26b83ff96e1f2b6a682f133852f6798a09c465da95921460cefb38474024989060200160405180910390a15b565b60805161327562000120600039600081816108b80152818161090101528181610d3e01528181610d7e0152610e1101526132756000f3fe6080604052600436106101e35760003560e01c80636f9e5d4711610102578063c4d66de811610095578063e807f3b611610064578063e807f3b61461026a578063f2fde38b1461069e578063f351781b146106be578063f6d96cbb146106de57600080fd5b8063c4d66de8146105fa578063cb660fef1461061a578063d7aefa451461065e578063e45fff021461067e57600080fd5b80638da5cb5b116100d15780638da5cb5b146104d55780638f3881d0146104f3578063a7aed60514610513578063b3b86a541461055557600080fd5b80636f9e5d4714610449578063715018a614610469578063738087911461047e5780638456cb59146104c057600080fd5b80633f4ba83a1161017a57806354776bb91161014957806354776bb914610398578063572b6c05146103d85780635c975abb1461041157806361746b921461042957600080fd5b80633f4ba83a1461032d5780634b2084e3146103425780634f1ef2861461036257806352d1902d1461037557600080fd5b80632f93713a116101b65780632f93713a146102ac5780633659cfe6146102cc57806337065d69146102ec5780633751d89c1461030d57600080fd5b806310bbf478146101e8578063150b7a021461022657806326d006681461026a5780632a3778fa1461028c575b600080fd5b3480156101f457600080fd5b5061012f54610209906001600160a01b031681565b6040516001600160a01b0390911681526020015b60405180910390f35b34801561023257600080fd5b50610251610241366004612b67565b630a85bd0160e11b949350505050565b6040516001600160e01b0319909116815260200161021d565b34801561027657600080fd5b5061028a610285366004612bd3565b6106fe565b005b34801561029857600080fd5b5061028a6102a7366004612bf0565b61072a565b3480156102b857600080fd5b5061028a6102c7366004612bd3565b610882565b3480156102d857600080fd5b5061028a6102e7366004612bd3565b6108ad565b3480156102f857600080fd5b5061012e54610209906001600160a01b031681565b34801561031957600080fd5b5061028a610328366004612bd3565b610996565b34801561033957600080fd5b5061028a6109bf565b34801561034e57600080fd5b5061028a61035d366004612c32565b6109d1565b61028a610370366004612c7a565b610d33565b34801561038157600080fd5b5061038a610e04565b60405190815260200161021d565b3480156103a457600080fd5b506103c86103b3366004612bd3565b60976020526000908152604090205460ff1681565b604051901515815260200161021d565b3480156103e457600080fd5b506103c86103f3366004612bd3565b6001600160a01b031660009081526097602052604090205460ff1690565b34801561041d57600080fd5b5060985460ff166103c8565b34801561043557600080fd5b5061028a610444366004612bf0565b610eb7565b34801561045557600080fd5b5061038a610464366004612bf0565b610eee565b34801561047557600080fd5b5061028a610f25565b34801561048a57600080fd5b50610209610499366004612cca565b6101356020908152600092835260408084209091529082529020546001600160a01b031681565b3480156104cc57600080fd5b5061028a610f37565b3480156104e157600080fd5b506065546001600160a01b0316610209565b3480156104ff57600080fd5b5061020961050e366004612cf6565b610f47565b34801561051f57600080fd5b5061020961052e366004612cca565b6101336020908152600092835260408084209091529082529020546001600160a01b031681565b34801561056157600080fd5b506105c4610570366004612cca565b610136602090815260009283526040808420825291835291819020815180830190925280546001600160a01b0381168352600160a01b90046001600160601b03169282019290925260019091015460ff1682565b6040805183516001600160a01b031681526020938401516001600160601b0316938101939093529015159082015260600161021d565b34801561060657600080fd5b5061028a610615366004612bd3565b610f8d565b34801561062657600080fd5b5061038a610635366004612cca565b6001600160a01b0391909116600090815261013460209081526040808320938352929052205490565b34801561066a57600080fd5b5061028a610679366004612c32565b6110cb565b34801561068a57600080fd5b5061028a610699366004612cca565b611371565b3480156106aa57600080fd5b5061028a6106b9366004612bd3565b6113ba565b3480156106ca57600080fd5b5061028a6106d9366004612d47565b611430565b3480156106ea57600080fd5b5061028a6106f9366004612e7b565b611a06565b610706611e6c565b6001600160a01b03166000908152609760205260409020805460ff19166001179055565b610732611ee5565b3360009081526097602052604090205460ff1661074e57600080fd5b610756611f2b565b6040516331a9108f60e11b8152600481018490526001600160a01b0391821691851690636352211e906024015b602060405180830381865afa1580156107a0573d6000803e3d6000fd5b505050506040513d601f19601f820116820180604052508101906107c49190612ef4565b6001600160a01b0316146107d757600080fd5b6001600160a01b0383166000908152610131602090815260408083208584529091529020541561080657600080fd5b6001600160a01b0383811660008181526101356020908152604080832087845282529182902080546001600160a01b0319169486169485179055815192835282018590528101919091527f3eed3aea14f6a90316a7cbf29c4b43e75e9c7244df171497b2dfc68a56322fc99060600160405180910390a1505050565b61088a611e6c565b61012e80546001600160a01b0319166001600160a01b0392909216919091179055565b306001600160a01b037f00000000000000000000000000000000000000000000000000000000000000001614156108ff5760405162461bcd60e51b81526004016108f690612f11565b60405180910390fd5b7f00000000000000000000000000000000000000000000000000000000000000006001600160a01b03166109486000805160206131f9833981519152546001600160a01b031690565b6001600160a01b03161461096e5760405162461bcd60e51b81526004016108f690612f5d565b61097781611f5a565b6040805160008082526020820190925261099391839190611f62565b50565b61099e611e6c565b6001600160a01b03166000908152609760205260409020805460ff19169055565b6109c7611e6c565b6109cf6120d2565b565b6109d961212a565b6109e1611ee5565b6001600160a01b038416600090815261013460209081526040808320868452909152902054610ac5576040516331a9108f60e11b8152600481018490526001600160a01b03851690636352211e90602401602060405180830381865afa158015610a4f573d6000803e3d6000fd5b505050506040513d601f19601f82011682018060405250810190610a739190612ef4565b6001600160a01b0316336001600160a01b031614610a9057600080fd5b6001600160a01b038416600090815261013360209081526040808320868452909152902080546001600160a01b031916331790555b6001600160a01b03848116600090815261013360209081526040808320878452909152902054163314610af757600080fd5b6001600160a01b03808516600090815261013060209081526040808320878452825280832093861683529290522054610b2f57600080fd5b6001600160a01b038085166000818152610130602090815260408083208884528252808320948716835293815283822054928252610134815283822087835290529190912054610b80908390612fbf565b1115610b8b57600080fd5b60405163a9059cbb60e01b8152336004820152602481018290526001600160a01b0383169063a9059cbb906044016020604051808303816000875af1158015610bd8573d6000803e3d6000fd5b505050506040513d601f19601f82011682018060405250810190610bfc9190612fd7565b610c0557600080fd5b6001600160a01b038416600090815261013460209081526040808320868452909152902054610c9157604051632142170760e11b81526001600160a01b038516906342842e0e90610c5e90339030908890600401612ff4565b600060405180830381600087803b158015610c7857600080fd5b505af1158015610c8c573d6000803e3d6000fd5b505050505b6001600160a01b03841660009081526101346020908152604080832086845290915281208054839290610cc5908490612fbf565b9091555050604080516001600160a01b0380871682523360208301529181018590529083166060820152608081018290527f73c883fdfdf5d69e7c4f4be4510c458c7382dc064873b6632087dd9719c4dbbd9060a0015b60405180910390a1610d2d60018055565b50505050565b306001600160a01b037f0000000000000000000000000000000000000000000000000000000000000000161415610d7c5760405162461bcd60e51b81526004016108f690612f11565b7f00000000000000000000000000000000000000000000000000000000000000006001600160a01b0316610dc56000805160206131f9833981519152546001600160a01b031690565b6001600160a01b031614610deb5760405162461bcd60e51b81526004016108f690612f5d565b610df482611f5a565b610e0082826001611f62565b5050565b6000306001600160a01b037f00000000000000000000000000000000000000000000000000000000000000001614610ea45760405162461bcd60e51b815260206004820152603860248201527f555550535570677261646561626c653a206d757374206e6f742062652063616c60448201527f6c6564207468726f7567682064656c656761746563616c6c000000000000000060648201526084016108f6565b506000805160206131f983398151915290565b610ebf611ee5565b6040516331a9108f60e11b81526004810183905233906001600160a01b03851690636352211e90602401610783565b6001600160a01b038084166000908152610130602090815260408083208684528252808320938516835292905220545b9392505050565b610f2d611e6c565b6109cf600061218a565b610f3f611e6c565b6109cf6121dc565b6101316020528260005260406000206020528160005260406000208181548110610f7057600080fd5b6000918252602090912001546001600160a01b0316925083915050565b600054610100900460ff1615808015610fad5750600054600160ff909116105b80610fc75750303b158015610fc7575060005460ff166001145b61102a5760405162461bcd60e51b815260206004820152602e60248201527f496e697469616c697a61626c653a20636f6e747261637420697320616c72656160448201526d191e481a5b9a5d1a585b1a5e995960921b60648201526084016108f6565b6000805460ff19166001179055801561104d576000805461ff0019166101001790555b61105561221a565b61105d612249565b61106682612270565b61012f80546001600160a01b0319166001600160a01b0384161790558015610e00576000805461ff0019169055604051600181527f7f26b83ff96e1f2b6a682f133852f6798a09c465da95921460cefb38474024989060200160405180910390a15050565b6110d361212a565b6110db611ee5565b6001600160a01b0384811660009081526101336020908152604080832087845290915290205416331461113c5760405162461bcd60e51b81526020600482015260096024820152683737ba1037bbb732b960b91b60448201526064016108f6565b6001600160a01b038085166000908152610130602090815260408083208784528252808320938616835292905220546111a95760405162461bcd60e51b815260206004820152600f60248201526e10985b185b98d95cc81c995c185a59608a1b60448201526064016108f6565b6001600160a01b0384166000908152610134602090815260408083208684529091529020548111156111da57600080fd5b6001600160a01b0384166000908152610134602090815260408083208684529091528120805483929061120e908490613018565b90915550506040516323b872dd60e01b81526001600160a01b038316906323b872dd9061124390339030908690600401612ff4565b6020604051808303816000875af1158015611262573d6000803e3d6000fd5b505050506040513d601f19601f820116820180604052508101906112869190612fd7565b61128f57600080fd5b6001600160a01b03841660009081526101346020908152604080832086845290915290205461131b57604051632142170760e11b81526001600160a01b038516906342842e0e906112e890309033908890600401612ff4565b600060405180830381600087803b15801561130257600080fd5b505af1158015611316573d6000803e3d6000fd5b505050505b604080516001600160a01b0380871682523360208301529181018590529083166060820152608081018290527f65e3a8ea984712007ee6990eb3643dc4fb17ee9bcd6ee1e3cae38f3a18ed3c4f9060a001610d1c565b61012e546001600160a01b0316331461138957600080fd5b6001600160a01b0390911660009081526101366020908152604080832093835292905220600101805460ff19169055565b6113c2611e6c565b6001600160a01b0381166114275760405162461bcd60e51b815260206004820152602660248201527f4f776e61626c653a206e6577206f776e657220697320746865207a65726f206160448201526564647265737360d01b60648201526084016108f6565b6109938161218a565b611438611ee5565b61144061212a565b604051634f558e7960e01b8152600481018690526001600160a01b03871690634f558e7990602401602060405180830381865afa158015611485573d6000803e3d6000fd5b505050506040513d601f19601f820116820180604052508101906114a99190612fd7565b6114b257600080fd5b6001600160a01b03868116600090815261013560209081526040808320898452909152902054166114e257600080fd5b6001600160a01b0386811660009081526101356020908152604080832089845290915290205416331461151457600080fd5b6001600160a01b03841661152757600080fd5b8261153157600080fd5b6001600160a01b0386166000908152610131602090815260408083208884529091529020546001116116e1576001600160a01b038616600090815261013160209081526040808320888452909152812080549091906115925761159261302f565b6000918252602090912001546001600160a01b038581169116146115e25760405162461bcd60e51b81526020600482015260076024820152661a5b9d985b1a5960ca1b60448201526064016108f6565b6001600160a01b0386166000908152610136602090815260408083208884529091529081902090516387ebb9b560e01b815260048101919091526001600160601b038316602482015273__$49a572f01fb1a2caa447eddc0ffb781735$__906387ebb9b59060440160006040518083038186803b15801561166257600080fd5b505af4158015611676573d6000803e3d6000fd5b50506040516345913fe960e01b81526001600160a01b03891692506345913fe991506116aa90889086908690600401613045565b600060405180830381600087803b1580156116c457600080fd5b505af11580156116d8573d6000803e3d6000fd5b50505050611805565b6001600160a01b0386166000908152610136602090815260408083208884529091529081902090516387ebb9b560e01b815260048101919091526001600160601b038316602482015273__$49a572f01fb1a2caa447eddc0ffb781735$__906387ebb9b59060440160006040518083038186803b15801561176157600080fd5b505af4158015611775573d6000803e3d6000fd5b505050506001600160a01b038616600081815261013660209081526040808320898452909152908190206001908101805460ff19169091179055516345913fe960e01b81526345913fe9906117d290889086908690600401613045565b600060405180830381600087803b1580156117ec57600080fd5b505af1158015611800573d6000803e3d6000fd5b505050505b6040516331a9108f60e11b81526004810186905230906001600160a01b03881690636352211e90602401602060405180830381865afa15801561184c573d6000803e3d6000fd5b505050506040513d601f19601f820116820180604052508101906118709190612ef4565b6001600160a01b031614611923576040516331a9108f60e11b8152600481018690526001600160a01b03871690636352211e90602401602060405180830381865afa1580156118c3573d6000803e3d6000fd5b505050506040513d601f19601f820116820180604052508101906118e79190612ef4565b6001600160a01b038781166000908152610133602090815260408083208a8452909152902080546001600160a01b031916929091169190911790555b61192f868686866122c2565b6040516323b872dd60e01b81526001600160a01b038516906323b872dd9061195f90339030908890600401612ff4565b6020604051808303816000875af115801561197e573d6000803e3d6000fd5b505050506040513d601f19601f820116820180604052508101906119a29190612fd7565b6119ab57600080fd5b604080516001600160a01b03888116825260208201869052861691879133917f71280272823871467a2e10f64663a78301e17444e32f7f90421791d9c6783916910160405180910390a46119fe60018055565b505050505050565b611a0e61212a565b611a16611ee5565b6040516331a9108f60e11b81526004810186905233906001600160a01b03881690636352211e90602401602060405180830381865afa158015611a5d573d6000803e3d6000fd5b505050506040513d601f19601f82011682018060405250810190611a819190612ef4565b6001600160a01b031614611a9457600080fd5b6001600160a01b0386811660009081526101356020908152604080832089845290915290205416611ac457600080fd5b6001600160a01b038216611ad757600080fd5b6001600160a01b03808716600090815261013060209081526040808320898452825280832093861683529290522054611b0f57600080fd5b6001600160a01b038087166000908152610130602090815260408083208984528252808320938616835292905220548115611c67576001600160a01b038416611b5757600080fd5b6001600160a01b03851615611b6b57600080fd5b611b788787868685612435565b6001600160a01b038088166000818152610135602090815260408083208b845290915290819020549051632142170760e11b815291926342842e0e92611bc692339216908b90600401612ff4565b600060405180830381600087803b158015611be057600080fd5b505af1158015611bf4573d6000803e3d6000fd5b5050506001600160a01b038089166000908152610135602090815260408083208b8452909152908190205490517f45e958c3661bb3f53bfbaf4a904e21e10f1bb18f6df761239e0ac87ce5efd2889350611c5a928b928b929116908990899088906130c8565b60405180910390a1611da1565b6001600160a01b038516611c7a57600080fd5b6001600160a01b03841615611c8e57600080fd5b6001600160a01b038088166000908152610135602090815260408083208a8452909152902054611cc49189918991168685612435565b336001600160a01b03861614611d3757604051632142170760e11b81526001600160a01b038816906342842e0e90611d0490339089908b90600401612ff4565b600060405180830381600087803b158015611d1e57600080fd5b505af1158015611d32573d6000803e3d6000fd5b505050505b6001600160a01b038088166000908152610135602090815260408083208a8452909152908190205490517f12273593f8809177c36cba6cdff357efa2e5004bb97165cf8bea37b8d8ababac92611d98928b928b928b921690899088906130c8565b60405180910390a15b6001600160a01b0387166000818152610135602090815260408083208a8452825280832080546001600160a01b031990811690915584845261013383528184208b855283528184208054909116905583835261013682528083208a8452909152808220918255600191909101805460ff1916905551630e45807760e21b81526004810188905263391601dc90602401600060405180830381600087803b158015611e4a57600080fd5b505af1158015611e5e573d6000803e3d6000fd5b50505050506119fe60018055565b611e74612524565b6001600160a01b0316611e8f6065546001600160a01b031690565b6001600160a01b0316146109cf5760405162461bcd60e51b815260206004820181905260248201527f4f776e61626c653a2063616c6c6572206973206e6f7420746865206f776e657260448201526064016108f6565b60985460ff16156109cf5760405162461bcd60e51b815260206004820152601060248201526f14185d5cd8589b194e881c185d5cd95960821b60448201526064016108f6565b3360009081526097602052604081205460ff1615611f50575060131936013560601c90565b503390565b905090565b610993611e6c565b7f4910fdfa16fed3260ed0e7147f7cc6da11a60208b5b9406d12a635614ffd91435460ff1615611f9a57611f958361252e565b505050565b826001600160a01b03166352d1902d6040518163ffffffff1660e01b8152600401602060405180830381865afa925050508015611ff4575060408051601f3d908101601f19168201909252611ff191810190613103565b60015b6120575760405162461bcd60e51b815260206004820152602e60248201527f45524331393637557067726164653a206e657720696d706c656d656e7461746960448201526d6f6e206973206e6f74205555505360901b60648201526084016108f6565b6000805160206131f983398151915281146120c65760405162461bcd60e51b815260206004820152602960248201527f45524331393637557067726164653a20756e737570706f727465642070726f786044820152681a58589b195555525160ba1b60648201526084016108f6565b50611f958383836125ca565b6120da6125ef565b6098805460ff191690557f5db9ee0a495bf2e6ff9c91a7834c1ba4fdd244a5e8aa4e537bd38aeae4b073aa61210d612524565b6040516001600160a01b03909116815260200160405180910390a1565b6002600154141561217d5760405162461bcd60e51b815260206004820152601f60248201527f5265656e7472616e637947756172643a207265656e7472616e742063616c6c0060448201526064016108f6565b6002600155565b60018055565b606580546001600160a01b038381166001600160a01b0319831681179093556040519116919082907f8be0079c531659141344cd1fd0a4f28419497f9722a3daafe3b4186f6b6457e090600090a35050565b6121e4611ee5565b6098805460ff191660011790557f62e78cea01bee320cd4e420270b5ea74000d11b0c9f74754ebdbfc544b05a25861210d612524565b600054610100900460ff166122415760405162461bcd60e51b81526004016108f69061311c565b6109cf612638565b600054610100900460ff166109cf5760405162461bcd60e51b81526004016108f69061311c565b600054610100900460ff166122975760405162461bcd60e51b81526004016108f69061311c565b6001600160a01b0381166000908152609760205260409020805460ff1916600117905561099361265f565b6040516331a9108f60e11b8152600481018490526000906001600160a01b03861690636352211e90602401602060405180830381865afa15801561230a573d6000803e3d6000fd5b505050506040513d601f19601f8201168201806040525081019061232e9190612ef4565b6001600160a01b0316141561234257600080fd5b8061234c57610d2d565b6001600160a01b03808516600090815261013060209081526040808320878452825280832093861683529290522054806123e9576001600160a01b03808616600081815261013160209081526040808320898452808352818420805495855261013284528285208b86528452828520968a168086529684529184208590558252600184018155825290200180546001600160a01b03191690911790555b6001600160a01b03808616600090815261013060209081526040808320888452825280832093871683529290529081208054849290612429908490612fbf565b90915550505050505050565b6001600160a01b03831661244857600080fd5b6124548585848461268e565b60405163a9059cbb60e01b81526001600160a01b0384811660048301526024820183905283169063a9059cbb906044016020604051808303816000875af11580156124a3573d6000803e3d6000fd5b505050506040513d601f19601f820116820180604052508101906124c79190612fd7565b6124d057600080fd5b604080516001600160a01b03878116825260208201849052808516929086169187917f3fa358a37201b8671cd66be80045d25c32c3aee0d29cb25ca819991740f6621c910160405180910390a45050505050565b6000611f55611f2b565b6001600160a01b0381163b61259b5760405162461bcd60e51b815260206004820152602d60248201527f455243313936373a206e657720696d706c656d656e746174696f6e206973206e60448201526c1bdd08184818dbdb9d1c9858dd609a1b60648201526084016108f6565b6000805160206131f983398151915280546001600160a01b0319166001600160a01b0392909216919091179055565b6125d3836128c9565b6000825111806125e05750805b15611f9557610d2d8383612909565b60985460ff166109cf5760405162461bcd60e51b815260206004820152601460248201527314185d5cd8589b194e881b9bdd081c185d5cd95960621b60448201526064016108f6565b600054610100900460ff166121845760405162461bcd60e51b81526004016108f69061311c565b600054610100900460ff166126865760405162461bcd60e51b81526004016108f69061311c565b6109cf6129fd565b8061269857610d2d565b6001600160a01b03808516600090815261013060209081526040808320878452825280832093861683529290522054818110156126d457600080fd5b60006126e08383613018565b6001600160a01b038088166000908152610130602090815260408083208a845282528083209389168352929052208190559050806119fe576001600160a01b03861660009081526101316020908152604080832088845290915281205461274990600190613018565b6001600160a01b0388166000908152610131602090815260408083208a8452909152812080549293509091839081106127845761278461302f565b6000918252602090912001546001600160a01b03908116915086168114612849576001600160a01b038089166000818152610132602090815260408083208c84528252808320948b1683529381528382205492825261013181528382208b83529052919091208054839190839081106127ff576127ff61302f565b600091825260208083209190910180546001600160a01b0319166001600160a01b039485161790558b83168252610132815260408083208c84528252808320938616835292905220555b6001600160a01b038089166000818152610132602090815260408083208c84528252808320948b16835293815283822082905591815261013182528281208a82529091522080548061289d5761289d613167565b600082815260209020810160001990810180546001600160a01b03191690550190555050505050505050565b6128d28161252e565b6040516001600160a01b038216907fbc7cd75a20ee27fd9adebab32041f755214dbc6bffa90cc0225b39da2e5c2d3b90600090a250565b60606001600160a01b0383163b6129715760405162461bcd60e51b815260206004820152602660248201527f416464726573733a2064656c65676174652063616c6c20746f206e6f6e2d636f6044820152651b9d1c9858dd60d21b60648201526084016108f6565b600080846001600160a01b03168460405161298c91906131a9565b600060405180830381855af49150503d80600081146129c7576040519150601f19603f3d011682016040523d82523d6000602084013e6129cc565b606091505b50915091506129f4828260405180606001604052806027815260200161321960279139612a34565b95945050505050565b600054610100900460ff16612a245760405162461bcd60e51b81526004016108f69061311c565b6109cf612a2f612524565b61218a565b60608315612a43575081610f1e565b610f1e8383815115612a585781518083602001fd5b8060405162461bcd60e51b81526004016108f691906131c5565b6001600160a01b038116811461099357600080fd5b634e487b7160e01b600052604160045260246000fd5b6040805190810167ffffffffffffffff81118282101715612ac057612ac0612a87565b60405290565b604051601f8201601f1916810167ffffffffffffffff81118282101715612aef57612aef612a87565b604052919050565b600082601f830112612b0857600080fd5b813567ffffffffffffffff811115612b2257612b22612a87565b612b35601f8201601f1916602001612ac6565b818152846020838601011115612b4a57600080fd5b816020850160208301376000918101602001919091529392505050565b60008060008060808587031215612b7d57600080fd5b8435612b8881612a72565b93506020850135612b9881612a72565b925060408501359150606085013567ffffffffffffffff811115612bbb57600080fd5b612bc787828801612af7565b91505092959194509250565b600060208284031215612be557600080fd5b8135610f1e81612a72565b600080600060608486031215612c0557600080fd5b8335612c1081612a72565b9250602084013591506040840135612c2781612a72565b809150509250925092565b60008060008060808587031215612c4857600080fd5b8435612c5381612a72565b9350602085013592506040850135612c6a81612a72565b9396929550929360600135925050565b60008060408385031215612c8d57600080fd5b8235612c9881612a72565b9150602083013567ffffffffffffffff811115612cb457600080fd5b612cc085828601612af7565b9150509250929050565b60008060408385031215612cdd57600080fd5b8235612ce881612a72565b946020939093013593505050565b600080600060608486031215612d0b57600080fd5b8335612d1681612a72565b95602085013595506040909401359392505050565b80356001600160601b0381168114612d4257600080fd5b919050565b60008060008060008060c08789031215612d6057600080fd5b8635612d6b81612a72565b95506020878101359550604080890135612d8481612a72565b955060608901359450612d9960808a01612d2b565b935060a089013567ffffffffffffffff80821115612db657600080fd5b818b0191508b601f830112612dca57600080fd5b813581811115612ddc57612ddc612a87565b612dea858260051b01612ac6565b818152858101925060069190911b83018501908d821115612e0a57600080fd5b928501925b81841015612e5a5784848f031215612e275760008081fd5b612e2f612a9d565b8435612e3a81612a72565b8152612e47858801612d2b565b8188015283529284019291850191612e0f565b8096505050505050509295509295509295565b801515811461099357600080fd5b60008060008060008060c08789031215612e9457600080fd5b8635612e9f81612a72565b9550602087013594506040870135612eb681612a72565b93506060870135612ec681612a72565b92506080870135612ed681612a72565b915060a0870135612ee681612e6d565b809150509295509295509295565b600060208284031215612f0657600080fd5b8151610f1e81612a72565b6020808252602c908201527f46756e6374696f6e206d7573742062652063616c6c6564207468726f7567682060408201526b19195b1959d85d1958d85b1b60a21b606082015260800190565b6020808252602c908201527f46756e6374696f6e206d7573742062652063616c6c6564207468726f7567682060408201526b6163746976652070726f787960a01b606082015260800190565b634e487b7160e01b600052601160045260246000fd5b60008219821115612fd257612fd2612fa9565b500190565b600060208284031215612fe957600080fd5b8151610f1e81612e6d565b6001600160a01b039384168152919092166020820152604081019190915260600190565b60008282101561302a5761302a612fa9565b500390565b634e487b7160e01b600052603260045260246000fd5b60006060820185835260206001600160601b038616818501526040606081860152828651808552608087019150838801945060005b818110156130b9576130a983875180516001600160a01b031682526020908101516001600160601b0316910152565b948401949183019160010161307a565b50909998505050505050505050565b6001600160a01b039687168152602081019590955292851660408501529084166060840152909216608082015260a081019190915260c00190565b60006020828403121561311557600080fd5b5051919050565b6020808252602b908201527f496e697469616c697a61626c653a20636f6e7472616374206973206e6f74206960408201526a6e697469616c697a696e6760a81b606082015260800190565b634e487b7160e01b600052603160045260246000fd5b60005b83811015613198578181015183820152602001613180565b83811115610d2d5750506000910152565b600082516131bb81846020870161317d565b9190910192915050565b60208152600082518060208401526131e481604085016020870161317d565b601f01601f1916919091016040019291505056fe360894a13ba1a3210667c828492db98dca3e2076cc3735a920a3ca505d382bbc416464726573733a206c6f772d6c6576656c2064656c65676174652063616c6c206661696c6564a26469706673582212205bad6cd4968facad3d978ea763118b5a014ea17de8be8539a9bf803286e50a1b64736f6c634300080b0033","linkReferences":{"contracts/utils/LibShare.sol":{"LibShare":[{"start":5965,"length":20},{"start":6220,"length":20}]}}},"methodIdentifiers":{"NFTowner(address,uint256)":"a7aed605","Repay(address,uint256,address,uint256)":"d7aefa45","addERC20(address,uint256,address,uint256,uint96,(address,uint96)[])":"f351781b","addTrustedForwarder(address)":"26d00668","addValidator(address,uint256,address)":"61746b92","approvedValidator(address,uint256)":"73808791","biconomyTrustedForwarder()":"10bbf478","erc20Contracts(address,uint256,uint256)":"8f3881d0","initialize(address)":"c4d66de8","isTrustedForwarder(address)":"572b6c05","lazyAddValidator(address,uint256,address)":"2a3778fa","onERC721Received(address,address,uint256,bytes)":"150b7a02","owner()":"8da5cb5b","paidCommission(address,uint256)":"e45fff02","pause()":"8456cb59","paused()":"5c975abb","piMarketAddress()":"37065d69","proxiableUUID()":"52d1902d","redeemOrBurnPiNFT(address,uint256,address,address,address,bool)":"f6d96cbb","removeTrustedForwarder(address)":"3751d89c","renounceOwnership()":"715018a6","setBiconomyTrustedForwarder(address)":"e807f3b6","setPiMarket(address)":"2f93713a","transferOwnership(address)":"f2fde38b","trustedForwarders(address)":"54776bb9","unpause()":"3f4ba83a","upgradeTo(address)":"3659cfe6","upgradeToAndCall(address,bytes)":"4f1ef286","validatorCommissions(address,uint256)":"b3b86a54","viewBalance(address,uint256,address)":"6f9e5d47","viewWithdrawnAmount(address,uint256)":"cb660fef","withdraw(address,uint256,address,uint256)":"4b2084e3"},"id":20}