{"abi":[{"type":"constructor","inputs":[],"stateMutability":"nonpayable"},{"type":"function","name":"AconomyFeeAddress","inputs":[],"outputs":[{"name":"","type":"address","internalType":"address"}],"stateMutability":"view"},{"type":"function","name":"ClosedPool","inputs":[{"name":"_poolId","type":"uint256","internalType":"uint256"}],"outputs":[{"name":"","type":"bool","internalType":"bool"}],"stateMutability":"view"},{"type":"function","name":"FundingPoolAddress","inputs":[],"outputs":[{"name":"","type":"address","internalType":"address"}],"stateMutability":"view"},{"type":"function","name":"addBorrower","inputs":[{"name":"_poolId","type":"uint256","internalType":"uint256"},{"name":"_borrowerAddress","type":"address","internalType":"address"}],"outputs":[],"stateMutability":"nonpayable"},{"type":"function","name":"addLender","inputs":[{"name":"_poolId","type":"uint256","internalType":"uint256"},{"name":"_lenderAddress","type":"address","internalType":"address"}],"outputs":[],"stateMutability":"nonpayable"},{"type":"function","name":"attestationService","inputs":[],"outputs":[{"name":"","type":"address","internalType":"contract AttestationServices"}],"stateMutability":"view"},{"type":"function","name":"borrowerAttestationSchemaId","inputs":[],"outputs":[{"name":"","type":"bytes32","internalType":"bytes32"}],"stateMutability":"view"},{"type":"function","name":"borrowerVerification","inputs":[{"name":"_poolId","type":"uint256","internalType":"uint256"},{"name":"_borrowerAddress","type":"address","internalType":"address"}],"outputs":[{"name":"isVerified_","type":"bool","internalType":"bool"},{"name":"uuid_","type":"bytes32","internalType":"bytes32"}],"stateMutability":"view"},{"type":"function","name":"changeFundingPoolImplementation","inputs":[{"name":"newFundingPool","type":"address","internalType":"address"}],"outputs":[],"stateMutability":"nonpayable"},{"type":"function","name":"changePoolSetting","inputs":[{"name":"_poolId","type":"uint256","internalType":"uint256"},{"name":"_paymentDefaultDuration","type":"uint32","internalType":"uint32"},{"name":"_loanExpirationTime","type":"uint32","internalType":"uint32"},{"name":"_poolFeePercent","type":"uint16","internalType":"uint16"},{"name":"_apr","type":"uint16","internalType":"uint16"},{"name":"_uri","type":"string","internalType":"string"}],"outputs":[],"stateMutability":"nonpayable"},{"type":"function","name":"closePool","inputs":[{"name":"_poolId","type":"uint256","internalType":"uint256"}],"outputs":[],"stateMutability":"nonpayable"},{"type":"function","name":"createPool","inputs":[{"name":"_paymentDefaultDuration","type":"uint32","internalType":"uint32"},{"name":"_loanExpirationTime","type":"uint32","internalType":"uint32"},{"name":"_poolFeePercent","type":"uint16","internalType":"uint16"},{"name":"_apr","type":"uint16","internalType":"uint16"},{"name":"_uri","type":"string","internalType":"string"},{"name":"_requireLenderAttestation","type":"bool","internalType":"bool"},{"name":"_requireBorrowerAttestation","type":"bool","internalType":"bool"}],"outputs":[{"name":"poolId_","type":"uint256","internalType":"uint256"}],"stateMutability":"nonpayable"},{"type":"function","name":"getAconomyFee","inputs":[],"outputs":[{"name":"","type":"uint16","internalType":"uint16"}],"stateMutability":"view"},{"type":"function","name":"getAconomyOwner","inputs":[],"outputs":[{"name":"","type":"address","internalType":"address"}],"stateMutability":"view"},{"type":"function","name":"getPaymentCycleDuration","inputs":[{"name":"_poolId","type":"uint256","internalType":"uint256"}],"outputs":[{"name":"","type":"uint32","internalType":"uint32"}],"stateMutability":"view"},{"type":"function","name":"getPaymentDefaultDuration","inputs":[{"name":"_poolId","type":"uint256","internalType":"uint256"}],"outputs":[{"name":"","type":"uint32","internalType":"uint32"}],"stateMutability":"view"},{"type":"function","name":"getPoolAddress","inputs":[{"name":"_poolId","type":"uint256","internalType":"uint256"}],"outputs":[{"name":"","type":"address","internalType":"address"}],"stateMutability":"view"},{"type":"function","name":"getPoolApr","inputs":[{"name":"_poolId","type":"uint256","internalType":"uint256"}],"outputs":[{"name":"","type":"uint16","internalType":"uint16"}],"stateMutability":"view"},{"type":"function","name":"getPoolFee","inputs":[{"name":"_poolId","type":"uint256","internalType":"uint256"}],"outputs":[{"name":"fee","type":"uint16","internalType":"uint16"}],"stateMutability":"view"},{"type":"function","name":"getPoolFeePercent","inputs":[{"name":"_poolId","type":"uint256","internalType":"uint256"}],"outputs":[{"name":"","type":"uint16","internalType":"uint16"}],"stateMutability":"view"},{"type":"function","name":"getPoolOwner","inputs":[{"name":"_poolId","type":"uint256","internalType":"uint256"}],"outputs":[{"name":"","type":"address","internalType":"address"}],"stateMutability":"view"},{"type":"function","name":"getPoolUri","inputs":[{"name":"_poolId","type":"uint256","internalType":"uint256"}],"outputs":[{"name":"","type":"string","internalType":"string"}],"stateMutability":"view"},{"type":"function","name":"getloanExpirationTime","inputs":[{"name":"poolId","type":"uint256","internalType":"uint256"}],"outputs":[{"name":"","type":"uint32","internalType":"uint32"}],"stateMutability":"view"},{"type":"function","name":"initialize","inputs":[{"name":"_attestationServices","type":"address","internalType":"contract AttestationServices"},{"name":"_AconomyFee","type":"address","internalType":"address"},{"name":"_FundingPoolAddress","type":"address","internalType":"address"}],"outputs":[],"stateMutability":"nonpayable"},{"type":"function","name":"lenderAttestationSchemaId","inputs":[],"outputs":[{"name":"","type":"bytes32","internalType":"bytes32"}],"stateMutability":"view"},{"type":"function","name":"lenderVerification","inputs":[{"name":"_poolId","type":"uint256","internalType":"uint256"},{"name":"_lenderAddress","type":"address","internalType":"address"}],"outputs":[{"name":"isVerified_","type":"bool","internalType":"bool"},{"name":"uuid_","type":"bytes32","internalType":"bytes32"}],"stateMutability":"view"},{"type":"function","name":"owner","inputs":[],"outputs":[{"name":"","type":"address","internalType":"address"}],"stateMutability":"view"},{"type":"function","name":"pause","inputs":[],"outputs":[],"stateMutability":"nonpayable"},{"type":"function","name":"paused","inputs":[],"outputs":[{"name":"","type":"bool","internalType":"bool"}],"stateMutability":"view"},{"type":"function","name":"poolCount","inputs":[],"outputs":[{"name":"","type":"uint256","internalType":"uint256"}],"stateMutability":"view"},{"type":"function","name":"proxiableUUID","inputs":[],"outputs":[{"name":"","type":"bytes32","internalType":"bytes32"}],"stateMutability":"view"},{"type":"function","name":"removeBorrower","inputs":[{"name":"_poolId","type":"uint256","internalType":"uint256"},{"name":"_borrowerAddress","type":"address","internalType":"address"}],"outputs":[],"stateMutability":"nonpayable"},{"type":"function","name":"removeLender","inputs":[{"name":"_poolId","type":"uint256","internalType":"uint256"},{"name":"_lenderAddress","type":"address","internalType":"address"}],"outputs":[],"stateMutability":"nonpayable"},{"type":"function","name":"renounceOwnership","inputs":[],"outputs":[],"stateMutability":"nonpayable"},{"type":"function","name":"setApr","inputs":[{"name":"_poolId","type":"uint256","internalType":"uint256"},{"name":"_apr","type":"uint16","internalType":"uint16"}],"outputs":[],"stateMutability":"nonpayable"},{"type":"function","name":"setPaymentDefaultDuration","inputs":[{"name":"_poolId","type":"uint256","internalType":"uint256"},{"name":"_duration","type":"uint32","internalType":"uint32"}],"outputs":[],"stateMutability":"nonpayable"},{"type":"function","name":"setPoolFeePercent","inputs":[{"name":"_poolId","type":"uint256","internalType":"uint256"},{"name":"_newPercent","type":"uint16","internalType":"uint16"}],"outputs":[],"stateMutability":"nonpayable"},{"type":"function","name":"setPoolURI","inputs":[{"name":"_poolId","type":"uint256","internalType":"uint256"},{"name":"_uri","type":"string","internalType":"string"}],"outputs":[],"stateMutability":"nonpayable"},{"type":"function","name":"setloanExpirationTime","inputs":[{"name":"_poolId","type":"uint256","internalType":"uint256"},{"name":"_duration","type":"uint32","internalType":"uint32"}],"outputs":[],"stateMutability":"nonpayable"},{"type":"function","name":"transferOwnership","inputs":[{"name":"newOwner","type":"address","internalType":"address"}],"outputs":[],"stateMutability":"nonpayable"},{"type":"function","name":"unpause","inputs":[],"outputs":[],"stateMutability":"nonpayable"},{"type":"function","name":"upgradeTo","inputs":[{"name":"newImplementation","type":"address","internalType":"address"}],"outputs":[],"stateMutability":"nonpayable"},{"type":"function","name":"upgradeToAndCall","inputs":[{"name":"newImplementation","type":"address","internalType":"address"},{"name":"data","type":"bytes","internalType":"bytes"}],"outputs":[],"stateMutability":"payable"},{"type":"event","name":"AdminChanged","inputs":[{"name":"previousAdmin","type":"address","indexed":false,"internalType":"address"},{"name":"newAdmin","type":"address","indexed":false,"internalType":"address"}],"anonymous":false},{"type":"event","name":"BeaconUpgraded","inputs":[{"name":"beacon","type":"address","indexed":true,"internalType":"address"}],"anonymous":false},{"type":"event","name":"BorrowerAttestation","inputs":[{"name":"poolId","type":"uint256","indexed":false,"internalType":"uint256"},{"name":"borrower","type":"address","indexed":false,"internalType":"address"}],"anonymous":false},{"type":"event","name":"BorrowerRevocation","inputs":[{"name":"poolId","type":"uint256","indexed":false,"internalType":"uint256"},{"name":"borrower","type":"address","indexed":false,"internalType":"address"}],"anonymous":false},{"type":"event","name":"Initialized","inputs":[{"name":"version","type":"uint8","indexed":false,"internalType":"uint8"}],"anonymous":false},{"type":"event","name":"LenderAttestation","inputs":[{"name":"poolId","type":"uint256","indexed":false,"internalType":"uint256"},{"name":"lender","type":"address","indexed":false,"internalType":"address"}],"anonymous":false},{"type":"event","name":"LenderRevocation","inputs":[{"name":"poolId","type":"uint256","indexed":false,"internalType":"uint256"},{"name":"lender","type":"address","indexed":false,"internalType":"address"}],"anonymous":false},{"type":"event","name":"OwnershipTransferred","inputs":[{"name":"previousOwner","type":"address","indexed":true,"internalType":"address"},{"name":"newOwner","type":"address","indexed":true,"internalType":"address"}],"anonymous":false},{"type":"event","name":"Paused","inputs":[{"name":"account","type":"address","indexed":false,"internalType":"address"}],"anonymous":false},{"type":"event","name":"SetAPR","inputs":[{"name":"poolId","type":"uint256","indexed":false,"internalType":"uint256"},{"name":"APR","type":"uint16","indexed":false,"internalType":"uint16"}],"anonymous":false},{"type":"event","name":"SetPaymentCycleDuration","inputs":[{"name":"poolId","type":"uint256","indexed":false,"internalType":"uint256"},{"name":"duration","type":"uint32","indexed":false,"internalType":"uint32"}],"anonymous":false},{"type":"event","name":"SetPaymentDefaultDuration","inputs":[{"name":"poolId","type":"uint256","indexed":false,"internalType":"uint256"},{"name":"duration","type":"uint32","indexed":false,"internalType":"uint32"}],"anonymous":false},{"type":"event","name":"SetPoolFee","inputs":[{"name":"poolId","type":"uint256","indexed":false,"internalType":"uint256"},{"name":"feePct","type":"uint16","indexed":false,"internalType":"uint16"}],"anonymous":false},{"type":"event","name":"SetPoolURI","inputs":[{"name":"poolId","type":"uint256","indexed":false,"internalType":"uint256"},{"name":"uri","type":"string","indexed":false,"internalType":"string"}],"anonymous":false},{"type":"event","name":"SetloanExpirationTime","inputs":[{"name":"poolId","type":"uint256","indexed":false,"internalType":"uint256"},{"name":"duration","type":"uint32","indexed":false,"internalType":"uint32"}],"anonymous":false},{"type":"event","name":"Unpaused","inputs":[{"name":"account","type":"address","indexed":false,"internalType":"address"}],"anonymous":false},{"type":"event","name":"Upgraded","inputs":[{"name":"implementation","type":"address","indexed":true,"internalType":"address"}],"anonymous":false},{"type":"event","name":"poolClosed","inputs":[{"name":"poolId","type":"uint256","indexed":false,"internalType":"uint256"}],"anonymous":false},{"type":"event","name":"poolCreated","inputs":[{"name":"owner","type":"address","indexed":true,"internalType":"address"},{"name":"poolAddress","type":"address","indexed":false,"internalType":"address"},{"name":"poolId","type":"uint256","indexed":false,"internalType":"uint256"}],"anonymous":false}],"bytecode":{"object":"0x60a0604052306080523480156200001557600080fd5b506200002062000026565b620000e8565b600054610100900460ff1615620000935760405162461bcd60e51b815260206004820152602760248201527f496e697469616c697a61626c653a20636f6e747261637420697320696e697469604482015266616c697a696e6760c81b606482015260840160405180910390fd5b60005460ff9081161015620000e6576000805460ff191660ff9081179091556040519081527f7f26b83ff96e1f2b6a682f133852f6798a09c465da95921460cefb38474024989060200160405180910390a15b565b60805161327d6200012060003960008181610a7001528181610ab001528181610d8d01528181610dcd0152610e5c015261327d6000f3fe60806040526004361061025b5760003560e01c8063805deb5311610144578063d404b957116100b6578063f2fde38b1161007a578063f2fde38b146107b8578063f32db0ec146107d8578063f525cb681461080d578063f8795c0314610824578063f8ce320614610844578063fa9fe9161461086457600080fd5b8063d404b95714610717578063da5de1a214610737578063dadf422e14610757578063e18bdb8314610778578063e8c17e7e1461079857600080fd5b8063a53c120111610108578063a53c12011461061b578063a8380df11461063b578063abd115ec1461066c578063c0c53b8b1461068c578063c28ba8eb146106ac578063cdba0667146106ea57600080fd5b8063805deb531461057c5780638456cb59146105b3578063896fdb93146105c85780638da5cb5b146105e8578063911347151461060657600080fd5b80633c0db788116101dd5780635c975abb116101a15780635c975abb146104a4578063635f1e4d146104c8578063679700d9146105165780636e34b4e41461052d578063715018a6146105675780637174a21e146104c857600080fd5b80633c0db788146104225780633f4ba83a1461044757806348cef9da1461045c5780634f1ef2861461047c57806352d1902d1461048f57600080fd5b8063302de10f11610224578063302de10f1461036b5780633475ebbb146103a25780633659cfe6146103c257806336fdf4f0146103e257806337de615f1461040257600080fd5b8062a5ae211461026057806311bed5bb146102b45780632c4819aa146103075780632cd04700146103285780632f1be8f914610349575b600080fd5b34801561026c57600080fd5b5061029761027b366004612a4d565b600090815261013560205260409020546001600160a01b031690565b6040516001600160a01b0390911681526020015b60405180910390f35b3480156102c057600080fd5b506102f26102cf366004612a4d565b60009081526101356020526040902060070154600160201b900463ffffffff1690565b60405163ffffffff90911681526020016102ab565b34801561031357600080fd5b5061013254610297906001600160a01b031681565b34801561033457600080fd5b5061012d54610297906001600160a01b031681565b34801561035557600080fd5b50610369610364366004612a7f565b610879565b005b34801561037757600080fd5b5061038b610386366004612ac0565b6109ae565b6040805192151583526020830191909152016102ab565b3480156103ae57600080fd5b506103696103bd366004612ac0565b6109ef565b3480156103ce57600080fd5b506103696103dd366004612af0565b610a65565b3480156103ee57600080fd5b506103696103fd366004612b1d565b610b45565b34801561040e57600080fd5b5061036961041d366004612a4d565b610c43565b34801561042e57600080fd5b5061043961012e5481565b6040519081526020016102ab565b34801561045357600080fd5b50610369610cf7565b34801561046857600080fd5b50610369610477366004612b84565b610d09565b61036961048a366004612c2e565b610d82565b34801561049b57600080fd5b50610439610e4f565b3480156104b057600080fd5b5060655460ff165b60405190151581526020016102ab565b3480156104d457600080fd5b506105036104e3366004612a4d565b6000908152610135602052604090206003015462010000900461ffff1690565b60405161ffff90911681526020016102ab565b34801561052257600080fd5b5061043961012f5481565b34801561053957600080fd5b50610297610548366004612a4d565b600090815261013560205260409020600101546001600160a01b031690565b34801561057357600080fd5b50610369610f02565b34801561058857600080fd5b506102f2610597366004612a4d565b6000908152610135602052604090206007015463ffffffff1690565b3480156105bf57600080fd5b50610369610f14565b3480156105d457600080fd5b506104396105e3366004612d00565b610f24565b3480156105f457600080fd5b506097546001600160a01b0316610297565b34801561061257600080fd5b5061050361111d565b34801561062757600080fd5b50610369610636366004612ac0565b611191565b34801561064757600080fd5b506104b8610656366004612a4d565b6000908152610133602052604090205460ff1690565b34801561067857600080fd5b50610369610687366004612af0565b611207565b34801561069857600080fd5b506103696106a7366004612db0565b611232565b3480156106b857600080fd5b506102f26106c7366004612a4d565b60009081526101356020526040902060070154600160401b900463ffffffff1690565b3480156106f657600080fd5b5061070a610705366004612a4d565b6115c3565b6040516102ab9190612e53565b34801561072357600080fd5b50610369610732366004612e66565b611669565b34801561074357600080fd5b5061038b610752366004612ac0565b61175d565b34801561076357600080fd5b5061013154610297906001600160a01b031681565b34801561078457600080fd5b50610369610793366004612a7f565b611792565b3480156107a457600080fd5b506103696107b3366004612ac0565b611875565b3480156107c457600080fd5b506103696107d3366004612af0565b6118eb565b3480156107e457600080fd5b506105036107f3366004612a4d565b6000908152610135602052604090206003015461ffff1690565b34801561081957600080fd5b506104396101345481565b34801561083057600080fd5b5061036961083f366004612b1d565b611961565b34801561085057600080fd5b5061036961085f366004612ac0565b611a70565b34801561087057600080fd5b50610297611ae6565b6000828152610135602052604090206001015482906001600160a01b031633146108be5760405162461bcd60e51b81526004016108b590612eb2565b60405180910390fd5b63ffffffff82166109115760405162461bcd60e51b815260206004820152601c60248201527f64656661756c74206475726174696f6e2063616e6e6f7420626520300000000060448201526064016108b5565b6000838152610135602052604090206007015463ffffffff838116600160201b90920416146109a95760008381526101356020908152604091829020600701805467ffffffff000000001916600160201b63ffffffff8716908102919091179091558251868152918201527f3e49e2efeacab7e8344acd4e7940449bf62039aa3734c34fa6d3525654be810191015b60405180910390a15b505050565b600082815261013560205260408120600781015482916109e3918591600160601b90910460ff1690600a810190600801611b55565b915091505b9250929050565b6109f7611c21565b6000828152610135602052604090206001015482906001600160a01b03163314610a335760405162461bcd60e51b81526004016108b590612eb2565b60008381526101356020526040902060070154600160601b900460ff16610a5957600080fd5b6109a983836000611c67565b306001600160a01b037f0000000000000000000000000000000000000000000000000000000000000000161415610aae5760405162461bcd60e51b81526004016108b590612ed9565b7f00000000000000000000000000000000000000000000000000000000000000006001600160a01b0316610af7600080516020613201833981519152546001600160a01b031690565b6001600160a01b031614610b1d5760405162461bcd60e51b81526004016108b590612f25565b610b2681611d2f565b60408051600080825260208201909252610b4291839190611d37565b50565b6000828152610135602052604090206001015482906001600160a01b03163314610b815760405162461bcd60e51b81526004016108b590612eb2565b60648261ffff161015610bca5760405162461bcd60e51b8152602060048201526011602482015270676976656e2061707220746f6f206c6f7760781b60448201526064016108b5565b6000838152610135602052604090206003015461ffff8381169116146109a95760008381526101356020908152604091829020600301805461ffff191661ffff86169081179091558251868152918201527f8152ec7f9ed82e09b6ee5e8ff40a31e15a21387cd3e66abe901c1c7c7545130991016109a0565b610c4b611c21565b6000818152610135602052604090206001015481906001600160a01b03163314610c875760405162461bcd60e51b81526004016108b590612eb2565b6000828152610133602052604090205460ff16610cf3576000828152610133602052604090819020805460ff19166001179055517fe2fb6ff747c653a1ea203ce1b388244509c7948f7afcf260b8f4f88bb23b39a290610cea9084815260200190565b60405180910390a15b5050565b610cff611ea2565b610d07611efc565b565b6000878152610135602052604090206001015487906001600160a01b03163314610d455760405162461bcd60e51b81526004016108b590612eb2565b610d4f8885610b45565b610d598888610879565b610d638886611961565b610d6d8887611792565b610d78888484611669565b5050505050505050565b306001600160a01b037f0000000000000000000000000000000000000000000000000000000000000000161415610dcb5760405162461bcd60e51b81526004016108b590612ed9565b7f00000000000000000000000000000000000000000000000000000000000000006001600160a01b0316610e14600080516020613201833981519152546001600160a01b031690565b6001600160a01b031614610e3a5760405162461bcd60e51b81526004016108b590612f25565b610e4382611d2f565b610cf382826001611d37565b6000306001600160a01b037f00000000000000000000000000000000000000000000000000000000000000001614610eef5760405162461bcd60e51b815260206004820152603860248201527f555550535570677261646561626c653a206d757374206e6f742062652063616c60448201527f6c6564207468726f7567682064656c656761746563616c6c000000000000000060648201526084016108b5565b5060008051602061320183398151915290565b610f0a611ea2565b610d076000611f4e565b610f1c611ea2565b610d07611fa0565b6000610f2e611c21565b61013460008154610f3e90612f87565b918290555061013254604051636520472b60e11b81523360048201523060248201526001600160a01b03909116604482015290915060009073__$b5422bcb38fcaf940b7a164323d6eb716b$__9063ca408e5690606401602060405180830381865af4158015610fb2573d6000803e3d6000fd5b505050506040513d601f19601f82011682018060405250810190610fd69190612fa2565b60008381526101356020526040902080546001600160a01b0383166001600160a01b03199182161782556001909101805490911633179055905061101a8288610b45565b600082815261013560205260409020600701805463ffffffff191662278d00179055611046828b610879565b6110508289611961565b61105a828a611792565b611065828787611669565b831561109957600082815261013560205260409020600301805464ff000000001916600160201b1790556110998233611875565b82156110cc57600082815261013560205260409020600701805460ff60601b1916600160601b1790556110cc8233611191565b604080516001600160a01b03831681526020810184905233917f407eac4ec3d5da6bb83c52c3817e2b7e46268bb1e945cc2494b7c01e06d2beae910160405180910390a25098975050505050505050565b610131546040805163fa31eb4960e01b815290516000926001600160a01b03169163fa31eb499160048083019260209291908290030181865afa158015611168573d6000803e3d6000fd5b505050506040513d601f19601f8201168201806040525081019061118c9190612fbf565b905090565b611199611c21565b6000828152610135602052604090206001015482906001600160a01b031633146111d55760405162461bcd60e51b81526004016108b590612eb2565b60008381526101356020526040902060070154600160601b900460ff166111fb57600080fd5b6109a983836000611fdd565b61120f611ea2565b61013280546001600160a01b0319166001600160a01b0392909216919091179055565b600054610100900460ff16158080156112525750600054600160ff909116105b8061126c5750303b15801561126c575060005460ff166001145b6112cf5760405162461bcd60e51b815260206004820152602e60248201527f496e697469616c697a61626c653a20636f6e747261637420697320616c72656160448201526d191e481a5b9a5d1a585b1a5e995960921b60648201526084016108b5565b6000805460ff1916600117905580156112f2576000805461ff0019166101001790555b6112fa61212f565b61130261215e565b61130a61218d565b6113126121bc565b61013280546001600160a01b038085166001600160a01b03199283161790925561012d80548784169083168117909155610131805493871693909216929092179055604080516381fa6cd360e01b815290516381fa6cd3916004808201926020929091908290030181865afa15801561138f573d6000803e3d6000fd5b505050506040513d601f19601f820116820180604052508101906113b39190612fa2565b6040516320bef72760e21b815260206004820152602760248201527f2875696e7432353620706f6f6c49642c2061646472657373206c656e646572416044820152666464726573732960c81b60648201526001600160a01b0391909116906382fbdc9c906084016020604051808303816000875af1158015611439573d6000803e3d6000fd5b505050506040513d601f19601f8201168201806040525081019061145d9190612fdc565b61012e81905550836001600160a01b03166381fa6cd36040518163ffffffff1660e01b8152600401602060405180830381865afa1580156114a2573d6000803e3d6000fd5b505050506040513d601f19601f820116820180604052508101906114c69190612fa2565b6040516320bef72760e21b815260206004820152602960248201527f2875696e7432353620706f6f6c49642c206164647265737320626f72726f776560448201526872416464726573732960b81b60648201526001600160a01b0391909116906382fbdc9c906084016020604051808303816000875af115801561154e573d6000803e3d6000fd5b505050506040513d601f19601f820116820180604052508101906115729190612fdc565b61012f5580156115bd576000805461ff0019169055604051600181527f7f26b83ff96e1f2b6a682f133852f6798a09c465da95921460cefb3847402498906020015b60405180910390a15b50505050565b6000818152610135602052604090206002018054606091906115e490612ff5565b80601f016020809104026020016040519081016040528092919081815260200182805461161090612ff5565b801561165d5780601f106116325761010080835404028352916020019161165d565b820191906000526020600020905b81548152906001019060200180831161164057829003601f168201915b50505050509050919050565b6000838152610135602052604090206001015483906001600160a01b031633146116a55760405162461bcd60e51b81526004016108b590612eb2565b6000848152610135602090815260409182902091516116c8926002019101613030565b6040516020818303038152906040528051906020012083836040516020016116f19291906130cc565b60405160208183030381529060405280519060200120146115bd576000848152610135602052604090206117299060020184846129b4565b507faea0b816063c817d82c498925319d9f08eb53332cf08ca227ea12c38a57146248484846040516115b4939291906130dc565b600082815261013560205260408120600381015482916109e3918591600160201b90910460ff16906006810190600401611b55565b6000828152610135602052604090206001015482906001600160a01b031633146117ce5760405162461bcd60e51b81526004016108b590612eb2565b63ffffffff82166117de57600080fd5b6000838152610135602052604090206007015463ffffffff838116600160401b90920416146109a9576000838152610135602090815260409182902060070180546bffffffff00000000000000001916600160401b63ffffffff8716908102919091179091558251868152918201527f8f28307b0f89abbef9b86fdb13ddc77894d04547390687daf215b2f1f63a0baa91016109a0565b61187d611c21565b6000828152610135602052604090206001015482906001600160a01b031633146118b95760405162461bcd60e51b81526004016108b590612eb2565b60008381526101356020526040902060030154600160201b900460ff166118df57600080fd5b6109a983836001611fdd565b6118f3611ea2565b6001600160a01b0381166119585760405162461bcd60e51b815260206004820152602660248201527f4f776e61626c653a206e6577206f776e657220697320746865207a65726f206160448201526564647265737360d01b60648201526084016108b5565b610b4281611f4e565b6000828152610135602052604090206001015482906001600160a01b0316331461199d5760405162461bcd60e51b81526004016108b590612eb2565b6103e88261ffff1611156119e75760405162461bcd60e51b815260206004820152601160248201527063616e6e6f74206578636565642031302560781b60448201526064016108b5565b6000838152610135602052604090206003015461ffff8381166201000090920416146109a95760008381526101356020908152604091829020600301805463ffff000019166201000061ffff8716908102919091179091558251868152918201527f24a1eddd3a54f274769832c6e6e16de4e3298679bac8b22e22820be8ef635b5991016109a0565b611a78611c21565b6000828152610135602052604090206001015482906001600160a01b03163314611ab45760405162461bcd60e51b81526004016108b590612eb2565b60008381526101356020526040902060030154600160201b900460ff16611ada57600080fd5b6109a983836001611c67565b6101315460408051634dd9ccb160e01b815290516000926001600160a01b031691634dd9ccb19160048083019260209291908290030181865afa158015611b31573d6000803e3d6000fd5b505050506040513d601f19601f8201168201806040525081019061118c9190612fa2565b6000808415611c1357611b6883876121e3565b8015611bf0575061012d546001600160a01b038781166000908152602087905260409081902054905163e56d679b60e01b8152600481019190915291169063e56d679b90602401602060405180830381865afa158015611bcc573d6000803e3d6000fd5b505050506040513d601f19601f82011682018060405250810190611bf09190613112565b6001600160a01b0387166000908152602086905260409020549092509050611c18565b600191505b94509492505050565b60655460ff1615610d075760405162461bcd60e51b815260206004820152601060248201526f14185d5cd8589b194e881c185d5cd95960821b60448201526064016108b5565b600083815261013560205260409020600101546001600160a01b03163314611cc65760405162461bcd60e51b81526020600482015260126024820152712737ba103a3432903837b7b61037bbb732b960711b60448201526064016108b5565b6000611cd384848461220a565b61012d54604051635bae3ee360e11b8152600481018390529192506001600160a01b03169063b75c7dc690602401600060405180830381600087803b158015611d1b57600080fd5b505af1158015610d78573d6000803e3d6000fd5b610b42611ea2565b7f4910fdfa16fed3260ed0e7147f7cc6da11a60208b5b9406d12a635614ffd91435460ff1615611d6a576109a98361231d565b826001600160a01b03166352d1902d6040518163ffffffff1660e01b8152600401602060405180830381865afa925050508015611dc4575060408051601f3d908101601f19168201909252611dc191810190612fdc565b60015b611e275760405162461bcd60e51b815260206004820152602e60248201527f45524331393637557067726164653a206e657720696d706c656d656e7461746960448201526d6f6e206973206e6f74205555505360901b60648201526084016108b5565b6000805160206132018339815191528114611e965760405162461bcd60e51b815260206004820152602960248201527f45524331393637557067726164653a20756e737570706f727465642070726f786044820152681a58589b195555525160ba1b60648201526084016108b5565b506109a98383836123b9565b6097546001600160a01b03163314610d075760405162461bcd60e51b815260206004820181905260248201527f4f776e61626c653a2063616c6c6572206973206e6f7420746865206f776e657260448201526064016108b5565b611f046123de565b6065805460ff191690557f5db9ee0a495bf2e6ff9c91a7834c1ba4fdd244a5e8aa4e537bd38aeae4b073aa335b6040516001600160a01b03909116815260200160405180910390a1565b609780546001600160a01b038381166001600160a01b0319831681179093556040519116919082907f8be0079c531659141344cd1fd0a4f28419497f9722a3daafe3b4186f6b6457e090600090a35050565b611fa8611c21565b6065805460ff191660011790557f62e78cea01bee320cd4e420270b5ea74000d11b0c9f74754ebdbfc544b05a258611f313390565b611fe5612427565b80611ff35761012f54611ff8565b61012e545b610130819055600084815261013560205260409020600101546001600160a01b0316331461205d5760405162461bcd60e51b81526020600482015260126024820152712737ba103a3432903837b7b61037bbb732b960711b60448201526064016108b5565b61012d54610130546040516000926001600160a01b03169163702b9dee918791906120a0908a9084906020019182526001600160a01b0316602082015260400190565b6040516020818303038152906040526040518463ffffffff1660e01b81526004016120cd9392919061312f565b6020604051808303816000875af11580156120ec573d6000803e3d6000fd5b505050506040513d601f19601f820116820180604052508101906121109190612fdc565b905061211e85858386612481565b50506000610130556109a960018055565b600054610100900460ff166121565760405162461bcd60e51b81526004016108b590613156565b610d07612647565b600054610100900460ff166121855760405162461bcd60e51b81526004016108b590613156565b610d0761266e565b600054610100900460ff166121b45760405162461bcd60e51b81526004016108b590613156565b610d0761269e565b600054610100900460ff16610d075760405162461bcd60e51b81526004016108b590613156565b6001600160a01b038116600090815260018301602052604081205415155b90505b92915050565b6000811561229657506000838152610135602081815260408084206001600160a01b0387168552600681018352908420549387905291905261224f90600401846126d1565b50604080518581526001600160a01b03851660208201527f6e7c30dc58d3daa1458c79b66ca464f5f3d8a23d9e50eb14daf1cb0923bf2900910160405180910390a1612316565b506000838152610135602081815260408084206001600160a01b0387168552600a8101835290842054938790529190526122d390600801846126d1565b50604080518581526001600160a01b03851660208201527fe76a3e8b220b622b9fc2a655ab867687a93f195809eb3639f422e60936ff7eb4910160405180910390a15b9392505050565b6001600160a01b0381163b61238a5760405162461bcd60e51b815260206004820152602d60248201527f455243313936373a206e657720696d706c656d656e746174696f6e206973206e60448201526c1bdd08184818dbdb9d1c9858dd609a1b60648201526084016108b5565b60008051602061320183398151915280546001600160a01b0319166001600160a01b0392909216919091179055565b6123c2836126e6565b6000825111806123cf5750805b156109a9576115bd8383612726565b60655460ff16610d075760405162461bcd60e51b815260206004820152601460248201527314185d5cd8589b194e881b9bdd081c185d5cd95960621b60448201526064016108b5565b6002600154141561247a5760405162461bcd60e51b815260206004820152601f60248201527f5265656e7472616e637947756172643a207265656e7472616e742063616c6c0060448201526064016108b5565b6002600155565b8015612555576000848152610135602081815260408084206001600160a01b038816855260068101835290842086905592879052526124c3906004018461281a565b61250f5760405162461bcd60e51b815260206004820152601860248201527f616464206c656e64657220746f20706f6f6c6661696c6564000000000000000060448201526064016108b5565b604080518581526001600160a01b03851660208201527f75675690de0899b0b869d83b44b2d926ac594426b2a0286c478ecdf815cbd33e910160405180910390a16115bd565b6000848152610135602081815260408084206001600160a01b0388168552600a810183529084208690559287905252612591906008018461281a565b6126035760405162461bcd60e51b815260206004820152603860248201527f61646420626f72726f776572206661696c65642c207665726966696564426f7260448201527f726f77657273466f72506f6f6c2e616464206661696c6564000000000000000060648201526084016108b5565b604080518581526001600160a01b03851660208201527f0c2cfc7e7a16ebee66e77fb314f4bfdb5505e33e77d41c0c60604efc70fd926b91016115b4565b60018055565b600054610100900460ff166126415760405162461bcd60e51b81526004016108b590613156565b600054610100900460ff166126955760405162461bcd60e51b81526004016108b590613156565b610d0733611f4e565b600054610100900460ff166126c55760405162461bcd60e51b81526004016108b590613156565b6065805460ff19169055565b6000612201836001600160a01b03841661282f565b6126ef8161231d565b6040516001600160a01b038216907fbc7cd75a20ee27fd9adebab32041f755214dbc6bffa90cc0225b39da2e5c2d3b90600090a250565b60606001600160a01b0383163b61278e5760405162461bcd60e51b815260206004820152602660248201527f416464726573733a2064656c65676174652063616c6c20746f206e6f6e2d636f6044820152651b9d1c9858dd60d21b60648201526084016108b5565b600080846001600160a01b0316846040516127a991906131a1565b600060405180830381855af49150503d80600081146127e4576040519150601f19603f3d011682016040523d82523d6000602084013e6127e9565b606091505b5091509150612811828260405180606001604052806027815260200161322160279139612922565b95945050505050565b6000612201836001600160a01b03841661293b565b600081815260018301602052604081205480156129185760006128536001836131bd565b8554909150600090612867906001906131bd565b90508181146128cc576000866000018281548110612887576128876131d4565b90600052602060002001549050808760000184815481106128aa576128aa6131d4565b6000918252602080832090910192909255918252600188019052604090208390555b85548690806128dd576128dd6131ea565b600190038181906000526020600020016000905590558560010160008681526020019081526020016000206000905560019350505050612204565b6000915050612204565b60608315612931575081612316565b612316838361298a565b600081815260018301602052604081205461298257508154600181810184556000848152602080822090930184905584548482528286019093526040902091909155612204565b506000612204565b81511561299a5781518083602001fd5b8060405162461bcd60e51b81526004016108b59190612e53565b8280546129c090612ff5565b90600052602060002090601f0160209004810192826129e25760008555612a28565b82601f106129fb5782800160ff19823516178555612a28565b82800160010185558215612a28579182015b82811115612a28578235825591602001919060010190612a0d565b50612a34929150612a38565b5090565b5b80821115612a345760008155600101612a39565b600060208284031215612a5f57600080fd5b5035919050565b803563ffffffff81168114612a7a57600080fd5b919050565b60008060408385031215612a9257600080fd5b82359150612aa260208401612a66565b90509250929050565b6001600160a01b0381168114610b4257600080fd5b60008060408385031215612ad357600080fd5b823591506020830135612ae581612aab565b809150509250929050565b600060208284031215612b0257600080fd5b813561231681612aab565b61ffff81168114610b4257600080fd5b60008060408385031215612b3057600080fd5b823591506020830135612ae581612b0d565b60008083601f840112612b5457600080fd5b50813567ffffffffffffffff811115612b6c57600080fd5b6020830191508360208285010111156109e857600080fd5b600080600080600080600060c0888a031215612b9f57600080fd5b87359650612baf60208901612a66565b9550612bbd60408901612a66565b94506060880135612bcd81612b0d565b93506080880135612bdd81612b0d565b925060a088013567ffffffffffffffff811115612bf957600080fd5b612c058a828b01612b42565b989b979a50959850939692959293505050565b634e487b7160e01b600052604160045260246000fd5b60008060408385031215612c4157600080fd5b8235612c4c81612aab565b9150602083013567ffffffffffffffff80821115612c6957600080fd5b818501915085601f830112612c7d57600080fd5b813581811115612c8f57612c8f612c18565b604051601f8201601f19908116603f01168101908382118183101715612cb757612cb7612c18565b81604052828152886020848701011115612cd057600080fd5b8260208601602083013760006020848301015280955050505050509250929050565b8015158114610b4257600080fd5b60008060008060008060008060e0898b031215612d1c57600080fd5b612d2589612a66565b9750612d3360208a01612a66565b96506040890135612d4381612b0d565b95506060890135612d5381612b0d565b9450608089013567ffffffffffffffff811115612d6f57600080fd5b612d7b8b828c01612b42565b90955093505060a0890135612d8f81612cf2565b915060c0890135612d9f81612cf2565b809150509295985092959890939650565b600080600060608486031215612dc557600080fd5b8335612dd081612aab565b92506020840135612de081612aab565b91506040840135612df081612aab565b809150509250925092565b60005b83811015612e16578181015183820152602001612dfe565b838111156115bd5750506000910152565b60008151808452612e3f816020860160208601612dfb565b601f01601f19169290920160200192915050565b6020815260006122016020830184612e27565b600080600060408486031215612e7b57600080fd5b83359250602084013567ffffffffffffffff811115612e9957600080fd5b612ea586828701612b42565b9497909650939450505050565b6020808252600d908201526c2737ba103a34329037bbb732b960991b604082015260600190565b6020808252602c908201527f46756e6374696f6e206d7573742062652063616c6c6564207468726f7567682060408201526b19195b1959d85d1958d85b1b60a21b606082015260800190565b6020808252602c908201527f46756e6374696f6e206d7573742062652063616c6c6564207468726f7567682060408201526b6163746976652070726f787960a01b606082015260800190565b634e487b7160e01b600052601160045260246000fd5b6000600019821415612f9b57612f9b612f71565b5060010190565b600060208284031215612fb457600080fd5b815161231681612aab565b600060208284031215612fd157600080fd5b815161231681612b0d565b600060208284031215612fee57600080fd5b5051919050565b600181811c9082168061300957607f821691505b6020821081141561302a57634e487b7160e01b600052602260045260246000fd5b50919050565b600080835481600182811c91508083168061304c57607f831692505b602080841082141561306c57634e487b7160e01b86526022600452602486fd5b8180156130805760018114613091576130be565b60ff198616895284890196506130be565b60008a81526020902060005b868110156130b65781548b82015290850190830161309d565b505084890196505b509498975050505050505050565b8183823760009101908152919050565b83815260406020820152816040820152818360608301376000818301606090810191909152601f909201601f1916010192915050565b60006020828403121561312457600080fd5b815161231681612cf2565b60018060a01b03841681528260208201526060604082015260006128116060830184612e27565b6020808252602b908201527f496e697469616c697a61626c653a20636f6e7472616374206973206e6f74206960408201526a6e697469616c697a696e6760a81b606082015260800190565b600082516131b3818460208701612dfb565b9190910192915050565b6000828210156131cf576131cf612f71565b500390565b634e487b7160e01b600052603260045260246000fd5b634e487b7160e01b600052603160045260246000fdfe360894a13ba1a3210667c828492db98dca3e2076cc3735a920a3ca505d382bbc416464726573733a206c6f772d6c6576656c2064656c65676174652063616c6c206661696c6564a26469706673582212202026b9822a431811894c2ffe709cacfb57243f7e0edf19a5979086ea6c132d0264736f6c634300080b0033","linkReferences":{"contracts/Libraries/LibPool.sol":{"LibPool":[{"start":4248,"length":20}]}}},"methodIdentifiers":{"AconomyFeeAddress()":"dadf422e","ClosedPool(uint256)":"a8380df1","FundingPoolAddress()":"2c4819aa","addBorrower(uint256,address)":"a53c1201","addLender(uint256,address)":"e8c17e7e","attestationService()":"2cd04700","borrowerAttestationSchemaId()":"679700d9","borrowerVerification(uint256,address)":"302de10f","changeFundingPoolImplementation(address)":"abd115ec","changePoolSetting(uint256,uint32,uint32,uint16,uint16,string)":"48cef9da","closePool(uint256)":"37de615f","createPool(uint32,uint32,uint16,uint16,string,bool,bool)":"896fdb93","getAconomyFee()":"91134715","getAconomyOwner()":"fa9fe916","getPaymentCycleDuration(uint256)":"805deb53","getPaymentDefaultDuration(uint256)":"11bed5bb","getPoolAddress(uint256)":"00a5ae21","getPoolApr(uint256)":"f32db0ec","getPoolFee(uint256)":"635f1e4d","getPoolFeePercent(uint256)":"7174a21e","getPoolOwner(uint256)":"6e34b4e4","getPoolUri(uint256)":"cdba0667","getloanExpirationTime(uint256)":"c28ba8eb","initialize(address,address,address)":"c0c53b8b","lenderAttestationSchemaId()":"3c0db788","lenderVerification(uint256,address)":"da5de1a2","owner()":"8da5cb5b","pause()":"8456cb59","paused()":"5c975abb","poolCount()":"f525cb68","proxiableUUID()":"52d1902d","removeBorrower(uint256,address)":"3475ebbb","removeLender(uint256,address)":"f8ce3206","renounceOwnership()":"715018a6","setApr(uint256,uint16)":"36fdf4f0","setPaymentDefaultDuration(uint256,uint32)":"2f1be8f9","setPoolFeePercent(uint256,uint16)":"f8795c03","setPoolURI(uint256,string)":"d404b957","setloanExpirationTime(uint256,uint32)":"e18bdb83","transferOwnership(address)":"f2fde38b","unpause()":"3f4ba83a","upgradeTo(address)":"3659cfe6","upgradeToAndCall(address,bytes)":"4f1ef286"},"id":22}