{"abi":[{"type":"function","name":"AconomyFeeAddress","inputs":[],"outputs":[{"name":"","type":"address","internalType":"address"}],"stateMutability":"view"},{"type":"function","name":"borrowerLoans","inputs":[{"name":"","type":"address","internalType":"address"},{"name":"","type":"uint256","internalType":"uint256"}],"outputs":[{"name":"","type":"uint256","internalType":"uint256"}],"stateMutability":"view"},{"type":"function","name":"lenderLendAmount","inputs":[{"name":"","type":"address","internalType":"address"},{"name":"","type":"address","internalType":"address"}],"outputs":[{"name":"","type":"uint256","internalType":"uint256"}],"stateMutability":"view"},{"type":"function","name":"loanDefaultDuration","inputs":[{"name":"","type":"uint256","internalType":"uint256"}],"outputs":[{"name":"","type":"uint32","internalType":"uint32"}],"stateMutability":"view"},{"type":"function","name":"loanExpirationDuration","inputs":[{"name":"","type":"uint256","internalType":"uint256"}],"outputs":[{"name":"","type":"uint32","internalType":"uint32"}],"stateMutability":"view"},{"type":"function","name":"loanId","inputs":[],"outputs":[{"name":"","type":"uint256","internalType":"uint256"}],"stateMutability":"view"},{"type":"function","name":"loans","inputs":[{"name":"","type":"uint256","internalType":"uint256"}],"outputs":[{"name":"borrower","type":"address","internalType":"address"},{"name":"receiver","type":"address","internalType":"address"},{"name":"lender","type":"address","internalType":"address"},{"name":"poolId","type":"uint256","internalType":"uint256"},{"name":"loanDetails","type":"tuple","internalType":"struct poolStorage.LoanDetails","components":[{"name":"lendingToken","type":"address","internalType":"contract ERC20"},{"name":"principal","type":"uint256","internalType":"uint256"},{"name":"totalRepaid","type":"tuple","internalType":"struct poolStorage.Payment","components":[{"name":"principal","type":"uint256","internalType":"uint256"},{"name":"interest","type":"uint256","internalType":"uint256"}]},{"name":"timestamp","type":"uint32","internalType":"uint32"},{"name":"acceptedTimestamp","type":"uint32","internalType":"uint32"},{"name":"lastRepaidTimestamp","type":"uint32","internalType":"uint32"},{"name":"loanDuration","type":"uint32","internalType":"uint32"},{"name":"protocolFee","type":"uint16","internalType":"uint16"}]},{"name":"terms","type":"tuple","internalType":"struct poolStorage.Terms","components":[{"name":"paymentCycleAmount","type":"uint256","internalType":"uint256"},{"name":"monthlyCycleInterest","type":"uint256","internalType":"uint256"},{"name":"paymentCycle","type":"uint32","internalType":"uint32"},{"name":"APR","type":"uint16","internalType":"uint16"},{"name":"installments","type":"uint32","internalType":"uint32"},{"name":"installmentsPaid","type":"uint32","internalType":"uint32"}]},{"name":"state","type":"uint8","internalType":"enum poolStorage.LoanState"}],"stateMutability":"view"},{"type":"function","name":"poolLoans","inputs":[{"name":"","type":"uint256","internalType":"uint256"}],"outputs":[{"name":"","type":"uint256","internalType":"uint256"}],"stateMutability":"view"},{"type":"function","name":"poolRegistryAddress","inputs":[],"outputs":[{"name":"","type":"address","internalType":"address"}],"stateMutability":"view"},{"type":"function","name":"totalERC20Amount","inputs":[{"name":"","type":"address","internalType":"address"}],"outputs":[{"name":"","type":"uint256","internalType":"uint256"}],"stateMutability":"view"},{"type":"event","name":"Initialized","inputs":[{"name":"version","type":"uint8","indexed":false,"internalType":"uint8"}],"anonymous":false}],"bytecode":{"object":"0x608060405234801561001057600080fd5b506106b0806100206000396000f3fe608060405234801561001057600080fd5b506004361061009e5760003560e01c8063c95669a511610066578063c95669a514610182578063dadf422e1461018b578063e1ec3c681461019e578063e3ed19021461041b578063fee870e91461042e57600080fd5b806330f2670c146100a3578063376e4988146100d6578063598901c6146100f65780638cda457114610121578063a48fa2121461015c575b600080fd5b6100c36100b13660046104a6565b60056020526000908152604090205481565b6040519081526020015b60405180910390f35b6100c36100e43660046104c8565b60036020526000908152604090205481565b600a54610109906001600160a01b031681565b6040516001600160a01b0390911681526020016100cd565b61014761012f3660046104c8565b60076020526000908152604090205463ffffffff1681565b60405163ffffffff90911681526020016100cd565b61014761016a3660046104c8565b60086020526000908152604090205463ffffffff1681565b6100c360015481565b600b54610109906001600160a01b031681565b6104086101ac3660046104c8565b60026020528060005260406000206000915090508060000160009054906101000a90046001600160a01b0316908060010160009054906101000a90046001600160a01b0316908060020160009054906101000a90046001600160a01b03169080600301549080600401604051806101000160405290816000820160009054906101000a90046001600160a01b03166001600160a01b03166001600160a01b0316815260200160018201548152602001600282016040518060400160405290816000820154815260200160018201548152505081526020016004820160009054906101000a900463ffffffff1663ffffffff1663ffffffff1681526020016004820160049054906101000a900463ffffffff1663ffffffff1663ffffffff1681526020016004820160089054906101000a900463ffffffff1663ffffffff1663ffffffff16815260200160048201600c9054906101000a900463ffffffff1663ffffffff1663ffffffff1681526020016004820160109054906101000a900461ffff1661ffff1661ffff168152505090806009016040518060c001604052908160008201548152602001600182015481526020016002820160009054906101000a900463ffffffff1663ffffffff1663ffffffff1681526020016002820160049054906101000a900461ffff1661ffff1661ffff1681526020016002820160069054906101000a900463ffffffff1663ffffffff1663ffffffff16815260200160028201600a9054906101000a900463ffffffff1663ffffffff1663ffffffff16815250509080600c0160009054906101000a900460ff16905087565b6040516100cd9796959493929190610503565b6100c361042936600461061d565b610459565b6100c361043c366004610647565b600960209081526000928352604080842090915290825290205481565b6006602052816000526040600020818154811061047557600080fd5b90600052602060002001600091509150505481565b80356001600160a01b03811681146104a157600080fd5b919050565b6000602082840312156104b857600080fd5b6104c18261048a565b9392505050565b6000602082840312156104da57600080fd5b5035919050565b600481106104ff57634e487b7160e01b600052602160045260246000fd5b9052565b6001600160a01b0388811682528781166020808401919091528782166040808501919091526060808501899052875190931660808501528682015160a0850152860151805160c0850152015160e083015284015163ffffffff811661010083015261028082019050608085015163ffffffff81166101208401525060a085015163ffffffff81166101408401525060c085015163ffffffff81166101608401525060e085015161ffff81166101808401525083516101a083015260208401516101c0830152604084015163ffffffff9081166101e0840152606085015161ffff166102008401526080850151811661022084015260a0850151166102408301526106116102608301846104e1565b98975050505050505050565b6000806040838503121561063057600080fd5b6106398361048a565b946020939093013593505050565b6000806040838503121561065a57600080fd5b6106638361048a565b91506106716020840161048a565b9050925092905056fea264697066735822122088f26b757d52a859589ff88b13d5bf1c7cd00926809db4ae719ae32006d29bef64736f6c634300080b0033","linkReferences":{}},"methodIdentifiers":{"AconomyFeeAddress()":"dadf422e","borrowerLoans(address,uint256)":"e3ed1902","lenderLendAmount(address,address)":"fee870e9","loanDefaultDuration(uint256)":"8cda4571","loanExpirationDuration(uint256)":"a48fa212","loanId()":"c95669a5","loans(uint256)":"e1ec3c68","poolLoans(uint256)":"376e4988","poolRegistryAddress()":"598901c6","totalERC20Amount(address)":"30f2670c"},"id":23}