{
  "_format": "hh-sol-artifact-1",
  "contractName": "validatorStake",
  "sourceName": "contracts/validatorStake.sol",
  "abi": [
    {
      "inputs": [],
      "stateMutability": "nonpayable",
      "type": "constructor"
    },
    {
      "anonymous": false,
      "inputs": [
        {
          "indexed": false,
          "internalType": "address",
          "name": "previousAdmin",
          "type": "address"
        },
        {
          "indexed": false,
          "internalType": "address",
          "name": "newAdmin",
          "type": "address"
        }
      ],
      "name": "AdminChanged",
      "type": "event"
    },
    {
      "anonymous": false,
      "inputs": [
        {
          "indexed": true,
          "internalType": "address",
          "name": "beacon",
          "type": "address"
        }
      ],
      "name": "BeaconUpgraded",
      "type": "event"
    },
    {
      "anonymous": false,
      "inputs": [
        {
          "indexed": false,
          "internalType": "uint8",
          "name": "version",
          "type": "uint8"
        }
      ],
      "name": "Initialized",
      "type": "event"
    },
    {
      "anonymous": false,
      "inputs": [
        {
          "indexed": true,
          "internalType": "address",
          "name": "previousOwner",
          "type": "address"
        },
        {
          "indexed": true,
          "internalType": "address",
          "name": "newOwner",
          "type": "address"
        }
      ],
      "name": "OwnershipTransferred",
      "type": "event"
    },
    {
      "anonymous": false,
      "inputs": [
        {
          "indexed": false,
          "internalType": "address",
          "name": "account",
          "type": "address"
        }
      ],
      "name": "Paused",
      "type": "event"
    },
    {
      "anonymous": false,
      "inputs": [
        {
          "indexed": false,
          "internalType": "address",
          "name": "validator",
          "type": "address"
        },
        {
          "indexed": false,
          "internalType": "address",
          "name": "ERC20Address",
          "type": "address"
        },
        {
          "indexed": false,
          "internalType": "uint256",
          "name": "refundedAmount",
          "type": "uint256"
        },
        {
          "indexed": false,
          "internalType": "uint256",
          "name": "LeftStakedAmount",
          "type": "uint256"
        }
      ],
      "name": "RefundedStake",
      "type": "event"
    },
    {
      "anonymous": false,
      "inputs": [
        {
          "indexed": false,
          "internalType": "address",
          "name": "validator",
          "type": "address"
        },
        {
          "indexed": false,
          "internalType": "address",
          "name": "ERC20Address",
          "type": "address"
        },
        {
          "indexed": false,
          "internalType": "uint256",
          "name": "amount",
          "type": "uint256"
        },
        {
          "indexed": false,
          "internalType": "uint256",
          "name": "TotalStakedAmount",
          "type": "uint256"
        },
        {
          "indexed": false,
          "internalType": "bool",
          "name": "positionChange",
          "type": "bool"
        }
      ],
      "name": "Staked",
      "type": "event"
    },
    {
      "anonymous": false,
      "inputs": [
        {
          "indexed": false,
          "internalType": "address",
          "name": "account",
          "type": "address"
        }
      ],
      "name": "Unpaused",
      "type": "event"
    },
    {
      "anonymous": false,
      "inputs": [
        {
          "indexed": true,
          "internalType": "address",
          "name": "implementation",
          "type": "address"
        }
      ],
      "name": "Upgraded",
      "type": "event"
    },
    {
      "inputs": [
        {
          "internalType": "uint256",
          "name": "_amount",
          "type": "uint256"
        },
        {
          "internalType": "address",
          "name": "_ERC20Address",
          "type": "address"
        }
      ],
      "name": "addStake",
      "outputs": [],
      "stateMutability": "nonpayable",
      "type": "function"
    },
    {
      "inputs": [],
      "name": "initialize",
      "outputs": [],
      "stateMutability": "nonpayable",
      "type": "function"
    },
    {
      "inputs": [],
      "name": "owner",
      "outputs": [
        {
          "internalType": "address",
          "name": "",
          "type": "address"
        }
      ],
      "stateMutability": "view",
      "type": "function"
    },
    {
      "inputs": [],
      "name": "pause",
      "outputs": [],
      "stateMutability": "nonpayable",
      "type": "function"
    },
    {
      "inputs": [],
      "name": "paused",
      "outputs": [
        {
          "internalType": "bool",
          "name": "",
          "type": "bool"
        }
      ],
      "stateMutability": "view",
      "type": "function"
    },
    {
      "inputs": [],
      "name": "proxiableUUID",
      "outputs": [
        {
          "internalType": "bytes32",
          "name": "",
          "type": "bytes32"
        }
      ],
      "stateMutability": "view",
      "type": "function"
    },
    {
      "inputs": [
        {
          "internalType": "address",
          "name": "_validatorAddress",
          "type": "address"
        },
        {
          "internalType": "uint256",
          "name": "_refundAmount",
          "type": "uint256"
        }
      ],
      "name": "refundStake",
      "outputs": [],
      "stateMutability": "nonpayable",
      "type": "function"
    },
    {
      "inputs": [],
      "name": "renounceOwnership",
      "outputs": [],
      "stateMutability": "nonpayable",
      "type": "function"
    },
    {
      "inputs": [
        {
          "internalType": "uint256",
          "name": "_amount",
          "type": "uint256"
        },
        {
          "internalType": "address",
          "name": "_ERC20Address",
          "type": "address"
        }
      ],
      "name": "stake",
      "outputs": [],
      "stateMutability": "nonpayable",
      "type": "function"
    },
    {
      "inputs": [
        {
          "internalType": "address",
          "name": "newOwner",
          "type": "address"
        }
      ],
      "name": "transferOwnership",
      "outputs": [],
      "stateMutability": "nonpayable",
      "type": "function"
    },
    {
      "inputs": [],
      "name": "unpause",
      "outputs": [],
      "stateMutability": "nonpayable",
      "type": "function"
    },
    {
      "inputs": [
        {
          "internalType": "address",
          "name": "newImplementation",
          "type": "address"
        }
      ],
      "name": "upgradeTo",
      "outputs": [],
      "stateMutability": "nonpayable",
      "type": "function"
    },
    {
      "inputs": [
        {
          "internalType": "address",
          "name": "newImplementation",
          "type": "address"
        },
        {
          "internalType": "bytes",
          "name": "data",
          "type": "bytes"
        }
      ],
      "name": "upgradeToAndCall",
      "outputs": [],
      "stateMutability": "payable",
      "type": "function"
    },
    {
      "inputs": [
        {
          "internalType": "address",
          "name": "",
          "type": "address"
        }
      ],
      "name": "validatorStakes",
      "outputs": [
        {
          "internalType": "uint256",
          "name": "stakedAmount",
          "type": "uint256"
        },
        {
          "internalType": "uint256",
          "name": "refundedAmount",
          "type": "uint256"
        },
        {
          "internalType": "address",
          "name": "ERC20Token",
          "type": "address"
        }
      ],
      "stateMutability": "view",
      "type": "function"
    }
  ],
  "bytecode": "0x60a06040523073ffffffffffffffffffffffffffffffffffffffff1660809073ffffffffffffffffffffffffffffffffffffffff168152503480156200004457600080fd5b50620000556200005b60201b60201c565b62000205565b600060019054906101000a900460ff1615620000ae576040517f08c379a0000000000000000000000000000000000000000000000000000000008152600401620000a590620001a8565b60405180910390fd5b60ff801660008054906101000a900460ff1660ff16146200011f5760ff6000806101000a81548160ff021916908360ff1602179055507f7f26b83ff96e1f2b6a682f133852f6798a09c465da95921460cefb384740249860ff604051620001169190620001e8565b60405180910390a15b565b600082825260208201905092915050565b7f496e697469616c697a61626c653a20636f6e747261637420697320696e69746960008201527f616c697a696e6700000000000000000000000000000000000000000000000000602082015250565b60006200019060278362000121565b91506200019d8262000132565b604082019050919050565b60006020820190508181036000830152620001c38162000181565b9050919050565b600060ff82169050919050565b620001e281620001ca565b82525050565b6000602082019050620001ff6000830184620001d7565b92915050565b608051612b686200023d600039600081816105d1015281816106600152818161076c015281816107fb01526108ab0152612b686000f3fe6080604052600436106100dd5760003560e01c8063715018a61161007f5780638456cb59116100595780638456cb591461023d5780638da5cb5b14610254578063aa7355781461027f578063f2fde38b146102be576100dd565b8063715018a6146101e65780637acb7757146101fd5780638129fc1c14610226576100dd565b80633f4ba83a116100bb5780633f4ba83a1461015d5780634f1ef2861461017457806352d1902d146101905780635c975abb146101bb576100dd565b80631603378e146100e25780632d49aa1c1461010b5780633659cfe614610134575b600080fd5b3480156100ee57600080fd5b5061010960048036038101906101049190611ab0565b6102e7565b005b34801561011757600080fd5b50610132600480360381019061012d9190611af0565b6105a6565b005b34801561014057600080fd5b5061015b60048036038101906101569190611b30565b6105cf565b005b34801561016957600080fd5b50610172610758565b005b61018e60048036038101906101899190611ca3565b61076a565b005b34801561019c57600080fd5b506101a56108a7565b6040516101b29190611d18565b60405180910390f35b3480156101c757600080fd5b506101d0610960565b6040516101dd9190611d4e565b60405180910390f35b3480156101f257600080fd5b506101fb610977565b005b34801561020957600080fd5b50610224600480360381019061021f9190611af0565b61098b565b005b34801561023257600080fd5b5061023b6109b4565b005b34801561024957600080fd5b50610252610b02565b005b34801561026057600080fd5b50610269610b14565b6040516102769190611d78565b60405180910390f35b34801561028b57600080fd5b506102a660048036038101906102a19190611b30565b610b3e565b6040516102b593929190611da2565b60405180910390f35b3480156102ca57600080fd5b506102e560048036038101906102e09190611b30565b610b89565b005b6102ef610c0d565b6102f7610c57565b6102ff610ca7565b600073ffffffffffffffffffffffffffffffffffffffff168273ffffffffffffffffffffffffffffffffffffffff16141561036f576040517f08c379a000000000000000000000000000000000000000000000000000000000815260040161036690611e36565b60405180910390fd5b600081116103b2576040517f08c379a00000000000000000000000000000000000000000000000000000000081526004016103a990611ea2565b60405180910390fd5b600061012d60008473ffffffffffffffffffffffffffffffffffffffff1673ffffffffffffffffffffffffffffffffffffffff16815260200190815260200160002090508181600001600082825461040a9190611ef1565b92505081905550818160010160008282546104259190611f25565b92505081905550600061012d60008573ffffffffffffffffffffffffffffffffffffffff1673ffffffffffffffffffffffffffffffffffffffff16815260200190815260200160002060020160009054906101000a900473ffffffffffffffffffffffffffffffffffffffff16905060008173ffffffffffffffffffffffffffffffffffffffff1663a9059cbb86866040518363ffffffff1660e01b81526004016104d1929190611f7b565b6020604051808303816000875af11580156104f0573d6000803e3d6000fd5b505050506040513d601f19601f820116820180604052508101906105149190611fd0565b905080610556576040517f08c379a000000000000000000000000000000000000000000000000000000000815260040161054d90612049565b60405180910390fd5b7f35011fed49bb8202404204c84a13db42f75a1b1a4b5b47240c408ef0914cb777858386866000015460405161058f9493929190612069565b60405180910390a15050506105a2610d25565b5050565b6105ae610c0d565b6105b6610c57565b6105c38282336001610d2f565b6105cb610d25565b5050565b7f000000000000000000000000000000000000000000000000000000000000000073ffffffffffffffffffffffffffffffffffffffff163073ffffffffffffffffffffffffffffffffffffffff16141561065e576040517f08c379a000000000000000000000000000000000000000000000000000000000815260040161065590612120565b60405180910390fd5b7f000000000000000000000000000000000000000000000000000000000000000073ffffffffffffffffffffffffffffffffffffffff1661069d6111ba565b73ffffffffffffffffffffffffffffffffffffffff16146106f3576040517f08c379a00000000000000000000000000000000000000000000000000000000081526004016106ea906121b2565b60405180910390fd5b6106fc81611211565b61075581600067ffffffffffffffff81111561071b5761071a611b78565b5b6040519080825280601f01601f19166020018201604052801561074d5781602001600182028036833780820191505090505b50600061121c565b50565b610760610ca7565b61076861138a565b565b7f000000000000000000000000000000000000000000000000000000000000000073ffffffffffffffffffffffffffffffffffffffff163073ffffffffffffffffffffffffffffffffffffffff1614156107f9576040517f08c379a00000000000000000000000000000000000000000000000000000000081526004016107f090612120565b60405180910390fd5b7f000000000000000000000000000000000000000000000000000000000000000073ffffffffffffffffffffffffffffffffffffffff166108386111ba565b73ffffffffffffffffffffffffffffffffffffffff161461088e576040517f08c379a0000000000000000000000000000000000000000000000000000000008152600401610885906121b2565b60405180910390fd5b61089782611211565b6108a38282600161121c565b5050565b60007f000000000000000000000000000000000000000000000000000000000000000073ffffffffffffffffffffffffffffffffffffffff163073ffffffffffffffffffffffffffffffffffffffff1614610937576040517f08c379a000000000000000000000000000000000000000000000000000000000815260040161092e90612244565b60405180910390fd5b7f360894a13ba1a3210667c828492db98dca3e2076cc3735a920a3ca505d382bbc60001b905090565b6000606560009054906101000a900460ff16905090565b61097f610ca7565b61098960006113ed565b565b610993610c0d565b61099b610c57565b6109a88282336000610d2f565b6109b0610d25565b5050565b60008060019054906101000a900460ff161590508080156109e55750600160008054906101000a900460ff1660ff16105b80610a1257506109f4306114b3565b158015610a115750600160008054906101000a900460ff1660ff16145b5b610a51576040517f08c379a0000000000000000000000000000000000000000000000000000000008152600401610a48906122d6565b60405180910390fd5b60016000806101000a81548160ff021916908360ff1602179055508015610a8e576001600060016101000a81548160ff0219169083151502179055505b610a966114d6565b610a9e61152f565b610aa6611588565b8015610aff5760008060016101000a81548160ff0219169083151502179055507f7f26b83ff96e1f2b6a682f133852f6798a09c465da95921460cefb38474024986001604051610af69190612348565b60405180910390a15b50565b610b0a610ca7565b610b126115d9565b565b6000603360009054906101000a900473ffffffffffffffffffffffffffffffffffffffff16905090565b61012d6020528060005260406000206000915090508060000154908060010154908060020160009054906101000a900473ffffffffffffffffffffffffffffffffffffffff16905083565b610b91610ca7565b600073ffffffffffffffffffffffffffffffffffffffff168173ffffffffffffffffffffffffffffffffffffffff161415610c01576040517f08c379a0000000000000000000000000000000000000000000000000000000008152600401610bf8906123d5565b60405180910390fd5b610c0a816113ed565b50565b610c15610960565b15610c55576040517f08c379a0000000000000000000000000000000000000000000000000000000008152600401610c4c90612441565b60405180910390fd5b565b60026097541415610c9d576040517f08c379a0000000000000000000000000000000000000000000000000000000008152600401610c94906124ad565b60405180910390fd5b6002609781905550565b610caf61163c565b73ffffffffffffffffffffffffffffffffffffffff16610ccd610b14565b73ffffffffffffffffffffffffffffffffffffffff1614610d23576040517f08c379a0000000000000000000000000000000000000000000000000000000008152600401610d1a90612519565b60405180910390fd5b565b6001609781905550565b60008411610d72576040517f08c379a0000000000000000000000000000000000000000000000000000000008152600401610d6990611ea2565b60405180910390fd5b600073ffffffffffffffffffffffffffffffffffffffff168373ffffffffffffffffffffffffffffffffffffffff161415610de2576040517f08c379a0000000000000000000000000000000000000000000000000000000008152600401610dd990611e36565b60405180910390fd5b80158015610e335750600061012d60008473ffffffffffffffffffffffffffffffffffffffff1673ffffffffffffffffffffffffffffffffffffffff16815260200190815260200160002060000154115b15610e73576040517f08c379a0000000000000000000000000000000000000000000000000000000008152600401610e6a90612585565b60405180910390fd5b600061012d60008473ffffffffffffffffffffffffffffffffffffffff1673ffffffffffffffffffffffffffffffffffffffff168152602001908152602001600020600001541115610f915761012d60008373ffffffffffffffffffffffffffffffffffffffff1673ffffffffffffffffffffffffffffffffffffffff16815260200190815260200160002060020160009054906101000a900473ffffffffffffffffffffffffffffffffffffffff1673ffffffffffffffffffffffffffffffffffffffff168373ffffffffffffffffffffffffffffffffffffffff1614610f90576040517f08c379a0000000000000000000000000000000000000000000000000000000008152600401610f87906125f1565b60405180910390fd5b5b8361012d60008473ffffffffffffffffffffffffffffffffffffffff1673ffffffffffffffffffffffffffffffffffffffff1681526020019081526020016000206000016000828254610fe49190611f25565b925050819055508261012d60008473ffffffffffffffffffffffffffffffffffffffff1673ffffffffffffffffffffffffffffffffffffffff16815260200190815260200160002060020160006101000a81548173ffffffffffffffffffffffffffffffffffffffff021916908373ffffffffffffffffffffffffffffffffffffffff16021790555060008373ffffffffffffffffffffffffffffffffffffffff166323b872dd8430886040518463ffffffff1660e01b81526004016110ac93929190612611565b6020604051808303816000875af11580156110cb573d6000803e3d6000fd5b505050506040513d601f19601f820116820180604052508101906110ef9190611fd0565b905080611131576040517f08c379a000000000000000000000000000000000000000000000000000000000815260040161112890612049565b60405180910390fd5b7fcdf273e124d49eb6422463c597bfaf0e7a95336b11cfa38f071edcea4945107883858761012d60008873ffffffffffffffffffffffffffffffffffffffff1673ffffffffffffffffffffffffffffffffffffffff16815260200190815260200160002060000154866040516111ab959493929190612648565b60405180910390a15050505050565b60006111e87f360894a13ba1a3210667c828492db98dca3e2076cc3735a920a3ca505d382bbc60001b611644565b60000160009054906101000a900473ffffffffffffffffffffffffffffffffffffffff16905090565b611219610ca7565b50565b6112487f4910fdfa16fed3260ed0e7147f7cc6da11a60208b5b9406d12a635614ffd914360001b61164e565b60000160009054906101000a900460ff161561126c5761126783611658565b611385565b8273ffffffffffffffffffffffffffffffffffffffff166352d1902d6040518163ffffffff1660e01b8152600401602060405180830381865afa9250505080156112d457506040513d601f19601f820116820180604052508101906112d191906126c7565b60015b611313576040517f08c379a000000000000000000000000000000000000000000000000000000000815260040161130a90612766565b60405180910390fd5b7f360894a13ba1a3210667c828492db98dca3e2076cc3735a920a3ca505d382bbc60001b8114611378576040517f08c379a000000000000000000000000000000000000000000000000000000000815260040161136f906127f8565b60405180910390fd5b50611384838383611711565b5b505050565b61139261173d565b6000606560006101000a81548160ff0219169083151502179055507f5db9ee0a495bf2e6ff9c91a7834c1ba4fdd244a5e8aa4e537bd38aeae4b073aa6113d661163c565b6040516113e39190611d78565b60405180910390a1565b6000603360009054906101000a900473ffffffffffffffffffffffffffffffffffffffff16905081603360006101000a81548173ffffffffffffffffffffffffffffffffffffffff021916908373ffffffffffffffffffffffffffffffffffffffff1602179055508173ffffffffffffffffffffffffffffffffffffffff168173ffffffffffffffffffffffffffffffffffffffff167f8be0079c531659141344cd1fd0a4f28419497f9722a3daafe3b4186f6b6457e060405160405180910390a35050565b6000808273ffffffffffffffffffffffffffffffffffffffff163b119050919050565b600060019054906101000a900460ff16611525576040517f08c379a000000000000000000000000000000000000000000000000000000000815260040161151c9061288a565b60405180910390fd5b61152d611786565b565b600060019054906101000a900460ff1661157e576040517f08c379a00000000000000000000000000000000000000000000000000000000081526004016115759061288a565b60405180910390fd5b6115866117df565b565b600060019054906101000a900460ff166115d7576040517f08c379a00000000000000000000000000000000000000000000000000000000081526004016115ce9061288a565b60405180910390fd5b565b6115e1610c0d565b6001606560006101000a81548160ff0219169083151502179055507f62e78cea01bee320cd4e420270b5ea74000d11b0c9f74754ebdbfc544b05a25861162561163c565b6040516116329190611d78565b60405180910390a1565b600033905090565b6000819050919050565b6000819050919050565b611661816114b3565b6116a0576040517f08c379a00000000000000000000000000000000000000000000000000000000081526004016116979061291c565b60405180910390fd5b806116cd7f360894a13ba1a3210667c828492db98dca3e2076cc3735a920a3ca505d382bbc60001b611644565b60000160006101000a81548173ffffffffffffffffffffffffffffffffffffffff021916908373ffffffffffffffffffffffffffffffffffffffff16021790555050565b61171a83611840565b6000825111806117275750805b1561173857611736838361188f565b505b505050565b611745610960565b611784576040517f08c379a000000000000000000000000000000000000000000000000000000000815260040161177b90612988565b60405180910390fd5b565b600060019054906101000a900460ff166117d5576040517f08c379a00000000000000000000000000000000000000000000000000000000081526004016117cc9061288a565b60405180910390fd5b6001609781905550565b600060019054906101000a900460ff1661182e576040517f08c379a00000000000000000000000000000000000000000000000000000000081526004016118259061288a565b60405180910390fd5b61183e61183961163c565b6113ed565b565b61184981611658565b8073ffffffffffffffffffffffffffffffffffffffff167fbc7cd75a20ee27fd9adebab32041f755214dbc6bffa90cc0225b39da2e5c2d3b60405160405180910390a250565b60606118b48383604051806060016040528060278152602001612b0c602791396118bc565b905092915050565b60606000808573ffffffffffffffffffffffffffffffffffffffff16856040516118e69190612a22565b600060405180830381855af49150503d8060008114611921576040519150601f19603f3d011682016040523d82523d6000602084013e611926565b606091505b509150915061193786838387611942565b925050509392505050565b606083156119a55760008351141561199d5761195d856114b3565b61199c576040517f08c379a000000000000000000000000000000000000000000000000000000000815260040161199390612a85565b60405180910390fd5b5b8290506119b0565b6119af83836119b8565b5b949350505050565b6000825111156119cb5781518083602001fd5b806040517f08c379a00000000000000000000000000000000000000000000000000000000081526004016119ff9190612ae9565b60405180910390fd5b6000604051905090565b600080fd5b600080fd5b600073ffffffffffffffffffffffffffffffffffffffff82169050919050565b6000611a4782611a1c565b9050919050565b611a5781611a3c565b8114611a6257600080fd5b50565b600081359050611a7481611a4e565b92915050565b6000819050919050565b611a8d81611a7a565b8114611a9857600080fd5b50565b600081359050611aaa81611a84565b92915050565b60008060408385031215611ac757611ac6611a12565b5b6000611ad585828601611a65565b9250506020611ae685828601611a9b565b9150509250929050565b60008060408385031215611b0757611b06611a12565b5b6000611b1585828601611a9b565b9250506020611b2685828601611a65565b9150509250929050565b600060208284031215611b4657611b45611a12565b5b6000611b5484828501611a65565b91505092915050565b600080fd5b600080fd5b6000601f19601f8301169050919050565b7f4e487b7100000000000000000000000000000000000000000000000000000000600052604160045260246000fd5b611bb082611b67565b810181811067ffffffffffffffff82111715611bcf57611bce611b78565b5b80604052505050565b6000611be2611a08565b9050611bee8282611ba7565b919050565b600067ffffffffffffffff821115611c0e57611c0d611b78565b5b611c1782611b67565b9050602081019050919050565b82818337600083830152505050565b6000611c46611c4184611bf3565b611bd8565b905082815260208101848484011115611c6257611c61611b62565b5b611c6d848285611c24565b509392505050565b600082601f830112611c8a57611c89611b5d565b5b8135611c9a848260208601611c33565b91505092915050565b60008060408385031215611cba57611cb9611a12565b5b6000611cc885828601611a65565b925050602083013567ffffffffffffffff811115611ce957611ce8611a17565b5b611cf585828601611c75565b9150509250929050565b6000819050919050565b611d1281611cff565b82525050565b6000602082019050611d2d6000830184611d09565b92915050565b60008115159050919050565b611d4881611d33565b82525050565b6000602082019050611d636000830184611d3f565b92915050565b611d7281611a3c565b82525050565b6000602082019050611d8d6000830184611d69565b92915050565b611d9c81611a7a565b82525050565b6000606082019050611db76000830186611d93565b611dc46020830185611d93565b611dd16040830184611d69565b949350505050565b600082825260208201905092915050565b7f5a65726f20416464726573730000000000000000000000000000000000000000600082015250565b6000611e20600c83611dd9565b9150611e2b82611dea565b602082019050919050565b60006020820190508181036000830152611e4f81611e13565b9050919050565b7f4c6f7720416d6f756e7400000000000000000000000000000000000000000000600082015250565b6000611e8c600a83611dd9565b9150611e9782611e56565b602082019050919050565b60006020820190508181036000830152611ebb81611e7f565b9050919050565b7f4e487b7100000000000000000000000000000000000000000000000000000000600052601160045260246000fd5b6000611efc82611a7a565b9150611f0783611a7a565b925082821015611f1a57611f19611ec2565b5b828203905092915050565b6000611f3082611a7a565b9150611f3b83611a7a565b9250827fffffffffffffffffffffffffffffffffffffffffffffffffffffffffffffffff03821115611f7057611f6f611ec2565b5b828201905092915050565b6000604082019050611f906000830185611d69565b611f9d6020830184611d93565b9392505050565b611fad81611d33565b8114611fb857600080fd5b50565b600081519050611fca81611fa4565b92915050565b600060208284031215611fe657611fe5611a12565b5b6000611ff484828501611fbb565b91505092915050565b7f5472616e73666572206661696c65640000000000000000000000000000000000600082015250565b6000612033600f83611dd9565b915061203e82611ffd565b602082019050919050565b6000602082019050818103600083015261206281612026565b9050919050565b600060808201905061207e6000830187611d69565b61208b6020830186611d69565b6120986040830185611d93565b6120a56060830184611d93565b95945050505050565b7f46756e6374696f6e206d7573742062652063616c6c6564207468726f7567682060008201527f64656c656761746563616c6c0000000000000000000000000000000000000000602082015250565b600061210a602c83611dd9565b9150612115826120ae565b604082019050919050565b60006020820190508181036000830152612139816120fd565b9050919050565b7f46756e6374696f6e206d7573742062652063616c6c6564207468726f7567682060008201527f6163746976652070726f78790000000000000000000000000000000000000000602082015250565b600061219c602c83611dd9565b91506121a782612140565b604082019050919050565b600060208201905081810360008301526121cb8161218f565b9050919050565b7f555550535570677261646561626c653a206d757374206e6f742062652063616c60008201527f6c6564207468726f7567682064656c656761746563616c6c0000000000000000602082015250565b600061222e603883611dd9565b9150612239826121d2565b604082019050919050565b6000602082019050818103600083015261225d81612221565b9050919050565b7f496e697469616c697a61626c653a20636f6e747261637420697320616c72656160008201527f647920696e697469616c697a6564000000000000000000000000000000000000602082015250565b60006122c0602e83611dd9565b91506122cb82612264565b604082019050919050565b600060208201905081810360008301526122ef816122b3565b9050919050565b6000819050919050565b600060ff82169050919050565b6000819050919050565b600061233261232d612328846122f6565b61230d565b612300565b9050919050565b61234281612317565b82525050565b600060208201905061235d6000830184612339565b92915050565b7f4f776e61626c653a206e6577206f776e657220697320746865207a65726f206160008201527f6464726573730000000000000000000000000000000000000000000000000000602082015250565b60006123bf602683611dd9565b91506123ca82612363565b604082019050919050565b600060208201905081810360008301526123ee816123b2565b9050919050565b7f5061757361626c653a2070617573656400000000000000000000000000000000600082015250565b600061242b601083611dd9565b9150612436826123f5565b602082019050919050565b6000602082019050818103600083015261245a8161241e565b9050919050565b7f5265656e7472616e637947756172643a207265656e7472616e742063616c6c00600082015250565b6000612497601f83611dd9565b91506124a282612461565b602082019050919050565b600060208201905081810360008301526124c68161248a565b9050919050565b7f4f776e61626c653a2063616c6c6572206973206e6f7420746865206f776e6572600082015250565b6000612503602083611dd9565b915061250e826124cd565b602082019050919050565b60006020820190508181036000830152612532816124f6565b9050919050565b7f6d6f7265207468616e206f6e652074696d650000000000000000000000000000600082015250565b600061256f601283611dd9565b915061257a82612539565b602082019050919050565b6000602082019050818103600083015261259e81612562565b9050919050565b7f546f6b656e206d69736d61746368000000000000000000000000000000000000600082015250565b60006125db600e83611dd9565b91506125e6826125a5565b602082019050919050565b6000602082019050818103600083015261260a816125ce565b9050919050565b60006060820190506126266000830186611d69565b6126336020830185611d69565b6126406040830184611d93565b949350505050565b600060a08201905061265d6000830188611d69565b61266a6020830187611d69565b6126776040830186611d93565b6126846060830185611d93565b6126916080830184611d3f565b9695505050505050565b6126a481611cff565b81146126af57600080fd5b50565b6000815190506126c18161269b565b92915050565b6000602082840312156126dd576126dc611a12565b5b60006126eb848285016126b2565b91505092915050565b7f45524331393637557067726164653a206e657720696d706c656d656e7461746960008201527f6f6e206973206e6f742055555053000000000000000000000000000000000000602082015250565b6000612750602e83611dd9565b915061275b826126f4565b604082019050919050565b6000602082019050818103600083015261277f81612743565b9050919050565b7f45524331393637557067726164653a20756e737570706f727465642070726f7860008201527f6961626c65555549440000000000000000000000000000000000000000000000602082015250565b60006127e2602983611dd9565b91506127ed82612786565b604082019050919050565b60006020820190508181036000830152612811816127d5565b9050919050565b7f496e697469616c697a61626c653a20636f6e7472616374206973206e6f74206960008201527f6e697469616c697a696e67000000000000000000000000000000000000000000602082015250565b6000612874602b83611dd9565b915061287f82612818565b604082019050919050565b600060208201905081810360008301526128a381612867565b9050919050565b7f455243313936373a206e657720696d706c656d656e746174696f6e206973206e60008201527f6f74206120636f6e747261637400000000000000000000000000000000000000602082015250565b6000612906602d83611dd9565b9150612911826128aa565b604082019050919050565b60006020820190508181036000830152612935816128f9565b9050919050565b7f5061757361626c653a206e6f7420706175736564000000000000000000000000600082015250565b6000612972601483611dd9565b915061297d8261293c565b602082019050919050565b600060208201905081810360008301526129a181612965565b9050919050565b600081519050919050565b600081905092915050565b60005b838110156129dc5780820151818401526020810190506129c1565b838111156129eb576000848401525b50505050565b60006129fc826129a8565b612a0681856129b3565b9350612a168185602086016129be565b80840191505092915050565b6000612a2e82846129f1565b915081905092915050565b7f416464726573733a2063616c6c20746f206e6f6e2d636f6e7472616374000000600082015250565b6000612a6f601d83611dd9565b9150612a7a82612a39565b602082019050919050565b60006020820190508181036000830152612a9e81612a62565b9050919050565b600081519050919050565b6000612abb82612aa5565b612ac58185611dd9565b9350612ad58185602086016129be565b612ade81611b67565b840191505092915050565b60006020820190508181036000830152612b038184612ab0565b90509291505056fe416464726573733a206c6f772d6c6576656c2064656c65676174652063616c6c206661696c6564a2646970667358221220651eaf7856b6c27da4263f8b618a97e3b3f73d66fda4d0c20ef8a4ffdc062c7c64736f6c634300080b0033",
  "linkReferences": {},
  "deployedLinkReferences": {}
}