{
  "_format": "hh-sol-artifact-1",
  "contractName": "validatedNFT",
  "sourceName": "contracts/validatedNFT.sol",
  "abi": [
    {
      "inputs": [],
      "stateMutability": "nonpayable",
      "type": "constructor"
    },
    {
      "anonymous": false,
      "inputs": [
        {
          "indexed": false,
          "internalType": "address",
          "name": "previousAdmin",
          "type": "address"
        },
        {
          "indexed": false,
          "internalType": "address",
          "name": "newAdmin",
          "type": "address"
        }
      ],
      "name": "AdminChanged",
      "type": "event"
    },
    {
      "anonymous": false,
      "inputs": [
        {
          "indexed": true,
          "internalType": "address",
          "name": "owner",
          "type": "address"
        },
        {
          "indexed": true,
          "internalType": "address",
          "name": "approved",
          "type": "address"
        },
        {
          "indexed": true,
          "internalType": "uint256",
          "name": "tokenId",
          "type": "uint256"
        }
      ],
      "name": "Approval",
      "type": "event"
    },
    {
      "anonymous": false,
      "inputs": [
        {
          "indexed": true,
          "internalType": "address",
          "name": "owner",
          "type": "address"
        },
        {
          "indexed": true,
          "internalType": "address",
          "name": "operator",
          "type": "address"
        },
        {
          "indexed": false,
          "internalType": "bool",
          "name": "approved",
          "type": "bool"
        }
      ],
      "name": "ApprovalForAll",
      "type": "event"
    },
    {
      "anonymous": false,
      "inputs": [
        {
          "indexed": false,
          "internalType": "uint256",
          "name": "_fromTokenId",
          "type": "uint256"
        },
        {
          "indexed": false,
          "internalType": "uint256",
          "name": "_toTokenId",
          "type": "uint256"
        }
      ],
      "name": "BatchMetadataUpdate",
      "type": "event"
    },
    {
      "anonymous": false,
      "inputs": [
        {
          "indexed": true,
          "internalType": "address",
          "name": "beacon",
          "type": "address"
        }
      ],
      "name": "BeaconUpgraded",
      "type": "event"
    },
    {
      "anonymous": false,
      "inputs": [
        {
          "indexed": false,
          "internalType": "uint8",
          "name": "version",
          "type": "uint8"
        }
      ],
      "name": "Initialized",
      "type": "event"
    },
    {
      "anonymous": false,
      "inputs": [
        {
          "indexed": false,
          "internalType": "uint256",
          "name": "_tokenId",
          "type": "uint256"
        }
      ],
      "name": "MetadataUpdate",
      "type": "event"
    },
    {
      "anonymous": false,
      "inputs": [
        {
          "indexed": true,
          "internalType": "address",
          "name": "previousOwner",
          "type": "address"
        },
        {
          "indexed": true,
          "internalType": "address",
          "name": "newOwner",
          "type": "address"
        }
      ],
      "name": "OwnershipTransferred",
      "type": "event"
    },
    {
      "anonymous": false,
      "inputs": [
        {
          "indexed": false,
          "internalType": "address",
          "name": "account",
          "type": "address"
        }
      ],
      "name": "Paused",
      "type": "event"
    },
    {
      "anonymous": false,
      "inputs": [
        {
          "indexed": true,
          "internalType": "uint256",
          "name": "tokenId",
          "type": "uint256"
        },
        {
          "components": [
            {
              "internalType": "address payable",
              "name": "account",
              "type": "address"
            },
            {
              "internalType": "uint96",
              "name": "value",
              "type": "uint96"
            }
          ],
          "indexed": false,
          "internalType": "struct LibShare.Share[]",
          "name": "royalties",
          "type": "tuple[]"
        }
      ],
      "name": "RoyaltiesSetForValidator",
      "type": "event"
    },
    {
      "anonymous": false,
      "inputs": [
        {
          "indexed": false,
          "internalType": "uint256",
          "name": "tokenId",
          "type": "uint256"
        },
        {
          "indexed": false,
          "internalType": "address",
          "name": "to",
          "type": "address"
        }
      ],
      "name": "TokenMinted",
      "type": "event"
    },
    {
      "anonymous": false,
      "inputs": [
        {
          "indexed": true,
          "internalType": "address",
          "name": "from",
          "type": "address"
        },
        {
          "indexed": true,
          "internalType": "address",
          "name": "to",
          "type": "address"
        },
        {
          "indexed": true,
          "internalType": "uint256",
          "name": "tokenId",
          "type": "uint256"
        }
      ],
      "name": "Transfer",
      "type": "event"
    },
    {
      "anonymous": false,
      "inputs": [
        {
          "indexed": false,
          "internalType": "address",
          "name": "account",
          "type": "address"
        }
      ],
      "name": "Unpaused",
      "type": "event"
    },
    {
      "anonymous": false,
      "inputs": [
        {
          "indexed": true,
          "internalType": "address",
          "name": "implementation",
          "type": "address"
        }
      ],
      "name": "Upgraded",
      "type": "event"
    },
    {
      "inputs": [
        {
          "internalType": "address",
          "name": "to",
          "type": "address"
        },
        {
          "internalType": "uint256",
          "name": "tokenId",
          "type": "uint256"
        }
      ],
      "name": "approve",
      "outputs": [],
      "stateMutability": "nonpayable",
      "type": "function"
    },
    {
      "inputs": [
        {
          "internalType": "address",
          "name": "owner",
          "type": "address"
        }
      ],
      "name": "balanceOf",
      "outputs": [
        {
          "internalType": "uint256",
          "name": "",
          "type": "uint256"
        }
      ],
      "stateMutability": "view",
      "type": "function"
    },
    {
      "inputs": [
        {
          "internalType": "uint256",
          "name": "_tokenId",
          "type": "uint256"
        }
      ],
      "name": "deleteNFT",
      "outputs": [],
      "stateMutability": "nonpayable",
      "type": "function"
    },
    {
      "inputs": [
        {
          "internalType": "uint256",
          "name": "_tokenId",
          "type": "uint256"
        }
      ],
      "name": "deleteValidatorRoyalties",
      "outputs": [],
      "stateMutability": "nonpayable",
      "type": "function"
    },
    {
      "inputs": [
        {
          "internalType": "uint256",
          "name": "_tokenId",
          "type": "uint256"
        }
      ],
      "name": "exists",
      "outputs": [
        {
          "internalType": "bool",
          "name": "",
          "type": "bool"
        }
      ],
      "stateMutability": "view",
      "type": "function"
    },
    {
      "inputs": [
        {
          "internalType": "uint256",
          "name": "tokenId",
          "type": "uint256"
        }
      ],
      "name": "getApproved",
      "outputs": [
        {
          "internalType": "address",
          "name": "",
          "type": "address"
        }
      ],
      "stateMutability": "view",
      "type": "function"
    },
    {
      "inputs": [
        {
          "internalType": "uint256",
          "name": "_tokenId",
          "type": "uint256"
        }
      ],
      "name": "getRoyalties",
      "outputs": [
        {
          "components": [
            {
              "internalType": "address payable",
              "name": "account",
              "type": "address"
            },
            {
              "internalType": "uint96",
              "name": "value",
              "type": "uint96"
            }
          ],
          "internalType": "struct LibShare.Share[]",
          "name": "",
          "type": "tuple[]"
        }
      ],
      "stateMutability": "pure",
      "type": "function"
    },
    {
      "inputs": [
        {
          "internalType": "uint256",
          "name": "_tokenId",
          "type": "uint256"
        }
      ],
      "name": "getValidatorRoyalties",
      "outputs": [
        {
          "components": [
            {
              "internalType": "address payable",
              "name": "account",
              "type": "address"
            },
            {
              "internalType": "uint96",
              "name": "value",
              "type": "uint96"
            }
          ],
          "internalType": "struct LibShare.Share[]",
          "name": "",
          "type": "tuple[]"
        }
      ],
      "stateMutability": "view",
      "type": "function"
    },
    {
      "inputs": [
        {
          "internalType": "address",
          "name": "_piNFTmethodAddress",
          "type": "address"
        }
      ],
      "name": "initialize",
      "outputs": [],
      "stateMutability": "nonpayable",
      "type": "function"
    },
    {
      "inputs": [
        {
          "internalType": "address",
          "name": "owner",
          "type": "address"
        },
        {
          "internalType": "address",
          "name": "operator",
          "type": "address"
        }
      ],
      "name": "isApprovedForAll",
      "outputs": [
        {
          "internalType": "bool",
          "name": "",
          "type": "bool"
        }
      ],
      "stateMutability": "view",
      "type": "function"
    },
    {
      "inputs": [
        {
          "internalType": "address",
          "name": "_to",
          "type": "address"
        },
        {
          "internalType": "string",
          "name": "_uri",
          "type": "string"
        }
      ],
      "name": "mintValidatedNFT",
      "outputs": [
        {
          "internalType": "uint256",
          "name": "",
          "type": "uint256"
        }
      ],
      "stateMutability": "nonpayable",
      "type": "function"
    },
    {
      "inputs": [],
      "name": "name",
      "outputs": [
        {
          "internalType": "string",
          "name": "",
          "type": "string"
        }
      ],
      "stateMutability": "view",
      "type": "function"
    },
    {
      "inputs": [
        {
          "internalType": "address",
          "name": "",
          "type": "address"
        },
        {
          "internalType": "address",
          "name": "",
          "type": "address"
        },
        {
          "internalType": "uint256",
          "name": "",
          "type": "uint256"
        },
        {
          "internalType": "bytes",
          "name": "",
          "type": "bytes"
        }
      ],
      "name": "onERC721Received",
      "outputs": [
        {
          "internalType": "bytes4",
          "name": "",
          "type": "bytes4"
        }
      ],
      "stateMutability": "nonpayable",
      "type": "function"
    },
    {
      "inputs": [],
      "name": "owner",
      "outputs": [
        {
          "internalType": "address",
          "name": "",
          "type": "address"
        }
      ],
      "stateMutability": "view",
      "type": "function"
    },
    {
      "inputs": [
        {
          "internalType": "uint256",
          "name": "tokenId",
          "type": "uint256"
        }
      ],
      "name": "ownerOf",
      "outputs": [
        {
          "internalType": "address",
          "name": "",
          "type": "address"
        }
      ],
      "stateMutability": "view",
      "type": "function"
    },
    {
      "inputs": [],
      "name": "pause",
      "outputs": [],
      "stateMutability": "nonpayable",
      "type": "function"
    },
    {
      "inputs": [],
      "name": "paused",
      "outputs": [
        {
          "internalType": "bool",
          "name": "",
          "type": "bool"
        }
      ],
      "stateMutability": "view",
      "type": "function"
    },
    {
      "inputs": [],
      "name": "piNFTMethodsAddress",
      "outputs": [
        {
          "internalType": "address",
          "name": "",
          "type": "address"
        }
      ],
      "stateMutability": "view",
      "type": "function"
    },
    {
      "inputs": [],
      "name": "proxiableUUID",
      "outputs": [
        {
          "internalType": "bytes32",
          "name": "",
          "type": "bytes32"
        }
      ],
      "stateMutability": "view",
      "type": "function"
    },
    {
      "inputs": [],
      "name": "renounceOwnership",
      "outputs": [],
      "stateMutability": "nonpayable",
      "type": "function"
    },
    {
      "inputs": [
        {
          "internalType": "address",
          "name": "from",
          "type": "address"
        },
        {
          "internalType": "address",
          "name": "to",
          "type": "address"
        },
        {
          "internalType": "uint256",
          "name": "tokenId",
          "type": "uint256"
        }
      ],
      "name": "safeTransferFrom",
      "outputs": [],
      "stateMutability": "nonpayable",
      "type": "function"
    },
    {
      "inputs": [
        {
          "internalType": "address",
          "name": "from",
          "type": "address"
        },
        {
          "internalType": "address",
          "name": "to",
          "type": "address"
        },
        {
          "internalType": "uint256",
          "name": "tokenId",
          "type": "uint256"
        },
        {
          "internalType": "bytes",
          "name": "data",
          "type": "bytes"
        }
      ],
      "name": "safeTransferFrom",
      "outputs": [],
      "stateMutability": "nonpayable",
      "type": "function"
    },
    {
      "inputs": [
        {
          "internalType": "address",
          "name": "operator",
          "type": "address"
        },
        {
          "internalType": "bool",
          "name": "approved",
          "type": "bool"
        }
      ],
      "name": "setApprovalForAll",
      "outputs": [],
      "stateMutability": "nonpayable",
      "type": "function"
    },
    {
      "inputs": [
        {
          "internalType": "uint256",
          "name": "_tokenId",
          "type": "uint256"
        },
        {
          "internalType": "uint256",
          "name": "_commission",
          "type": "uint256"
        },
        {
          "components": [
            {
              "internalType": "address payable",
              "name": "account",
              "type": "address"
            },
            {
              "internalType": "uint96",
              "name": "value",
              "type": "uint96"
            }
          ],
          "internalType": "struct LibShare.Share[]",
          "name": "royalties",
          "type": "tuple[]"
        }
      ],
      "name": "setRoyaltiesForValidator",
      "outputs": [],
      "stateMutability": "nonpayable",
      "type": "function"
    },
    {
      "inputs": [
        {
          "internalType": "bytes4",
          "name": "interfaceId",
          "type": "bytes4"
        }
      ],
      "name": "supportsInterface",
      "outputs": [
        {
          "internalType": "bool",
          "name": "",
          "type": "bool"
        }
      ],
      "stateMutability": "view",
      "type": "function"
    },
    {
      "inputs": [],
      "name": "symbol",
      "outputs": [
        {
          "internalType": "string",
          "name": "",
          "type": "string"
        }
      ],
      "stateMutability": "view",
      "type": "function"
    },
    {
      "inputs": [
        {
          "internalType": "uint256",
          "name": "tokenId",
          "type": "uint256"
        }
      ],
      "name": "tokenURI",
      "outputs": [
        {
          "internalType": "string",
          "name": "",
          "type": "string"
        }
      ],
      "stateMutability": "view",
      "type": "function"
    },
    {
      "inputs": [
        {
          "internalType": "address",
          "name": "from",
          "type": "address"
        },
        {
          "internalType": "address",
          "name": "to",
          "type": "address"
        },
        {
          "internalType": "uint256",
          "name": "tokenId",
          "type": "uint256"
        }
      ],
      "name": "transferFrom",
      "outputs": [],
      "stateMutability": "nonpayable",
      "type": "function"
    },
    {
      "inputs": [
        {
          "internalType": "address",
          "name": "newOwner",
          "type": "address"
        }
      ],
      "name": "transferOwnership",
      "outputs": [],
      "stateMutability": "nonpayable",
      "type": "function"
    },
    {
      "inputs": [],
      "name": "unpause",
      "outputs": [],
      "stateMutability": "nonpayable",
      "type": "function"
    },
    {
      "inputs": [
        {
          "internalType": "address",
          "name": "newImplementation",
          "type": "address"
        }
      ],
      "name": "upgradeTo",
      "outputs": [],
      "stateMutability": "nonpayable",
      "type": "function"
    },
    {
      "inputs": [
        {
          "internalType": "address",
          "name": "newImplementation",
          "type": "address"
        },
        {
          "internalType": "bytes",
          "name": "data",
          "type": "bytes"
        }
      ],
      "name": "upgradeToAndCall",
      "outputs": [],
      "stateMutability": "payable",
      "type": "function"
    }
  ],
  "bytecode": "0x60a06040523073ffffffffffffffffffffffffffffffffffffffff1660809073ffffffffffffffffffffffffffffffffffffffff168152503480156200004457600080fd5b506200006167d34ceea88898486460c01b620000af60201b60201c565b6200007d6781a1e396cd72ea0b60c01b620000af60201b60201c565b62000099674b690499219fecd460c01b620000af60201b60201c565b620000a9620000b260201b60201c565b6200025c565b50565b600060019054906101000a900460ff161562000105576040517f08c379a0000000000000000000000000000000000000000000000000000000008152600401620000fc90620001ff565b60405180910390fd5b60ff801660008054906101000a900460ff1660ff1614620001765760ff6000806101000a81548160ff021916908360ff1602179055507f7f26b83ff96e1f2b6a682f133852f6798a09c465da95921460cefb384740249860ff6040516200016d91906200023f565b60405180910390a15b565b600082825260208201905092915050565b7f496e697469616c697a61626c653a20636f6e747261637420697320696e69746960008201527f616c697a696e6700000000000000000000000000000000000000000000000000602082015250565b6000620001e760278362000178565b9150620001f48262000189565b604082019050919050565b600060208201905081810360008301526200021a81620001d8565b9050919050565b600060ff82169050919050565b620002398162000221565b82525050565b60006020820190506200025660008301846200022e565b92915050565b6080516160556200029460003960008181610bef01528181610c7e01528181611556015281816115e501526116e301526160556000f3fe6080604052600436106101e35760003560e01c80636352211e11610102578063b88d4fde11610095578063e017793411610064578063e0177934146106f3578063e985e9c51461071e578063f2fde38b1461075b578063f687ed5714610784576101e3565b8063b88d4fde14610627578063bb3bafd614610650578063c4d66de81461068d578063c87b56dd146106b6576101e3565b80638da5cb5b116100d15780638da5cb5b1461056b57806395d89b4114610596578063a22cb465146105c1578063aaefc9e2146105ea576101e3565b80636352211e146104c357806370a0823114610500578063715018a61461053d5780638456cb5914610554576101e3565b8063391601dc1161017a5780634f1ef286116101495780634f1ef286146104145780634f558e791461043057806352d1902d1461046d5780635c975abb14610498576101e3565b8063391601dc146103825780633f4ba83a146103ab57806342842e0e146103c257806345913fe9146103eb576101e3565b8063095ea7b3116101b6578063095ea7b3146102ca578063150b7a02146102f357806323b872dd146103305780633659cfe614610359576101e3565b806301ffc9a7146101e857806302b421411461022557806306fdde0314610262578063081812fc1461028d575b600080fd5b3480156101f457600080fd5b5061020f600480360381019061020a9190614249565b6107ad565b60405161021c9190614291565b60405180910390f35b34801561023157600080fd5b5061024c600480360381019061024791906142e2565b61080e565b6040516102599190614455565b60405180910390f35b34801561026e57600080fd5b5061027761094d565b6040516102849190614510565b60405180910390f35b34801561029957600080fd5b506102b460048036038101906102af91906142e2565b6109df565b6040516102c19190614553565b60405180910390f35b3480156102d657600080fd5b506102f160048036038101906102ec919061459a565b610a25565b005b3480156102ff57600080fd5b5061031a6004803603810190610315919061470f565b610b3d565b60405161032791906147a1565b60405180910390f35b34801561033c57600080fd5b50610357600480360381019061035291906147bc565b610b8d565b005b34801561036557600080fd5b50610380600480360381019061037b919061480f565b610bed565b005b34801561038e57600080fd5b506103a960048036038101906103a491906142e2565b610d76565b005b3480156103b757600080fd5b506103c0610ef2565b005b3480156103ce57600080fd5b506103e960048036038101906103e491906147bc565b610f68565b005b3480156103f757600080fd5b50610412600480360381019061040d91906149b1565b610f88565b005b61042e60048036038101906104299190614a20565b611554565b005b34801561043c57600080fd5b50610457600480360381019061045291906142e2565b611691565b6040516104649190614291565b60405180910390f35b34801561047957600080fd5b506104826116df565b60405161048f9190614a95565b60405180910390f35b3480156104a457600080fd5b506104ad611798565b6040516104ba9190614291565b60405180910390f35b3480156104cf57600080fd5b506104ea60048036038101906104e591906142e2565b6117af565b6040516104f79190614553565b60405180910390f35b34801561050c57600080fd5b506105276004803603810190610522919061480f565b611836565b6040516105349190614abf565b60405180910390f35b34801561054957600080fd5b506105526118ee565b005b34801561056057600080fd5b50610569611902565b005b34801561057757600080fd5b50610580611978565b60405161058d9190614553565b60405180910390f35b3480156105a257600080fd5b506105ab6119a3565b6040516105b89190614510565b60405180910390f35b3480156105cd57600080fd5b506105e860048036038101906105e39190614b06565b611a35565b005b3480156105f657600080fd5b50610611600480360381019061060c9190614be7565b611a4b565b60405161061e9190614abf565b60405180910390f35b34801561063357600080fd5b5061064e6004803603810190610649919061470f565b611d7b565b005b34801561065c57600080fd5b50610677600480360381019061067291906142e2565b611ddd565b6040516106849190614455565b60405180910390f35b34801561069957600080fd5b506106b460048036038101906106af919061480f565b611e4e565b005b3480156106c257600080fd5b506106dd60048036038101906106d891906142e2565b6120a7565b6040516106ea9190614510565b60405180910390f35b3480156106ff57600080fd5b506107086121ba565b6040516107159190614553565b60405180910390f35b34801561072a57600080fd5b5061074560048036038101906107409190614c43565b6121e1565b6040516107529190614291565b60405180910390f35b34801561076757600080fd5b50610782600480360381019061077d919061480f565b612275565b005b34801561079057600080fd5b506107ab60048036038101906107a691906142e2565b6122f9565b005b6000634906490660e01b7bffffffffffffffffffffffffffffffffffffffffffffffffffffffff1916827bffffffffffffffffffffffffffffffffffffffffffffffffffffffff19161480610807575061080682612560565b5b9050919050565b6060610824672b85ef50e70cd20960c01b612642565b610838672a490d5cf051a85160c01b612642565b61084c67a4eef05c4c9e8fa260c01b612642565b6101c56000838152602001908152602001600020805480602002602001604051908101604052809291908181526020016000905b82821015610942578382906000526020600020016040518060400160405290816000820160009054906101000a900473ffffffffffffffffffffffffffffffffffffffff1673ffffffffffffffffffffffffffffffffffffffff1673ffffffffffffffffffffffffffffffffffffffff1681526020016000820160149054906101000a90046bffffffffffffffffffffffff166bffffffffffffffffffffffff166bffffffffffffffffffffffff168152505081526020019060010190610880565b505050509050919050565b60606065805461095c90614cb2565b80601f016020809104026020016040519081016040528092919081815260200182805461098890614cb2565b80156109d55780601f106109aa576101008083540402835291602001916109d5565b820191906000526020600020905b8154815290600101906020018083116109b857829003601f168201915b5050505050905090565b60006109ea82612645565b6069600083815260200190815260200160002060009054906101000a900473ffffffffffffffffffffffffffffffffffffffff169050919050565b6000610a30826117af565b90508073ffffffffffffffffffffffffffffffffffffffff168373ffffffffffffffffffffffffffffffffffffffff161415610aa1576040517f08c379a0000000000000000000000000000000000000000000000000000000008152600401610a9890614d56565b60405180910390fd5b8073ffffffffffffffffffffffffffffffffffffffff16610ac0612690565b73ffffffffffffffffffffffffffffffffffffffff161480610aef5750610aee81610ae9612690565b6121e1565b5b610b2e576040517f08c379a0000000000000000000000000000000000000000000000000000000008152600401610b2590614de8565b60405180910390fd5b610b388383612698565b505050565b6000610b5367b150e57f9538d7c060c01b612642565b610b67673e0cb43225bc717760c01b612642565b610b7b67e189cdefbfacf18560c01b612642565b63150b7a0260e01b9050949350505050565b610b9e610b98612690565b82612751565b610bdd576040517f08c379a0000000000000000000000000000000000000000000000000000000008152600401610bd490614e7a565b60405180910390fd5b610be88383836127e6565b505050565b7f000000000000000000000000000000000000000000000000000000000000000073ffffffffffffffffffffffffffffffffffffffff163073ffffffffffffffffffffffffffffffffffffffff161415610c7c576040517f08c379a0000000000000000000000000000000000000000000000000000000008152600401610c7390614f0c565b60405180910390fd5b7f000000000000000000000000000000000000000000000000000000000000000073ffffffffffffffffffffffffffffffffffffffff16610cbb612ae0565b73ffffffffffffffffffffffffffffffffffffffff1614610d11576040517f08c379a0000000000000000000000000000000000000000000000000000000008152600401610d0890614f9e565b60405180910390fd5b610d1a81612b37565b610d7381600067ffffffffffffffff811115610d3957610d386145e4565b5b6040519080825280601f01601f191660200182016040528015610d6b5781602001600182028036833780820191505090505b506000612b7e565b50565b610d8a67ce75e07d722dfc4a60c01b612642565b610d9e679006e7a3176828d960c01b612642565b610db26774c3350085d5d1df60c01b612642565b610dc6677258fe141175bb4860c01b612642565b610dda677f7cefcc661780c860c01b612642565b6101c460009054906101000a900473ffffffffffffffffffffffffffffffffffffffff1673ffffffffffffffffffffffffffffffffffffffff163373ffffffffffffffffffffffffffffffffffffffff1614610e6b576040517f08c379a0000000000000000000000000000000000000000000000000000000008152600401610e629061500a565b60405180910390fd5b610e7f67753f6c7e5f33952b60c01b612642565b610e936743a33986c7dace6a60c01b612642565b610ea767e8c83dc991c0b0cc60c01b612642565b610ebb67b247d67b620e75ec60c01b612642565b610ecf679ab68c7d10d6242660c01b612642565b6101c560008281526020019081526020016000206000610eef919061407c565b50565b610f06672d70eca3bbfd2afd60c01b612642565b610f0e612cec565b610f22674e022d8ae7adc80260c01b612642565b610f3667512aa10a23ced92f60c01b612642565b610f4a675ecb14068954008e60c01b612642565b610f5e67c58f3565a55eba2d60c01b612642565b610f66612d6a565b565b610f8383838360405180602001604052806000815250611d7b565b505050565b610f9c673381fb6181e091e460c01b612642565b610fb0679006e7a3176828d960c01b612642565b610fc46774c3350085d5d1df60c01b612642565b610fd8677258fe141175bb4860c01b612642565b610fec677f7cefcc661780c860c01b612642565b6101c460009054906101000a900473ffffffffffffffffffffffffffffffffffffffff1673ffffffffffffffffffffffffffffffffffffffff163373ffffffffffffffffffffffffffffffffffffffff161461107d576040517f08c379a00000000000000000000000000000000000000000000000000000000081526004016110749061500a565b60405180910390fd5b61109167753f6c7e5f33952b60c01b612642565b6110a56743a33986c7dace6a60c01b612642565b6110b9673c42fd31d1d64c4760c01b612642565b6110cd676a8e85d5d1ad0b8b60c01b612642565b6110e167e79ea52714ca251160c01b612642565b6110f567454cf55e5f920a4760c01b612642565b611109673006c40291b5b96c60c01b612642565b600a8151111561111857600080fd5b61112c679356fa2c8453776060c01b612642565b6111406779f7bfc61cd9245760c01b612642565b6101c560008481526020019081526020016000206000611160919061407c565b611174673d59e12f826b70b960c01b612642565b611188674c8a434a6ade2d9660c01b612642565b600061119e679ec396c7fa4ca41360c01b612642565b6111b2676e13149d39f88f1860c01b612642565b60005b825181101561144d576111d2675f539cec903a618e60c01b612642565b6111e667db070022f5ed477b60c01b612642565b6111fa674e5bec99f49b519d60c01b612642565b600073ffffffffffffffffffffffffffffffffffffffff168382815181106112255761122461502a565b5b60200260200101516000015173ffffffffffffffffffffffffffffffffffffffff16141561125257600080fd5b6112666784ffb6c2dc39221e60c01b612642565b61127a67a004fcb5db3a4bff60c01b612642565b61128e67ad461541e9a2963a60c01b612642565b6112a2673dad06298e9902f160c01b612642565b60008382815181106112b7576112b661502a565b5b6020026020010151602001516bffffffffffffffffffffffff1614156112dc57600080fd5b6112f0670dededaecf381c6d60c01b612642565b6113046761d53a91d483190760c01b612642565b611318679caecddc75214c6e60c01b612642565b6101c5600086815260200190815260200160002083828151811061133f5761133e61502a565b5b60200260200101519080600181540180825580915050600190039060005260206000200160009091909190915060008201518160000160006101000a81548173ffffffffffffffffffffffffffffffffffffffff021916908373ffffffffffffffffffffffffffffffffffffffff16021790555060208201518160000160146101000a8154816bffffffffffffffffffffffff02191690836bffffffffffffffffffffffff160217905550505061140067770194e4d74d8ad660c01b612642565b8281815181106114135761141261502a565b5b6020026020010151602001516bffffffffffffffffffffffff16826114389190615088565b91508080611445906150de565b9150506111b5565b50611462671d89d0c7d950c2e960c01b612642565b611476674b1a55193f56537160c01b612642565b61148a67e3428f550e2bcaf160c01b612642565b826113246114989190615127565b8111156114da576040517f08c379a00000000000000000000000000000000000000000000000000000000081526004016114d1906151a7565b60405180910390fd5b6114ee67ce278b4e87c9473e60c01b612642565b61150267ddb5463d3975dcd760c01b612642565b611516679e090300a72451ce60c01b612642565b837f4da18660b3a4505d8ad0b58514556847831a94cc0306b9de276aa372df45d471836040516115469190614455565b60405180910390a250505050565b7f000000000000000000000000000000000000000000000000000000000000000073ffffffffffffffffffffffffffffffffffffffff163073ffffffffffffffffffffffffffffffffffffffff1614156115e3576040517f08c379a00000000000000000000000000000000000000000000000000000000081526004016115da90614f0c565b60405180910390fd5b7f000000000000000000000000000000000000000000000000000000000000000073ffffffffffffffffffffffffffffffffffffffff16611622612ae0565b73ffffffffffffffffffffffffffffffffffffffff1614611678576040517f08c379a000000000000000000000000000000000000000000000000000000000815260040161166f90614f9e565b60405180910390fd5b61168182612b37565b61168d82826001612b7e565b5050565b60006116a767e7e7da2367e0434f60c01b612642565b6116bb67eec108b1c1cfba9b60c01b612642565b6116cf67ee347c226cb7320c60c01b612642565b6116d882612dcd565b9050919050565b60007f000000000000000000000000000000000000000000000000000000000000000073ffffffffffffffffffffffffffffffffffffffff163073ffffffffffffffffffffffffffffffffffffffff161461176f576040517f08c379a000000000000000000000000000000000000000000000000000000000815260040161176690615239565b60405180910390fd5b7f360894a13ba1a3210667c828492db98dca3e2076cc3735a920a3ca505d382bbc60001b905090565b600060fb60009054906101000a900460ff16905090565b6000806117bb83612e0e565b9050600073ffffffffffffffffffffffffffffffffffffffff168173ffffffffffffffffffffffffffffffffffffffff16141561182d576040517f08c379a0000000000000000000000000000000000000000000000000000000008152600401611824906152a5565b60405180910390fd5b80915050919050565b60008073ffffffffffffffffffffffffffffffffffffffff168273ffffffffffffffffffffffffffffffffffffffff1614156118a7576040517f08c379a000000000000000000000000000000000000000000000000000000000815260040161189e90615337565b60405180910390fd5b606860008373ffffffffffffffffffffffffffffffffffffffff1673ffffffffffffffffffffffffffffffffffffffff168152602001908152602001600020549050919050565b6118f6612cec565b6119006000612e4b565b565b6119166765ed54ce581e3d2e60c01b612642565b61191e612cec565b611932670dec103dd218aea560c01b612642565b61194667097fd8faf0c7976d60c01b612642565b61195a677dca4a2f9c44270e60c01b612642565b61196e67cf0dfed176dcc5d460c01b612642565b611976612f13565b565b600061019160009054906101000a900473ffffffffffffffffffffffffffffffffffffffff16905090565b6060606680546119b290614cb2565b80601f01602080910402602001604051908101604052809291908181526020018280546119de90614cb2565b8015611a2b5780601f10611a0057610100808354040283529160200191611a2b565b820191906000526020600020905b815481529060010190602001808311611a0e57829003601f168201915b5050505050905090565b611a47611a40612690565b8383612f76565b5050565b6000611a6167ed3544e05f738f4460c01b612642565b611a696130e3565b611a7d677f2488bb049c794b60c01b612642565b611a91674360d3cc78376da560c01b612642565b611a9961312d565b611aad67438ce1edcdddda2360c01b612642565b611ac167eee0db7355eb6c8e60c01b612642565b611ad5675d218cf31a49ea3c60c01b612642565b611ae967d3f5161f8fa60fc660c01b612642565b6000611af66101c361317d565b9050611b0c676465890e20ce3c6060c01b612642565b611b2067daaee81262f990f860c01b612642565b611b2a308261318b565b611b3e67098f859adaec907a60c01b612642565b611b5267ddf929111198ec7160c01b612642565b611b5c81846131a9565b611b7067691d193902a71c2660c01b612642565b611b8467d0a7b566760a75f760c01b612642565b6101c460009054906101000a900473ffffffffffffffffffffffffffffffffffffffff1673ffffffffffffffffffffffffffffffffffffffff166361746b923083876040518463ffffffff1660e01b8152600401611be493929190615357565b600060405180830381600087803b158015611bfe57600080fd5b505af1158015611c12573d6000803e3d6000fd5b50505050611c2a67d1343f107a5ab35060c01b612642565b611c3e67438321b712ddb4c660c01b612642565b3073ffffffffffffffffffffffffffffffffffffffff166342842e0e3086846040518463ffffffff1660e01b8152600401611c7b9392919061538e565b600060405180830381600087803b158015611c9557600080fd5b505af1158015611ca9573d6000803e3d6000fd5b50505050611cc1679fcc3faca501b5a660c01b612642565b611cd56751cf8b65f6f1be7160c01b612642565b611ce06101c3613254565b611cf46791092885aa85881360c01b612642565b611d08672491e69f51bd408760c01b612642565b7f3a5398bda6f1f57d6c96834fa9bf02b5517bdc847d14312015a917ba421c31c98185604051611d399291906153c5565b60405180910390a1611d5567d6bdbee7f6067c9e60c01b612642565b611d69673740dc4c921c8f0760c01b612642565b80915050611d7561326a565b92915050565b611d8c611d86612690565b83612751565b611dcb576040517f08c379a0000000000000000000000000000000000000000000000000000000008152600401611dc290614e7a565b60405180910390fd5b611dd784848484613274565b50505050565b6060611df3673df53364f80187cc60c01b612642565b611e0767ad3f5ec6e8f3c10860c01b612642565b611e1b6732f94e035830f7a560c01b612642565b6060611e3167439979ca4fbefdd160c01b612642565b611e45675856063da763f01a60c01b612642565b80915050919050565b611e62671d9f29e50575b52660c01b612642565b60008060019054906101000a900460ff16159050808015611e935750600160008054906101000a900460ff1660ff16105b80611ec05750611ea2306132d0565b158015611ebf5750600160008054906101000a900460ff1660ff16145b5b611eff576040517f08c379a0000000000000000000000000000000000000000000000000000000008152600401611ef690615460565b60405180910390fd5b60016000806101000a81548160ff021916908360ff1602179055508015611f3c576001600060016101000a81548160ff0219169083151502179055505b611f5067bae58da760b680ba60c01b612642565b611f64676fbdb5bce8e3c99260c01b612642565b611f78675633f97081b87bf960c01b612642565b611f8c6793c9f9e8e412c46b60c01b612642565b611f946132f3565b611fa867aab34732ded5090460c01b612642565b611fbc67099cca75746ffb0460c01b612642565b611fc461334c565b611fd867f873a1167e8f9a2360c01b612642565b611fec67bb5061d85726d09b60c01b612642565b611ff461339d565b61200867ba269fd2fb7c628560c01b612642565b816101c460006101000a81548173ffffffffffffffffffffffffffffffffffffffff021916908373ffffffffffffffffffffffffffffffffffffffff16021790555080156120a35760008060016101000a81548160ff0219169083151502179055507f7f26b83ff96e1f2b6a682f133852f6798a09c465da95921460cefb3847402498600160405161209a91906154d2565b60405180910390a15b5050565b60606120b282612645565b60006097600084815260200190815260200160002080546120d290614cb2565b80601f01602080910402602001604051908101604052809291908181526020018280546120fe90614cb2565b801561214b5780601f106121205761010080835404028352916020019161214b565b820191906000526020600020905b81548152906001019060200180831161212e57829003601f168201915b50505050509050600061215c6133f6565b90506000815114156121725781925050506121b5565b6000825111156121a757808260405160200161218f929190615529565b604051602081830303815290604052925050506121b5565b6121b08461340d565b925050505b919050565b6101c460009054906101000a900473ffffffffffffffffffffffffffffffffffffffff1681565b6000606a60008473ffffffffffffffffffffffffffffffffffffffff1673ffffffffffffffffffffffffffffffffffffffff16815260200190815260200160002060008373ffffffffffffffffffffffffffffffffffffffff1673ffffffffffffffffffffffffffffffffffffffff16815260200190815260200160002060009054906101000a900460ff16905092915050565b61227d612cec565b600073ffffffffffffffffffffffffffffffffffffffff168173ffffffffffffffffffffffffffffffffffffffff1614156122ed576040517f08c379a00000000000000000000000000000000000000000000000000000000081526004016122e4906155bf565b60405180910390fd5b6122f681612e4b565b50565b61230d67cb23bd3b90f91b7460c01b612642565b6123156130e3565b61232967fff30ba9b5fc68fb60c01b612642565b61233d6795521ccb2f8b823c60c01b612642565b61234561312d565b61235967d46828badebf455760c01b612642565b61236d676a8b28f975228c5c60c01b612642565b61238167d9b329c313419b5260c01b612642565b612395676431302de677c02e60c01b612642565b6123a967b2472e36984e6f7d60c01b612642565b600073ffffffffffffffffffffffffffffffffffffffff166101c460009054906101000a900473ffffffffffffffffffffffffffffffffffffffff1673ffffffffffffffffffffffffffffffffffffffff1663a7aed60530846040518363ffffffff1660e01b815260040161241f9291906155df565b602060405180830381865afa15801561243c573d6000803e3d6000fd5b505050506040513d601f19601f82011682018060405250810190612460919061561d565b73ffffffffffffffffffffffffffffffffffffffff161461248057600080fd5b61249467f8851fb969c33d4760c01b612642565b6124a867cae55bda9cffb84160c01b612642565b6124bc6750f0e578ba10c05d60c01b612642565b6124d067c20051719337a16860c01b612642565b3373ffffffffffffffffffffffffffffffffffffffff166124f0826117af565b73ffffffffffffffffffffffffffffffffffffffff161461251057600080fd5b61252467ceedca9de61666e760c01b612642565b61253867784398e1fa5e8fa960c01b612642565b61254c67438b02fd61ee497960c01b612642565b61255581613475565b61255d61326a565b50565b60007f80ac58cd000000000000000000000000000000000000000000000000000000007bffffffffffffffffffffffffffffffffffffffffffffffffffffffff1916827bffffffffffffffffffffffffffffffffffffffffffffffffffffffff1916148061262b57507f5b5e139f000000000000000000000000000000000000000000000000000000007bffffffffffffffffffffffffffffffffffffffffffffffffffffffff1916827bffffffffffffffffffffffffffffffffffffffffffffffffffffffff1916145b8061263b575061263a826134c8565b5b9050919050565b50565b61264e81612dcd565b61268d576040517f08c379a0000000000000000000000000000000000000000000000000000000008152600401612684906152a5565b60405180910390fd5b50565b600033905090565b816069600083815260200190815260200160002060006101000a81548173ffffffffffffffffffffffffffffffffffffffff021916908373ffffffffffffffffffffffffffffffffffffffff160217905550808273ffffffffffffffffffffffffffffffffffffffff1661270b836117af565b73ffffffffffffffffffffffffffffffffffffffff167f8c5be1e5ebec7d5bd14f71427d1e84f3dd0314c0f7b2291e5b200ac8c7c3b92560405160405180910390a45050565b60008061275d836117af565b90508073ffffffffffffffffffffffffffffffffffffffff168473ffffffffffffffffffffffffffffffffffffffff16148061279f575061279e81856121e1565b5b806127dd57508373ffffffffffffffffffffffffffffffffffffffff166127c5846109df565b73ffffffffffffffffffffffffffffffffffffffff16145b91505092915050565b8273ffffffffffffffffffffffffffffffffffffffff16612806826117af565b73ffffffffffffffffffffffffffffffffffffffff161461285c576040517f08c379a0000000000000000000000000000000000000000000000000000000008152600401612853906156bc565b60405180910390fd5b600073ffffffffffffffffffffffffffffffffffffffff168273ffffffffffffffffffffffffffffffffffffffff1614156128cc576040517f08c379a00000000000000000000000000000000000000000000000000000000081526004016128c39061574e565b60405180910390fd5b6128d98383836001613532565b8273ffffffffffffffffffffffffffffffffffffffff166128f9826117af565b73ffffffffffffffffffffffffffffffffffffffff161461294f576040517f08c379a0000000000000000000000000000000000000000000000000000000008152600401612946906156bc565b60405180910390fd5b6069600082815260200190815260200160002060006101000a81549073ffffffffffffffffffffffffffffffffffffffff02191690556001606860008573ffffffffffffffffffffffffffffffffffffffff1673ffffffffffffffffffffffffffffffffffffffff168152602001908152602001600020600082825403925050819055506001606860008473ffffffffffffffffffffffffffffffffffffffff1673ffffffffffffffffffffffffffffffffffffffff16815260200190815260200160002060008282540192505081905550816067600083815260200190815260200160002060006101000a81548173ffffffffffffffffffffffffffffffffffffffff021916908373ffffffffffffffffffffffffffffffffffffffff160217905550808273ffffffffffffffffffffffffffffffffffffffff168473ffffffffffffffffffffffffffffffffffffffff167fddf252ad1be2c89b69c2b068fc378daa952ba7f163c4a11628f55a4df523b3ef60405160405180910390a4612adb8383836001613538565b505050565b6000612b0e7f360894a13ba1a3210667c828492db98dca3e2076cc3735a920a3ca505d382bbc60001b61353e565b60000160009054906101000a900473ffffffffffffffffffffffffffffffffffffffff16905090565b612b4b671da4c0f5ad418b8d60c01b612642565b612b53612cec565b612b67673489093a5afc667c60c01b612642565b612b7b679f67256c6142dc4c60c01b612642565b50565b612baa7f4910fdfa16fed3260ed0e7147f7cc6da11a60208b5b9406d12a635614ffd914360001b613548565b60000160009054906101000a900460ff1615612bce57612bc983613552565b612ce7565b8273ffffffffffffffffffffffffffffffffffffffff166352d1902d6040518163ffffffff1660e01b8152600401602060405180830381865afa925050508015612c3657506040513d601f19601f82011682018060405250810190612c33919061579a565b60015b612c75576040517f08c379a0000000000000000000000000000000000000000000000000000000008152600401612c6c90615839565b60405180910390fd5b7f360894a13ba1a3210667c828492db98dca3e2076cc3735a920a3ca505d382bbc60001b8114612cda576040517f08c379a0000000000000000000000000000000000000000000000000000000008152600401612cd1906158cb565b60405180910390fd5b50612ce683838361360b565b5b505050565b612cf4612690565b73ffffffffffffffffffffffffffffffffffffffff16612d12611978565b73ffffffffffffffffffffffffffffffffffffffff1614612d68576040517f08c379a0000000000000000000000000000000000000000000000000000000008152600401612d5f90615937565b60405180910390fd5b565b612d72613637565b600060fb60006101000a81548160ff0219169083151502179055507f5db9ee0a495bf2e6ff9c91a7834c1ba4fdd244a5e8aa4e537bd38aeae4b073aa612db6612690565b604051612dc39190614553565b60405180910390a1565b60008073ffffffffffffffffffffffffffffffffffffffff16612def83612e0e565b73ffffffffffffffffffffffffffffffffffffffff1614159050919050565b60006067600083815260200190815260200160002060009054906101000a900473ffffffffffffffffffffffffffffffffffffffff169050919050565b600061019160009054906101000a900473ffffffffffffffffffffffffffffffffffffffff1690508161019160006101000a81548173ffffffffffffffffffffffffffffffffffffffff021916908373ffffffffffffffffffffffffffffffffffffffff1602179055508173ffffffffffffffffffffffffffffffffffffffff168173ffffffffffffffffffffffffffffffffffffffff167f8be0079c531659141344cd1fd0a4f28419497f9722a3daafe3b4186f6b6457e060405160405180910390a35050565b612f1b6130e3565b600160fb60006101000a81548160ff0219169083151502179055507f62e78cea01bee320cd4e420270b5ea74000d11b0c9f74754ebdbfc544b05a258612f5f612690565b604051612f6c9190614553565b60405180910390a1565b8173ffffffffffffffffffffffffffffffffffffffff168373ffffffffffffffffffffffffffffffffffffffff161415612fe5576040517f08c379a0000000000000000000000000000000000000000000000000000000008152600401612fdc906159a3565b60405180910390fd5b80606a60008573ffffffffffffffffffffffffffffffffffffffff1673ffffffffffffffffffffffffffffffffffffffff16815260200190815260200160002060008473ffffffffffffffffffffffffffffffffffffffff1673ffffffffffffffffffffffffffffffffffffffff16815260200190815260200160002060006101000a81548160ff0219169083151502179055508173ffffffffffffffffffffffffffffffffffffffff168373ffffffffffffffffffffffffffffffffffffffff167f17307eab39ab6107e8899845ad3d59bd9653f200f220920489ca2b5937696c31836040516130d69190614291565b60405180910390a3505050565b6130eb611798565b1561312b576040517f08c379a000000000000000000000000000000000000000000000000000000000815260040161312290615a0f565b60405180910390fd5b565b600260c9541415613173576040517f08c379a000000000000000000000000000000000000000000000000000000000815260040161316a90615a7b565b60405180910390fd5b600260c981905550565b600081600001549050919050565b6131a5828260405180602001604052806000815250613680565b5050565b6131b282612dcd565b6131f1576040517f08c379a00000000000000000000000000000000000000000000000000000000081526004016131e890615b0d565b60405180910390fd5b8060976000848152602001908152602001600020908051906020019061321892919061409d565b507ff8e1a15aba9398e019f0b49df1a4fde98ee17ae345cb5f6b5e2c27f5033e8ce7826040516132489190614abf565b60405180910390a15050565b6001816000016000828254019250508190555050565b600160c981905550565b61327f8484846127e6565b61328b848484846136db565b6132ca576040517f08c379a00000000000000000000000000000000000000000000000000000000081526004016132c190615b9f565b60405180910390fd5b50505050565b6000808273ffffffffffffffffffffffffffffffffffffffff163b119050919050565b600060019054906101000a900460ff16613342576040517f08c379a000000000000000000000000000000000000000000000000000000000815260040161333990615c31565b60405180910390fd5b61334a613863565b565b600060019054906101000a900460ff1661339b576040517f08c379a000000000000000000000000000000000000000000000000000000000815260040161339290615c31565b60405180910390fd5b565b600060019054906101000a900460ff166133ec576040517f08c379a00000000000000000000000000000000000000000000000000000000081526004016133e390615c31565b60405180910390fd5b6133f46138bc565b565b606060405180602001604052806000815250905090565b606061341882612645565b60006134226133f6565b90506000815111613442576040518060200160405280600081525061346d565b8061344c8461391d565b60405160200161345d929190615529565b6040516020818303038152906040525b915050919050565b61347e816139f5565b600060976000838152602001908152602001600020805461349e90614cb2565b9050146134c5576097600082815260200190815260200160002060006134c49190614123565b5b50565b60007f01ffc9a7000000000000000000000000000000000000000000000000000000007bffffffffffffffffffffffffffffffffffffffffffffffffffffffff1916827bffffffffffffffffffffffffffffffffffffffffffffffffffffffff1916149050919050565b50505050565b50505050565b6000819050919050565b6000819050919050565b61355b816132d0565b61359a576040517f08c379a000000000000000000000000000000000000000000000000000000000815260040161359190615cc3565b60405180910390fd5b806135c77f360894a13ba1a3210667c828492db98dca3e2076cc3735a920a3ca505d382bbc60001b61353e565b60000160006101000a81548173ffffffffffffffffffffffffffffffffffffffff021916908373ffffffffffffffffffffffffffffffffffffffff16021790555050565b61361483613b43565b6000825111806136215750805b15613632576136308383613b92565b505b505050565b61363f611798565b61367e576040517f08c379a000000000000000000000000000000000000000000000000000000000815260040161367590615d2f565b60405180910390fd5b565b61368a8383613bbf565b61369760008484846136db565b6136d6576040517f08c379a00000000000000000000000000000000000000000000000000000000081526004016136cd90615b9f565b60405180910390fd5b505050565b60006136fc8473ffffffffffffffffffffffffffffffffffffffff166132d0565b15613856578373ffffffffffffffffffffffffffffffffffffffff1663150b7a02613725612690565b8786866040518563ffffffff1660e01b81526004016137479493929190615da4565b6020604051808303816000875af192505050801561378357506040513d601f19601f820116820180604052508101906137809190615e05565b60015b613806573d80600081146137b3576040519150601f19603f3d011682016040523d82523d6000602084013e6137b8565b606091505b506000815114156137fe576040517f08c379a00000000000000000000000000000000000000000000000000000000081526004016137f590615b9f565b60405180910390fd5b805181602001fd5b63150b7a0260e01b7bffffffffffffffffffffffffffffffffffffffffffffffffffffffff1916817bffffffffffffffffffffffffffffffffffffffffffffffffffffffff19161491505061385b565b600190505b949350505050565b600060019054906101000a900460ff166138b2576040517f08c379a00000000000000000000000000000000000000000000000000000000081526004016138a990615c31565b60405180910390fd5b600160c981905550565b600060019054906101000a900460ff1661390b576040517f08c379a000000000000000000000000000000000000000000000000000000000815260040161390290615c31565b60405180910390fd5b61391b613916612690565b612e4b565b565b60606000600161392c84613ddd565b01905060008167ffffffffffffffff81111561394b5761394a6145e4565b5b6040519080825280601f01601f19166020018201604052801561397d5781602001600182028036833780820191505090505b509050600082602001820190505b6001156139ea578080600190039150507f3031323334353637383961626364656600000000000000000000000000000000600a86061a8153600a85816139d4576139d3615e32565b5b04945060008514156139e5576139ea565b61398b565b819350505050919050565b6000613a00826117af565b9050613a10816000846001613532565b613a19826117af565b90506069600083815260200190815260200160002060006101000a81549073ffffffffffffffffffffffffffffffffffffffff02191690556001606860008373ffffffffffffffffffffffffffffffffffffffff1673ffffffffffffffffffffffffffffffffffffffff168152602001908152602001600020600082825403925050819055506067600083815260200190815260200160002060006101000a81549073ffffffffffffffffffffffffffffffffffffffff021916905581600073ffffffffffffffffffffffffffffffffffffffff168273ffffffffffffffffffffffffffffffffffffffff167fddf252ad1be2c89b69c2b068fc378daa952ba7f163c4a11628f55a4df523b3ef60405160405180910390a4613b3f816000846001613538565b5050565b613b4c81613552565b8073ffffffffffffffffffffffffffffffffffffffff167fbc7cd75a20ee27fd9adebab32041f755214dbc6bffa90cc0225b39da2e5c2d3b60405160405180910390a250565b6060613bb78383604051806060016040528060278152602001615ff960279139613f30565b905092915050565b600073ffffffffffffffffffffffffffffffffffffffff168273ffffffffffffffffffffffffffffffffffffffff161415613c2f576040517f08c379a0000000000000000000000000000000000000000000000000000000008152600401613c2690615ead565b60405180910390fd5b613c3881612dcd565b15613c78576040517f08c379a0000000000000000000000000000000000000000000000000000000008152600401613c6f90615f19565b60405180910390fd5b613c86600083836001613532565b613c8f81612dcd565b15613ccf576040517f08c379a0000000000000000000000000000000000000000000000000000000008152600401613cc690615f19565b60405180910390fd5b6001606860008473ffffffffffffffffffffffffffffffffffffffff1673ffffffffffffffffffffffffffffffffffffffff16815260200190815260200160002060008282540192505081905550816067600083815260200190815260200160002060006101000a81548173ffffffffffffffffffffffffffffffffffffffff021916908373ffffffffffffffffffffffffffffffffffffffff160217905550808273ffffffffffffffffffffffffffffffffffffffff16600073ffffffffffffffffffffffffffffffffffffffff167fddf252ad1be2c89b69c2b068fc378daa952ba7f163c4a11628f55a4df523b3ef60405160405180910390a4613dd9600083836001613538565b5050565b600080600090507a184f03e93ff9f4daa797ed6e38ed64bf6a1f0100000000000000008310613e3b577a184f03e93ff9f4daa797ed6e38ed64bf6a1f0100000000000000008381613e3157613e30615e32565b5b0492506040810190505b6d04ee2d6d415b85acef81000000008310613e78576d04ee2d6d415b85acef81000000008381613e6e57613e6d615e32565b5b0492506020810190505b662386f26fc100008310613ea757662386f26fc100008381613e9d57613e9c615e32565b5b0492506010810190505b6305f5e1008310613ed0576305f5e1008381613ec657613ec5615e32565b5b0492506008810190505b6127108310613ef5576127108381613eeb57613eea615e32565b5b0492506004810190505b60648310613f185760648381613f0e57613f0d615e32565b5b0492506002810190505b600a8310613f27576001810190505b80915050919050565b60606000808573ffffffffffffffffffffffffffffffffffffffff1685604051613f5a9190615f75565b600060405180830381855af49150503d8060008114613f95576040519150601f19603f3d011682016040523d82523d6000602084013e613f9a565b606091505b5091509150613fab86838387613fb6565b925050509392505050565b606083156140195760008351141561401157613fd1856132d0565b614010576040517f08c379a000000000000000000000000000000000000000000000000000000000815260040161400790615fd8565b60405180910390fd5b5b829050614024565b614023838361402c565b5b949350505050565b60008251111561403f5781518083602001fd5b806040517f08c379a00000000000000000000000000000000000000000000000000000000081526004016140739190614510565b60405180910390fd5b508054600082559060005260206000209081019061409a9190614163565b50565b8280546140a990614cb2565b90600052602060002090601f0160209004810192826140cb5760008555614112565b82601f106140e457805160ff1916838001178555614112565b82800160010185558215614112579182015b828111156141115782518255916020019190600101906140f6565b5b50905061411f91906141c0565b5090565b50805461412f90614cb2565b6000825580601f106141415750614160565b601f01602090049060005260206000209081019061415f91906141c0565b5b50565b5b808211156141bc57600080820160006101000a81549073ffffffffffffffffffffffffffffffffffffffff02191690556000820160146101000a8154906bffffffffffffffffffffffff021916905550600101614164565b5090565b5b808211156141d95760008160009055506001016141c1565b5090565b6000604051905090565b600080fd5b600080fd5b60007fffffffff0000000000000000000000000000000000000000000000000000000082169050919050565b614226816141f1565b811461423157600080fd5b50565b6000813590506142438161421d565b92915050565b60006020828403121561425f5761425e6141e7565b5b600061426d84828501614234565b91505092915050565b60008115159050919050565b61428b81614276565b82525050565b60006020820190506142a66000830184614282565b92915050565b6000819050919050565b6142bf816142ac565b81146142ca57600080fd5b50565b6000813590506142dc816142b6565b92915050565b6000602082840312156142f8576142f76141e7565b5b6000614306848285016142cd565b91505092915050565b600081519050919050565b600082825260208201905092915050565b6000819050602082019050919050565b600073ffffffffffffffffffffffffffffffffffffffff82169050919050565b60006143668261433b565b9050919050565b6143768161435b565b82525050565b60006bffffffffffffffffffffffff82169050919050565b61439d8161437c565b82525050565b6040820160008201516143b9600085018261436d565b5060208201516143cc6020850182614394565b50505050565b60006143de83836143a3565b60408301905092915050565b6000602082019050919050565b60006144028261430f565b61440c818561431a565b93506144178361432b565b8060005b8381101561444857815161442f88826143d2565b975061443a836143ea565b92505060018101905061441b565b5085935050505092915050565b6000602082019050818103600083015261446f81846143f7565b905092915050565b600081519050919050565b600082825260208201905092915050565b60005b838110156144b1578082015181840152602081019050614496565b838111156144c0576000848401525b50505050565b6000601f19601f8301169050919050565b60006144e282614477565b6144ec8185614482565b93506144fc818560208601614493565b614505816144c6565b840191505092915050565b6000602082019050818103600083015261452a81846144d7565b905092915050565b600061453d8261433b565b9050919050565b61454d81614532565b82525050565b60006020820190506145686000830184614544565b92915050565b61457781614532565b811461458257600080fd5b50565b6000813590506145948161456e565b92915050565b600080604083850312156145b1576145b06141e7565b5b60006145bf85828601614585565b92505060206145d0858286016142cd565b9150509250929050565b600080fd5b600080fd5b7f4e487b7100000000000000000000000000000000000000000000000000000000600052604160045260246000fd5b61461c826144c6565b810181811067ffffffffffffffff8211171561463b5761463a6145e4565b5b80604052505050565b600061464e6141dd565b905061465a8282614613565b919050565b600067ffffffffffffffff82111561467a576146796145e4565b5b614683826144c6565b9050602081019050919050565b82818337600083830152505050565b60006146b26146ad8461465f565b614644565b9050828152602081018484840111156146ce576146cd6145df565b5b6146d9848285614690565b509392505050565b600082601f8301126146f6576146f56145da565b5b813561470684826020860161469f565b91505092915050565b60008060008060808587031215614729576147286141e7565b5b600061473787828801614585565b945050602061474887828801614585565b9350506040614759878288016142cd565b925050606085013567ffffffffffffffff81111561477a576147796141ec565b5b614786878288016146e1565b91505092959194509250565b61479b816141f1565b82525050565b60006020820190506147b66000830184614792565b92915050565b6000806000606084860312156147d5576147d46141e7565b5b60006147e386828701614585565b93505060206147f486828701614585565b9250506040614805868287016142cd565b9150509250925092565b600060208284031215614825576148246141e7565b5b600061483384828501614585565b91505092915050565b600067ffffffffffffffff821115614857576148566145e4565b5b602082029050602081019050919050565b600080fd5b600080fd5b61487b8161435b565b811461488657600080fd5b50565b60008135905061489881614872565b92915050565b6148a78161437c565b81146148b257600080fd5b50565b6000813590506148c48161489e565b92915050565b6000604082840312156148e0576148df61486d565b5b6148ea6040614644565b905060006148fa84828501614889565b600083015250602061490e848285016148b5565b60208301525092915050565b600061492d6149288461483c565b614644565b905080838252602082019050604084028301858111156149505761494f614868565b5b835b81811015614979578061496588826148ca565b845260208401935050604081019050614952565b5050509392505050565b600082601f830112614998576149976145da565b5b81356149a884826020860161491a565b91505092915050565b6000806000606084860312156149ca576149c96141e7565b5b60006149d8868287016142cd565b93505060206149e9868287016142cd565b925050604084013567ffffffffffffffff811115614a0a57614a096141ec565b5b614a1686828701614983565b9150509250925092565b60008060408385031215614a3757614a366141e7565b5b6000614a4585828601614585565b925050602083013567ffffffffffffffff811115614a6657614a656141ec565b5b614a72858286016146e1565b9150509250929050565b6000819050919050565b614a8f81614a7c565b82525050565b6000602082019050614aaa6000830184614a86565b92915050565b614ab9816142ac565b82525050565b6000602082019050614ad46000830184614ab0565b92915050565b614ae381614276565b8114614aee57600080fd5b50565b600081359050614b0081614ada565b92915050565b60008060408385031215614b1d57614b1c6141e7565b5b6000614b2b85828601614585565b9250506020614b3c85828601614af1565b9150509250929050565b600067ffffffffffffffff821115614b6157614b606145e4565b5b614b6a826144c6565b9050602081019050919050565b6000614b8a614b8584614b46565b614644565b905082815260208101848484011115614ba657614ba56145df565b5b614bb1848285614690565b509392505050565b600082601f830112614bce57614bcd6145da565b5b8135614bde848260208601614b77565b91505092915050565b60008060408385031215614bfe57614bfd6141e7565b5b6000614c0c85828601614585565b925050602083013567ffffffffffffffff811115614c2d57614c2c6141ec565b5b614c3985828601614bb9565b9150509250929050565b60008060408385031215614c5a57614c596141e7565b5b6000614c6885828601614585565b9250506020614c7985828601614585565b9150509250929050565b7f4e487b7100000000000000000000000000000000000000000000000000000000600052602260045260246000fd5b60006002820490506001821680614cca57607f821691505b60208210811415614cde57614cdd614c83565b5b50919050565b7f4552433732313a20617070726f76616c20746f2063757272656e74206f776e6560008201527f7200000000000000000000000000000000000000000000000000000000000000602082015250565b6000614d40602183614482565b9150614d4b82614ce4565b604082019050919050565b60006020820190508181036000830152614d6f81614d33565b9050919050565b7f4552433732313a20617070726f76652063616c6c6572206973206e6f7420746f60008201527f6b656e206f776e6572206f7220617070726f76656420666f7220616c6c000000602082015250565b6000614dd2603d83614482565b9150614ddd82614d76565b604082019050919050565b60006020820190508181036000830152614e0181614dc5565b9050919050565b7f4552433732313a2063616c6c6572206973206e6f7420746f6b656e206f776e6560008201527f72206f7220617070726f76656400000000000000000000000000000000000000602082015250565b6000614e64602d83614482565b9150614e6f82614e08565b604082019050919050565b60006020820190508181036000830152614e9381614e57565b9050919050565b7f46756e6374696f6e206d7573742062652063616c6c6564207468726f7567682060008201527f64656c656761746563616c6c0000000000000000000000000000000000000000602082015250565b6000614ef6602c83614482565b9150614f0182614e9a565b604082019050919050565b60006020820190508181036000830152614f2581614ee9565b9050919050565b7f46756e6374696f6e206d7573742062652063616c6c6564207468726f7567682060008201527f6163746976652070726f78790000000000000000000000000000000000000000602082015250565b6000614f88602c83614482565b9150614f9382614f2c565b604082019050919050565b60006020820190508181036000830152614fb781614f7b565b9050919050565b7f6d6574686f647300000000000000000000000000000000000000000000000000600082015250565b6000614ff4600783614482565b9150614fff82614fbe565b602082019050919050565b6000602082019050818103600083015261502381614fe7565b9050919050565b7f4e487b7100000000000000000000000000000000000000000000000000000000600052603260045260246000fd5b7f4e487b7100000000000000000000000000000000000000000000000000000000600052601160045260246000fd5b6000615093826142ac565b915061509e836142ac565b9250827fffffffffffffffffffffffffffffffffffffffffffffffffffffffffffffffff038211156150d3576150d2615059565b5b828201905092915050565b60006150e9826142ac565b91507fffffffffffffffffffffffffffffffffffffffffffffffffffffffffffffffff82141561511c5761511b615059565b5b600182019050919050565b6000615132826142ac565b915061513d836142ac565b9250828210156151505761514f615059565b5b828203905092915050565b7f6f766572666c6f77000000000000000000000000000000000000000000000000600082015250565b6000615191600883614482565b915061519c8261515b565b602082019050919050565b600060208201905081810360008301526151c081615184565b9050919050565b7f555550535570677261646561626c653a206d757374206e6f742062652063616c60008201527f6c6564207468726f7567682064656c656761746563616c6c0000000000000000602082015250565b6000615223603883614482565b915061522e826151c7565b604082019050919050565b6000602082019050818103600083015261525281615216565b9050919050565b7f4552433732313a20696e76616c696420746f6b656e2049440000000000000000600082015250565b600061528f601883614482565b915061529a82615259565b602082019050919050565b600060208201905081810360008301526152be81615282565b9050919050565b7f4552433732313a2061646472657373207a65726f206973206e6f74206120766160008201527f6c6964206f776e65720000000000000000000000000000000000000000000000602082015250565b6000615321602983614482565b915061532c826152c5565b604082019050919050565b6000602082019050818103600083015261535081615314565b9050919050565b600060608201905061536c6000830186614544565b6153796020830185614ab0565b6153866040830184614544565b949350505050565b60006060820190506153a36000830186614544565b6153b06020830185614544565b6153bd6040830184614ab0565b949350505050565b60006040820190506153da6000830185614ab0565b6153e76020830184614544565b9392505050565b7f496e697469616c697a61626c653a20636f6e747261637420697320616c72656160008201527f647920696e697469616c697a6564000000000000000000000000000000000000602082015250565b600061544a602e83614482565b9150615455826153ee565b604082019050919050565b600060208201905081810360008301526154798161543d565b9050919050565b6000819050919050565b600060ff82169050919050565b6000819050919050565b60006154bc6154b76154b284615480565b615497565b61548a565b9050919050565b6154cc816154a1565b82525050565b60006020820190506154e760008301846154c3565b92915050565b600081905092915050565b600061550382614477565b61550d81856154ed565b935061551d818560208601614493565b80840191505092915050565b600061553582856154f8565b915061554182846154f8565b91508190509392505050565b7f4f776e61626c653a206e6577206f776e657220697320746865207a65726f206160008201527f6464726573730000000000000000000000000000000000000000000000000000602082015250565b60006155a9602683614482565b91506155b48261554d565b604082019050919050565b600060208201905081810360008301526155d88161559c565b9050919050565b60006040820190506155f46000830185614544565b6156016020830184614ab0565b9392505050565b6000815190506156178161456e565b92915050565b600060208284031215615633576156326141e7565b5b600061564184828501615608565b91505092915050565b7f4552433732313a207472616e736665722066726f6d20696e636f72726563742060008201527f6f776e6572000000000000000000000000000000000000000000000000000000602082015250565b60006156a6602583614482565b91506156b18261564a565b604082019050919050565b600060208201905081810360008301526156d581615699565b9050919050565b7f4552433732313a207472616e7366657220746f20746865207a65726f2061646460008201527f7265737300000000000000000000000000000000000000000000000000000000602082015250565b6000615738602483614482565b9150615743826156dc565b604082019050919050565b600060208201905081810360008301526157678161572b565b9050919050565b61577781614a7c565b811461578257600080fd5b50565b6000815190506157948161576e565b92915050565b6000602082840312156157b0576157af6141e7565b5b60006157be84828501615785565b91505092915050565b7f45524331393637557067726164653a206e657720696d706c656d656e7461746960008201527f6f6e206973206e6f742055555053000000000000000000000000000000000000602082015250565b6000615823602e83614482565b915061582e826157c7565b604082019050919050565b6000602082019050818103600083015261585281615816565b9050919050565b7f45524331393637557067726164653a20756e737570706f727465642070726f7860008201527f6961626c65555549440000000000000000000000000000000000000000000000602082015250565b60006158b5602983614482565b91506158c082615859565b604082019050919050565b600060208201905081810360008301526158e4816158a8565b9050919050565b7f4f776e61626c653a2063616c6c6572206973206e6f7420746865206f776e6572600082015250565b6000615921602083614482565b915061592c826158eb565b602082019050919050565b6000602082019050818103600083015261595081615914565b9050919050565b7f4552433732313a20617070726f766520746f2063616c6c657200000000000000600082015250565b600061598d601983614482565b915061599882615957565b602082019050919050565b600060208201905081810360008301526159bc81615980565b9050919050565b7f5061757361626c653a2070617573656400000000000000000000000000000000600082015250565b60006159f9601083614482565b9150615a04826159c3565b602082019050919050565b60006020820190508181036000830152615a28816159ec565b9050919050565b7f5265656e7472616e637947756172643a207265656e7472616e742063616c6c00600082015250565b6000615a65601f83614482565b9150615a7082615a2f565b602082019050919050565b60006020820190508181036000830152615a9481615a58565b9050919050565b7f45524337323155524953746f726167653a2055524920736574206f66206e6f6e60008201527f6578697374656e7420746f6b656e000000000000000000000000000000000000602082015250565b6000615af7602e83614482565b9150615b0282615a9b565b604082019050919050565b60006020820190508181036000830152615b2681615aea565b9050919050565b7f4552433732313a207472616e7366657220746f206e6f6e20455243373231526560008201527f63656976657220696d706c656d656e7465720000000000000000000000000000602082015250565b6000615b89603283614482565b9150615b9482615b2d565b604082019050919050565b60006020820190508181036000830152615bb881615b7c565b9050919050565b7f496e697469616c697a61626c653a20636f6e7472616374206973206e6f74206960008201527f6e697469616c697a696e67000000000000000000000000000000000000000000602082015250565b6000615c1b602b83614482565b9150615c2682615bbf565b604082019050919050565b60006020820190508181036000830152615c4a81615c0e565b9050919050565b7f455243313936373a206e657720696d706c656d656e746174696f6e206973206e60008201527f6f74206120636f6e747261637400000000000000000000000000000000000000602082015250565b6000615cad602d83614482565b9150615cb882615c51565b604082019050919050565b60006020820190508181036000830152615cdc81615ca0565b9050919050565b7f5061757361626c653a206e6f7420706175736564000000000000000000000000600082015250565b6000615d19601483614482565b9150615d2482615ce3565b602082019050919050565b60006020820190508181036000830152615d4881615d0c565b9050919050565b600081519050919050565b600082825260208201905092915050565b6000615d7682615d4f565b615d808185615d5a565b9350615d90818560208601614493565b615d99816144c6565b840191505092915050565b6000608082019050615db96000830187614544565b615dc66020830186614544565b615dd36040830185614ab0565b8181036060830152615de58184615d6b565b905095945050505050565b600081519050615dff8161421d565b92915050565b600060208284031215615e1b57615e1a6141e7565b5b6000615e2984828501615df0565b91505092915050565b7f4e487b7100000000000000000000000000000000000000000000000000000000600052601260045260246000fd5b7f4552433732313a206d696e7420746f20746865207a65726f2061646472657373600082015250565b6000615e97602083614482565b9150615ea282615e61565b602082019050919050565b60006020820190508181036000830152615ec681615e8a565b9050919050565b7f4552433732313a20746f6b656e20616c7265616479206d696e74656400000000600082015250565b6000615f03601c83614482565b9150615f0e82615ecd565b602082019050919050565b60006020820190508181036000830152615f3281615ef6565b9050919050565b600081905092915050565b6000615f4f82615d4f565b615f598185615f39565b9350615f69818560208601614493565b80840191505092915050565b6000615f818284615f44565b915081905092915050565b7f416464726573733a2063616c6c20746f206e6f6e2d636f6e7472616374000000600082015250565b6000615fc2601d83614482565b9150615fcd82615f8c565b602082019050919050565b60006020820190508181036000830152615ff181615fb5565b905091905056fe416464726573733a206c6f772d6c6576656c2064656c65676174652063616c6c206661696c6564a2646970667358221220bd0f1cb77558df072c7920e8aca2969d7f12a3309397f1d5b5b35031c338e94664736f6c634300080b0033",
  "linkReferences": {},
  "deployedLinkReferences": {}
}